:020000040800F2
:10000000984F0020812100080D1C00081B1C0008CF
:10001000211C0008271C00082D1C000800000000FF
:10002000000000000000000000000000331C000879
:10003000411C0008000000004F1C00085D1C000867
:10004000E5210008E5210008E5210008E521000878
:10005000E5210008E5210008E5210008E521000868
:10006000E5210008E5210008E5210008E521000858
:10007000E5210008E5210008E5210008E521000848
:10008000E5210008E5210008E5210008E521000838
:10009000E5210008E5210008E5210008E521000828
:1000A000E5210008E5210008E5210008E521000818
:1000B000E5210008E5210008E5210008E521000808
:1000C000E5210008E5210008E5210008E5210008F8
:1000D0006B1C0008E5210008E5210008E521000867
:1000E000E5210008E5210008E5210008E5210008D8
:1000F000E5210008E5210008E5210008E5210008C8
:10010000E5210008E5210008E5210008E5210008B7
:10011000E5210008E5210008E5210008E5210008A7
:10012000E5210008E5210008E5210008E521000897
:10013000E5210008E5210008E5210008E521000887
:10014000E5210008E5210008E5210008E521000877
:10015000E5210008E5210008E5210008E521000867
:10016000E5210008E5210008E5210008E521000857
:10017000E5210008E5210008E5210008E521000847
:10018000E5210008E521000880B582B000AF786065
:100190007B683C4A934208D10121012002F0BEFB5A
:1001A0000021012002F0BAFB68E07B68364A9342E6
:1001B00008D10121022002F0B1FB0021022002F04F
:1001C000ADFB5BE07B68314A934208D101210420FA
:1001D00002F0A4FB0021042002F0A0FB4EE07B68AB
:1001E0002B4A934208D10121082002F097FB0021FD
:1001F000082002F093FB41E07B68264A934208D135
:100200000121102002F08AFB0021102002F086FB61
:1002100034E07B68204A934208D10121202002F07B
:100220007DFB0021202002F079FB27E07B681B4A40
:10023000934208D10121402002F070FB00214020B0
:1002400002F06CFB1AE07B68154A934208D1012149
:10025000802002F063FB0021802002F05FFB0DE0B4
:100260007B68104A934209D101214FF4807002F05B
:1002700055FB00214FF4807002F050FB00BF08379F
:10028000BD4680BD0000024000040240000802405C
:10029000000C02400010024000140240001802400E
:1002A000001C02400020024080B487B000AF78609C
:1002B000396000237B6100233B610023FB60002346
:1002C0007B6176E001227B6902FA03F33B613B68C4
:1002D0001A683B691340FB60FA683B699A4265D132
:1002E0007B681A687B695B00032101FA03F3DB4337
:1002F0001A407B681A607B681A683B681B7919464C
:100300007B695B0001FA03F31A437B681A603B6860
:100310001B79012B03D03B681B79022B2ED17B6804
:100320009A687B695B00032101FA03F3DB431A40FF
:100330007B689A607B689A683B685B7919467B6941
:100340005B0001FA03F31A437B689A607B685A6882
:100350007B699BB2194601238B40DB431A407B68C3
:100360005A607B685B683A68927911467A6992B202
:1003700001FA02F292B21A437B685A607B68DA682B
:100380007B699BB25B00032101FA03F3DB431A4054
:100390007B68DA607B68DA683B68DB7919467B69E1
:1003A0005B0001FA03F31A437B68DA607B6901336F
:1003B0007B617B690F2B85D900BF1C37BD465DF87B
:1003C000047B704780B483B000AF78607B684FF6E1
:1003D000FF721A607B6800221A717B6800225A71D2
:1003E0007B6800229A717B680022DA7100BF0C37AB
:1003F000BD465DF8047B704780B485B000AF78607F
:100400000B467B804FF48033FB607A88FB68134394
:10041000FB60FA687B68DA617A887B68DA61FA687F
:100420007B68DA617B68DB69FB607B68DB69FB60AA
:1004300000BF1437BD465DF8047B704780B485B0BB
:1004400000AF78600B467B800023FB737B681A69E2
:100450007B881340002B02D00123FB7301E00023B3
:10046000FB73FB7B18461437BD465DF8047B704771
:1004700080B483B000AF78607B681B699BB218467C
:100480000C37BD465DF8047B704780B485B000AF83
:1004900078600B467B800023FB737B685A697B88FE
:1004A0001340002B02D00123FB7301E00023FB73F8
:1004B000FB7B18461437BD465DF8047B704780B45B
:1004C00083B000AF78607B685B699BB218460C37DD
:1004D000BD465DF8047B704780B483B000AF7860A0
:1004E0000B467B807B687A881A8300BF0C37BD4639
:1004F0005DF8047B704780B483B000AF78600B4632
:100500007B807B687A885A8300BF0C37BD465DF8D4
:10051000047B704780B483B000AF78600B467B806B
:1005200013467B707B78002B03D07B687A881A8314
:1005300002E07B687A885A8300BF0C37BD465DF8BD
:10054000047B704780B483B000AF78600B467B803B
:100550007A887B685A6100BF0C37BD465DF8047B22
:10056000704780B483B000AF78600B467B807B68B7
:100570005A697B885A407B685A6100BF0C37BD4678
:100580005DF8047B704780B485B000AF78600B469F
:100590007B8013467B700023FB600023BB607A786E
:1005A0007B8803F007039B0002FA03F3FB607B8860
:1005B000DB089BB218467B88DB089BB21A467B6837
:1005C000083253F822207B8803F007039B000F2199
:1005D00001FA03F3DB4302EA03017B6800F108023E
:1005E00043F822107B88DB089BB21A467B680832EE
:1005F00053F82220FB681343BB607B88DB089BB267
:100600001A467B680832B96843F8221000BF1437D5
:10061000BD465DF8047B704780B588B002AFF860D6
:10062000B9607A60FB685B697B61FB689B79012B31
:100630002BD1FB689B881846FB68DA68FB68196950
:10064000FB689B6801937B6800930B460146B86882
:1006500000F03FF97B6919887B695A687B69988942
:100660007B691B6900930346786805F0FAFBFB6819
:10067000DB79012B30D17B6919887B69DA897B6949
:100680009B68786806F09EF826E07B6919887B698C
:100690005A687B699B89B86804F05EFFFB68DB7968
:1006A000012B08D17B6919887B69DA897B699B6892
:1006B000B86806F087F8FB689B881846FB68DA681C
:1006C000FB681969FB689B6801937B6800930B4684
:1006D0000146B86800F004F800BF1837BD4680BD79
:1006E00080B491B000AFF860B9607A603B60BB6CD9
:1006F00008333B63BB681B01043BBA6C1344FB62C9
:10070000FB680833BB62BB68DB00043BFA68134438
:100710007B62BB68DB00FA681344FA6812681A60EF
:10072000BB68DB000433FA681344FA6852681A6045
:10073000FB6CDB007A681344BB63FB6CDB003A683C
:1007400013447B63BB68013BFB6390E0BB6B1A1DEA
:10075000BA631B683B62BB6B1B68FB61BB6A93EDB2
:10076000007AD7ED087A67EE277AC7ED067ABB6A7A
:100770001A1DBA6293ED007AD7ED077A67EE277AF1
:10078000C7ED057ABB6A93ED007A7B6AD3ED007AF8
:1007900037EE277AD7ED077A67EE277A97ED067A54
:1007A00077EE677AC7ED067ABB6A1A1DBA6293EDD7
:1007B000007AD7ED087A67EE277A97ED057A77EE1B
:1007C000277AC7ED057A7B6B1B683B617B6A1A1F32
:1007D0007A6293ED007AD7ED047A67EE277A97ED87
:1007E000057A77EE677AC7ED057A7B6A93ED007A32
:1007F000D7ED077A67EE277A97ED057A77EE677A75
:10080000C7ED057A7B6A1A1F7A6293ED007AD7EDFD
:10081000047A67EE277A97ED067A77EE277AC7EDA6
:10082000067A3B6B1A1D3A63BA691A603B6B1A1D54
:100830003A637A691A60FB6A1A1FFA62D7ED057A81
:10084000F1EE677AC3ED007AFB6A1A1FFA62BA69A1
:100850001A60FB6CDB007A6B13447B63FB6CDB0080
:10086000043BBA6B1344BB63FB6B013BFB63FB6B49
:10087000002B7FF46BAFBB68DB00BA6C1344FA68E3
:1008800092ED007AFA680432D2ED007A77EE677A58
:10089000C3ED007ABB68DB000433BA6C13444FF03D
:1008A00000021A60FB6893ED007AFB680433D3ED15
:1008B000007A77EE277ABB6CC3ED007ABB6C043309
:1008C0004FF000021A6000BF4437BD465DF8047B5C
:1008D000704780B48FB000AFF860B9607A603B6059
:1008E000FB68FB62BB68DB000433FA681344BB623D
:1008F0007B687B633B683B6384E07B6B1A1D7A6398
:100900001B687B627B6B1B683B62FB6A93ED007A22
:10091000D7ED097A67EE277AC7ED077AFB6A1A1DC9
:10092000FA62D3ED007AB1EE677AD7ED087A67EE16
:10093000277AC7ED067AFB6A93ED007ABB6AD3ED9E
:10094000007A37EE277AD7ED087A67EE277A97EDA7
:10095000077A77EE277AC7ED077AFB6A1A1DFA62E3
:1009600093ED007AD7ED097A67EE277A97ED067A4C
:1009700077EE277AC7ED067A3B6B1B687B61BB6A13
:100980001A1FBA6293ED007AD7ED057A67EE277ADF
:1009900097ED067A77EE677AC7ED067ABB6A93ED34
:1009A000007AD7ED057A67EE277A97ED077A77EE2A
:1009B000277AC7ED077ABB6A1A1FBA6293ED007AED
:1009C000D7ED087A67EE277A97ED067A77EE277AE1
:1009D000C7ED067A3B6C1A1D3A64FA691A603B6CE3
:1009E0001A1D3A64BA691A607B6CDB003A6B1344D7
:1009F0003B637B6CDB00043B7A6B13447B63BB681B
:100A0000013BBB60BB68002B7FF477AF00BF3C3776
:100A1000BD465DF8047B704780B483B000AF78605A
:100A20007B68002B07D14FF020427B6843F2DB014B
:100A300042F8231006E04FF020427B6843F2D201D7
:100A400042F823104FF020427B6801336FF0704171
:100A500042F82310054A7B686FF0704142F823107A
:100A600000BF0C37BD465DF8047B7047040100A051
:100A700080B483B000AF78604FF020407B681B6883
:100A80007A6851687A68926811437A68D26811432B
:100A90007A68126911437A68526911437A689269D7
:100AA00011437A68D26911437A68126A11437A68ED
:100AB000526A11437A68926A11437A68D26A114382
:100AC0007A68126B0A4340F823207B689B68082BE6
:100AD0000DD14FF020417B681B684FF020407A68B1
:100AE000126850F8222042F0400241F823204FF0D3
:100AF00020407B681B6801337A68526B11687A6802
:100B0000526B5268120111437A68526B926812025A
:100B100011437A68526BD268120411437A68526B9F
:100B20001269120511437A68526B52691206114319
:100B30007A68526B92690A4340F823207B68DB6A2B
:100B4000B3F5804F20D117487B681B687A68926B99
:100B500011687A68926B5268120111437A68926B3D
:100B60009268120211437A68926B1269120511435E
:100B70007A68926B5269120611437A68926B926995
:100B80000A4340F8232006E0064A7B681B686FF0A2
:100B9000704142F8231000BF0C37BD465DF8047B5E
:100BA000704700BF040100A080B483B000AF78603C
:100BB0007B6800221A607B6802225A607B680022F0
:100BC0009A607B680022DA607B6800221A617B6889
:100BD00000225A617B6800229A617B680022DA61F8
:100BE0007B6800221A627B684FF480525A627B68ED
:100BF0004FF400529A627B680022DA627B6800221E
:100C00001A637B685B6B0F221A607B685B6B0F2239
:100C10005A607B685B6BFF229A607B685B6B0F227C
:100C2000DA607B685B6B0F221A617B685B6B0F225B
:100C30005A617B685B6B00229A617B689B6B0F2219
:100C40001A607B689B6B0F225A607B689B6BFF224C
:100C50009A607B689B6B0F22DA607B689B6B0F222C
:100C60001A617B689B6B0F225A617B689B6B002229
:100C70009A6100BF0C37BD465DF8047B704780B4B5
:100C800083B000AF78600B46FB70FB78002B0CD074
:100C90004FF020414FF020427B6852F8233043F060
:100CA00001027B6841F823200BE04FF020414FF018
:100CB00020427B6852F82320054B13407A6841F8A4
:100CC000223000BF0C37BD465DF8047B704700BF83
:100CD000FEFF0F0080B483B000AF78607B68102BFC
:100CE0000ED1114B18221A600F4B40225A600E4B46
:100CF0004FF0FC329A600C4B4FF0FC32DA600DE0A2
:100D00000A4B18221A60094B40225A60074B4FF0D9
:100D1000FC329A60054B4FF0FC32DA6000BF0C37B2
:100D2000BD465DF8047B7047600000A0800000A015
:100D300080B487B000AF786000237B6100233B6103
:100D40000023FB607B685A687B689B681A437B685A
:100D5000DB681A437B681B691A437B685B695B022B
:100D60001A437B689B695B03134343F008037B6171
:100D70007B68DB691A687B68DB695B681B021A4366
:100D80007B68DB699B681B041A437B68DB69DB6853
:100D90001B0613433B617B681B6A1A687B681B6AEE
:100DA0005B681B021A437B681B6A9B681B041A431F
:100DB0007B681B6ADB681B061343FB607B681B6850
:100DC000102B09D10C4A7B6913600B4A3B69936075
:100DD000094AFB68D36008E0084A7B691360074A48
:100DE0003B699360054AFB68D36000BF1C37BD4672
:100DF0005DF8047B704700BF600000A0800000A089
:100E000080B483B000AF78607B6810221A607B6882
:100E100000225A607B6800229A607B680022DA60B8
:100E20007B6800221A617B6800225A617B6800227D
:100E30009A617B68DB69FC221A607B68DB69FC22B3
:100E40005A607B68DB69FC229A607B68DB69FC2264
:100E5000DA607B681B6AFC221A607B681B6AFC22D2
:100E60005A607B681B6AFC229A607B681B6AFC22C2
:100E7000DA6000BF0C37BD465DF8047B704780B474
:100E800083B000AF78600B46FB70FB78002B10D06E
:100E90007B68102B06D1124A114B1B6843F00403E8
:100EA000136016E00F4A0F4B1B6843F004031360F6
:100EB0000FE07B68102B06D10949094B1A680A4BD1
:100EC00013400B6005E00749064B1A68064B1340B8
:100ED0000B6000BF0C37BD465DF8047B704700BF58
:100EE000600000A0800000A0FBFF0F0080B483B072
:100EF00000AF78600B46FB70FB78002B10D07B684E
:100F0000102B06D1114A114B1B6843F040031360AC
:100F100016E00F4A0E4B1B6843F0400313600FE0CE
:100F20007B68102B06D10949084B1A68094B1340FE
:100F30000B6005E00649064B1A68064B13400B6030
:100F400000BF0C37BD465DF8047B7047600000A011
:100F5000800000A0BFFF0F0080B485B000AF7860B4
:100F60000023FB607B68102B03D1074B5B69FB60A0
:100F700002E0064B5B69FB60FB6818461437BD4610
:100F80005DF8047B704700BF600000A0800000A0F7
:100F900080B400AF0B4B18221A600A4B00225A6033
:100FA000084B4FF0FC329A60064B4FF0FC32DA608F
:100FB000044B4FF0FC321A6100BFBD465DF8047B64
:100FC000704700BFA00000A080B483B000AF78607D
:100FD00027497B681A687B685B685B021A437B68F9
:100FE0009B685B03134343F010030B6020497B684D
:100FF000DB681A687B68DB685B681B021A437B68E6
:10100000DB689B681B041A437B68DB68DB681B0694
:1010100013438B6016497B681B691A687B681B69E0
:101020005B681B021A437B681B699B681B041A439D
:101030007B681B69DB681B061343CB600C497B682C
:101040005B691A687B685B695B681B021A437B6893
:101050005B699B681B041A437B685B69DB681B0642
:1010600013430B6100BF0C37BD465DF8047B70472E
:10107000A00000A080B483B000AF78607B6800223D
:101080001A607B6800225A607B6800229A607B6845
:10109000DB68FC221A607B68DB68FC225A607B6894
:1010A000DB68FC229A607B68DB68FC22DA607B6884
:1010B0001B69FC221A607B681B69FC225A607B68F2
:1010C0001B69FC229A607B681B69FC22DA607B68E2
:1010D0005B69FC221A607B685B69FC225A607B6852
:1010E0005B69FC229A607B685B69FC22DA6000BF66
:1010F0000C37BD465DF8047B704780B483B000AF09
:101100000346FB71FB79002B06D0094A084B1B688C
:1011100043F00403136005E00549054B1A68054BCD
:1011200013400B6000BF0C37BD465DF8047B704771
:10113000A00000A0FBFF0F0080B485B000AFF860F6
:10114000B9601346FB71FB79002B1BD0FB68102B99
:1011500006D11E491D4B5A68BB6813434B602FE0F4
:10116000FB68B3F5807F06D11949194B5A68BB68F3
:1011700013434B6024E01749164B5A68BB6813436E
:101180004B601DE0FB68102B07D110490F4B5A68CC
:10119000BB68DB4313404B6012E0FB68B3F5807F14
:1011A00007D10B490A4B5A68BB68DB4313404B60BD
:1011B00006E00849074B5A68BB68DB4313404B60A5
:1011C00000BF1437BD465DF8047B7047600000A087
:1011D000800000A0A00000A080B485B000AF7860BF
:1011E00039600023FB730023BB607B68102B03D1A5
:1011F0000F4B5B68BB600AE07B68B3F5807F03D16F
:101200000C4B5B68BB6002E00B4B5B68BB60BA6871
:101210003B681340002B02D00123FB7301E0002345
:10122000FB73FB7B18461437BD465DF8047B7047A3
:10123000600000A0800000A0A00000A080B483B0E7
:1012400000AF786039607B68102B07D11049104BD4
:101250005A683B68DB4313404B6012E07B68B3F590
:10126000807F07D10B490B4B5A683B68DB43134027
:101270004B6006E00849084B5A683B68DB43134063
:101280004B6000BF0C37BD465DF8047B704700BF64
:10129000600000A0800000A0A00000A080B487B083
:1012A00000AF786039600023FB7500233B610023A9
:1012B000FB600023BB607B68102B03D1144B5B6881
:1012C0003B610AE07B68B3F5807F03D1114B5B681B
:1012D0003B6102E0104B5B683B613A693B6813403D
:1012E000FB603B68DA083B691340BB60FB68002B7E
:1012F00005D0BB68002B02D00123FB7501E0002361
:10130000FB75FB7D18461C37BD465DF8047B7047B6
:10131000600000A0800000A0A00000A080B483B006
:1013200000AF786039607B68102B08D11149114BF0
:101330005A683B68DB08DB4313404B6014E07B6872
:10134000B3F5807F08D10C490B4B5A683B68DB082A
:10135000DB4313404B6007E00849084B5A683B6881
:10136000DB08DB4313404B6000BF0C37BD465DF824
:10137000047B7047600000A0800000A0A00000A0D7
:1013800080B489B000AFF860B9607A603B60002338
:101390007B61FB681A1DFA601B68FB61BB68013B3F
:1013A000BB61FB681A1DFA601B683B6197ED077A09
:1013B000D7ED047AB4EEE77AF1EE10FA05D53B6981
:1013C000FB61BA68BB69D31A7B61BB69013BBB6136
:1013D000BB69002BE5D17B68FA691A603B687A69C2
:1013E0001A6000BF2437BD465DF8047B70470000DB
:1013F00080B582B000AF78607B68174A93420AD10B
:1014000001214FF4805001F009FB00214FF480507E
:1014100001F004FB1CE07B68104A93420AD10121D1
:101420004FF4804001F0DAFA00214FF4804001F0DF
:10143000D5FA0DE07B680A4A934209D101214FF4A5
:10144000004001F0CBFA00214FF4004001F0C6FA51
:1014500000BF0837BD4680BD003001400038004065
:10146000003C004080B485B000AF78603960002354
:10147000FB817B681B88FB81FB8903F44153FB8163
:101480003B681A883B685B8813439AB23B689B8829
:1014900013439AB23B68DB8813439AB23B681B89BB
:1014A00013439AB23B685B8913439AB23B689B89AA
:1014B00013439AB23B68DB8913439AB2FB89134307
:1014C000FB817B68FA891A807B689B8B9BB223F433
:1014D00000639AB27B689A833B681A8A7B681A8297
:1014E00000BF1437BD465DF8047B704780B48BB0F5
:1014F00000AF7860396000237B830223FB840023E4
:10150000BB8401237B840023FB6100237B610023D8
:101510003B610023FB600023BB607B689B8B9BB21D
:1015200023F47B6323F00F039AB27B689A837B6872
:1015300002221A847B689B8B7B833B689B68022B0F
:1015400004D10023BB840223FB846DE03B689B88AD
:10155000002B02D101237B8401E002237B844B4BCF
:101560009B6803F40003002B05D0484A474B9B6857
:1015700023F400039360454BD3F884309B09C3F3F5
:101580000803FB60414BD3F884301B0F03F00703C3
:10159000BB603E4B5B6803F03F033B613C4A3B69E9
:1015A000B2FBF3F3FA6802FB03F2BB68B2FBF3F39E
:1015B0007B613B68DB88B3F5007F0FD17B691A0A3A
:1015C00013469B0013445B001A463B689B68B2FBC2
:1015D000F3F39BB205339BB2FB6112E07B8C5B01A2
:1015E0001A467B69B3FBF2F213469B0013445B007F
:1015F0001A463B689B68B2FBF3F39BB205339BB280
:10160000FB61FB69234AA2FB0323DB08FB61FB6947
:101610009BB203F00103BB84BB8CFA69D31A5B084D
:10162000FB84BB8C1B02BB84FB8C012B02D9FB8C83
:10163000FF2B03D90223FB840023BB843B68DA8899
:10164000BB8C13439AB2FB8C13439AB27B681A8407
:101650003B681A883B6859883B6898883B689B8937
:1016600003439BB20B439BB213439AB27B8B13434E
:101670009BB243F400637B837B687A8B9A8300BFC1
:101680002C37BD465DF8047B704700BF0038024030
:1016900000127A00CDCCCCCC80B483B000AF78609F
:1016A0007B6800221A807B6800225A807B680022B7
:1016B0009A807B680022DA807B6800221A817B682E
:1016C00000225A817B6800229A817B680022DA819D
:1016D0007B6807221A8200BF0C37BD465DF8047B89
:1016E000704780B483B000AF78607B6800221A80B6
:1016F0007B6800225A807B6800229A807B680022E7
:10170000DA807B6802229A607B6800229A8100BF9F
:101710000C37BD465DF8047B704780B483B000AFE2
:1017200078600B46FB70FB78002B08D07B681B8829
:101730009BB243F040039AB27B681A8007E07B6853
:101740001B889BB223F040039AB27B681A8000BFCB
:101750000C37BD465DF8047B704780B483B000AFA2
:1017600078600B46FB70FB78002B08D07B689B8B66
:101770009BB243F480639AB27B689A8307E07B68EC
:101780009B8B9BB223F480639AB27B689A8300BFE1
:101790000C37BD465DF8047B704780B483B000AF62
:1017A00078600B467B807B681B889BB223F40063C8
:1017B0009AB27B681A807B681B889AB27B88134335
:1017C0009AB27B681A8000BF0C37BD465DF8047B77
:1017D000704780B483B000AF78600B467B807B8815
:1017E000B3F5804F08D17B681B889BB243F48043DC
:1017F0009AB27B681A8007E07B681B889BB223F44F
:1018000080439AB27B681A8000BF0C37BD465DF8F2
:10181000047B704780B483B000AF78600B467B8058
:101820007B884FF6FF62934208D07B681B889BB28F
:1018300043F480739AB27B681A8007E07B681B8848
:101840009BB223F480739AB27B681A8000BF0C3776
:10185000BD465DF8047B704780B483B000AF78600C
:101860000B46FB70FB78002B08D07B689B889BB2F3
:1018700043F004039AB27B689A8007E07B689B88F8
:101880009BB223F004039AB27B689A8000BF0C37A6
:10189000BD465DF8047B704780B483B000AF7860CC
:1018A0000B46FB70FB78002B08D07B689B889BB2B3
:1018B00043F010039AB27B689A8007E07B689B88AC
:1018C0009BB223F010039AB27B689A8000BF0C375A
:1018D000BD465DF8047B704780B485B000AF78608A
:1018E00039600023BB810023FB817B689B8B9BB20B
:1018F00023F47B6323F00F039AB27B689A837B689F
:1019000002221A847B689B8BBB813B681B88B3F5E2
:10191000007F03D03B681B88002B03D14FF48073FA
:10192000FB810BE03B681B88B3F5407F04D03B682C
:101930001B88B3F5807F01D10023FB813B685A8867
:101940003B6899883B689B890B439BB213439AB2CF
:10195000FB8913439AB2BB8913439BB243F40063E0
:10196000BB817B68BA899A8300BF1437BD465DF896
:10197000047B704780B483B000AF78607B689B893C
:101980009BB218460C37BD465DF8047B704780B4A7
:1019900083B000AF78600B467B807B687A889A8141
:1019A00000BF0C37BD465DF8047B704780B483B040
:1019B00000AF78600B46FB70FB78002B08D07B688B
:1019C0001B889BB243F400539AB27B681A8007E0ED
:1019D0007B681B889BB223F400539AB27B681A8001
:1019E00000BF0C37BD465DF8047B704780B483B000
:1019F00000AF78607B681B889BB243F480539AB237
:101A00007B681A8000BF0C37BD465DF8047B7047C9
:101A100080B485B000AF78600B46FB700023FB817B
:101A2000FB78012B03D07B681B8BFB8102E07B687A
:101A30009B8AFB81FB8918461437BD465DF8047B01
:101A4000704780B483B000AF78607B681B8A9BB21C
:101A500018460C37BD465DF8047B704780B483B0F0
:101A600000AF78600B467B8013467B707B78002B41
:101A700008D07B689B889AB27B8813439AB27B68B4
:101A80009A8009E07B689B889AB27B88DB439BB293
:101A900013409AB27B689A8000BF0C37BD465DF850
:101AA000047B704780B485B000AF78600B46FB7054
:101AB0001346BB700023FB810023BB81FB781B090D
:101AC000DBB2FB81FB89012202FA03F3BB81BB7805
:101AD000002B08D07B689B889AB2BB8913439AB2CB
:101AE0007B689A8009E07B689B889AB2BB89DB435C
:101AF0009BB213409AB27B689A8000BF1437BD46F0
:101B00005DF8047B704780B485B000AF78600B4609
:101B10007B800023FB737B681B899AB27B88134010
:101B20009BB2002B02D00123FB7301E00023FB7367
:101B3000FB7B18461437BD465DF8047B704780B4C4
:101B400083B000AF78600B467B807B88DB439AB222
:101B50007B681A8100BF0C37BD465DF8047B704777
:101B600080B485B000AF78600B46FB700023FB7338
:101B70000023BB8100237B8100233B81FB7803F0A2
:101B80000F03012202FA03F3BB81FB781B09DBB2CE
:101B90007B817B89012202FA03F37B817B689B882E
:101BA0009AB27B8913403B817B681B899AB2BB89BF
:101BB00013409BB2002B05D03B89002B02D00123A0
:101BC000FB7301E00023FB73FB7B18461437BD4613
:101BD0005DF8047B704780B485B000AF78600B4639
:101BE000FB700023FB81FB7803F00F03012202FA54
:101BF00003F3FB81FB89DB439AB27B681A8100BF48
:101C00001437BD465DF8047B704700BF80B400AF59
:101C100000BFBD465DF8047B704780B400AFFEE7AF
:101C200080B400AFFEE780B400AFFEE780B400AF41
:101C3000FEE780B400AF00BFBD465DF8047B70478F
:101C400080B400AF00BFBD465DF8047B704780B430
:101C500000AF00BFBD465DF8047B704780B400AFA5
:101C600000BFBD465DF8047B704780B582B000AF11
:101C700060211D48FFF774FF0346002B30D01A483F
:101C8000FFF778FE0346FB80184B1B685A1C174968
:101C90000A60FA88D1B2164AD154144B1B685A1CF8
:101CA00012490A60FA88120A92B251B2FA881202F4
:101CB00052B20A4352B2D1B20D4AD1540B4B1B68F7
:101CC000FF2B0DD9094B00221A603223BB80BA8842
:101CD000084B0949064805F08BFE084B01221A60A3
:101CE00000BF0837BD4680BD003800400C0D002005
:101CF000580D0020E03200202C430020100D002061
:101D000080B483B000AF7860064A7B6843F0BF635D
:101D100043F40033D36000BF0C37BD465DF8047B4D
:101D2000704700BF00ED00E080B485B000AF786080
:101D30000023FB730023BB730F237B737B68DB786B
:101D4000002B39D0274BDB68DB431B0ADBB203F0E7
:101D50000703FB73FB7BC3F10403BB737A7BFB7B41
:101D600042FA03F37B737B685B781A46BB7B02FA0B
:101D700003F3FB737B689A787B7B1340DAB2FB7BBF
:101D80001343FB73FB7B1B01FB73174A7B681B78B8
:101D90001344FA7B83F80023134A7B681B785B09A2
:101DA000DBB218467B681B7803F01F03012101FAA0
:101DB00003F342F820300FE00B497B681B785B0986
:101DC000DBB218467B681B7803F01F0301229A40A0
:101DD00000F1200341F8232000BF1437BD465DF811
:101DE000047B704700ED00E000E100E080B483B0C8
:101DF00000AF7860396007493B6823F0604323F007
:101E00007F037A6813438B6000BF0C37BD465DF8D3
:101E1000047B704700ED00E080B483B000AF034660
:101E20000A46FB711346BB71BB79002B06D00A49E9
:101E3000094B1A69FB7913430B6106E00649064B0F
:101E40001A69FB79DB4313400B6100BF0C37BD46B9
:101E50005DF8047B704700BF00ED00E080B483B004
:101E600000AF78607B68042B06D1094A084B1B68D9
:101E700043F00403136005E0054A054B1B6823F09B
:101E80000403136000BF0C37BD465DF8047B704748
:101E900010E000E080B485B000AF78600B4B1B68A9
:101EA000002B02D1094B0A4A1A60084B1B68FB60E1
:101EB000064B1A687B681344044A1360FB68184693
:101EC0001437BD465DF8047B704700BF140D002039
:101ED0009847002080B483B000AF786039604FF03D
:101EE000FF3318460C37BD465DF8047B704780B45D
:101EF00083B000AF78604FF0FF3318460C37BD4613
:101F00005DF8047B704780B483B000AF78603960BF
:101F10003B684FF400525A60002318460C37BD4608
:101F20005DF8047B704780B483B000AF7860012314
:101F300018460C37BD465DF8047B704780B485B009
:101F400000AFF860B9607A60002318461437BD46C8
:101F50005DF8047B704780B485B000AFF860B9606D
:101F60007A60002318461437BD465DF8047B70473D
:101F700080B485B000AFF860B9607A607B681846BD
:101F80001437BD465DF8047B704780B400AFFEE7B0
:101F900080B586B000AFF860B9607A603B6000231E
:101FA000FB757B689BB21A46FB681A607B689BB224
:101FB0005B089AB2FB689A80FB68224ADA60FB6889
:101FC000214A1A613B68DAB2FB689A713B6ADAB25D
:101FD000FB68DA71FB681B68B3F5007F09D0B3F5C5
:101FE000006F02D0802B08D00BE0FB6801229A60C2
:101FF0000AE0FB6804229A6006E0FB6810229A60FF
:1020000002E0FF23FB7500BFFB68BA685A61FB68FA
:102010009B79002B08D0FB685869FB6899880023DE
:10202000012200F035FF07E0FB685869FB689988DA
:102030000023002200F02CFF97F9173018461837BC
:10204000BD4680BD280701082827010880B500AFDC
:1020500001214FF4804000F0E1FC00214FF480406A
:1020600000F0DCFC00BF80BD80B483B000AF03464D
:10207000FB71044AFB79136000BF0C37BD465DF865
:10208000047B70470038014090B484B000AF034631
:102090000A46FB711346BB710023FB60BB7903F05A
:1020A00003039B000F2202FA03F3FB601649BB797E
:1020B0009B08DBB21846144ABB799B08DBB202339B
:1020C00052F82320FB68DB431A40831C41F823208D
:1020D0000D48BB799B08DBB21C460B4ABB799B08B9
:1020E000DBB2023352F82320F979BB7903F0030302
:1020F0009B0001FA03F31A43A31C40F8232000BFFE
:102100001037BD4690BC70470038014080B483B0A2
:1021100000AF7860044A7B68136000BF0C37BD468F
:102120005DF8047B704700BFDC00274280B483B0B9
:1021300000AF0346FB71044AFB79136000BF0C3704
:10214000BD465DF8047B70470004274280B483B02D
:1021500000AF0023FB71094B1B6A03F48073002B53
:1021600002D00123FB7101E00023FB71FB791846CB
:102170000C37BD465DF8047B704700BF0038014056
:1021800080B582B000AF144B7B60144B3B6007E01E
:102190003B681A1D3A607A68111D796012681A60EE
:1021A0003B680F4A9342F3D3104811494FF00002A5
:1021B0008842B8BF40F8042BFADBDFF8380001682A
:1021C00041F47001016000F0EDFF04F0D9FB00BFA5
:1021D0000837BD4680BD00BF8870010800000020A0
:1021E0000C0D002080B400AFFEE700000C0D0020B5
:1021F0009847002088ED00E080B400AF104A104BF3
:102200001B6843F0010313600D4B00229A600C4AD7
:102210000B4B1B6823F0847323F480331360084B4B
:10222000084A5A60064A064B1B6823F48023136051
:10223000034B0022DA6000BFBD465DF8047B7047A7
:10224000003802401030002480B483B000AF034651
:10225000FB71064B00221A70044AFB79137000BF11
:102260000C37BD465DF8047B704700BF0238024062
:1022700080B582B000AF00233B600023FB710023D8
:10228000BB71312000F0B0FC0346BB713B680133E9
:102290003B603B68B3F5A06F02D0BB79002BF0D058
:1022A000312000F0A1FC0346002B02D00123FB717A
:1022B00001E00023FB71FB7918460837BD4680BD5D
:1022C00080B485B000AF0346FB710023FB600A4B6E
:1022D0001B68FB60FB6823F0F803FB60FB79DB0005
:1022E000FA681343FB60044AFB68136000BF1437AD
:1022F000BD465DF8047B70470038024080B483B06F
:1023000000AF0346FB71044AFB79136000BF0C3732
:10231000BD465DF8047B70470000474280B483B03F
:1023200000AF0346FB710D4B00221A700B4B0022CD
:102330001A70FB79012B02D0042B04D007E0074B65
:1023400001221A7003E0054B05221A7000BF00BF7E
:102350000C37BD465DF8047B704700BF7038024003
:1023600080B483B000AF0346FB71044AFB7913606D
:1023700000BF0C37BD465DF8047B7047800E4742B6
:1023800080B485B000AFF860B9607A603B600B49FB
:102390007B689A01BB681A433B685B08013B1B04DE
:1023A0001A43FB681A43BB691B0613434B6000BF0B
:1023B0001437BD465DF8047B704700BF003802400B
:1023C00080B483B000AF0346FB71044AFB7913600D
:1023D00000BF0C37BD465DF8047B70476000474284
:1023E00080B483B000AF7860396007497B689A0198
:1023F0003B681B071343C1F8843000BF0C37BD4650
:102400005DF8047B704700BF0038024080B483B0A1
:1024100000AF0346FB71044AFB79136000BF0C3721
:10242000BD465DF8047B70476800474280B483B0C6
:1024300000AF0346FB71044AFB79136000BF0C3701
:10244000BD465DF8047B70474C00474280B485B0C0
:1024500000AF786039600023FB600B4B9B68FB602A
:10246000FB6823F0EC63FB607A683B681343FA680F
:102470001343FB60044AFB68936000BF1437BD46FA
:102480005DF8047B704700BF0038024080B485B01F
:1024900000AF786039600023FB600B4B9B68FB60EA
:1024A000FB6823F07843FB607A683B681343FA6863
:1024B0001343FB60044AFB68936000BF1437BD46BA
:1024C0005DF8047B704700BF0038024080B485B0DF
:1024D00000AF78600023FB60094B9B68FB60FB68E2
:1024E00023F00303FB60FA687B681343FB60044A34
:1024F000FB68936000BF1437BD465DF8047B7047EE
:102500000038024080B400AF054B9B68DBB203F09B
:102510000C03DBB21846BD465DF8047B704700BF74
:102520000038024080B485B000AF78600023FB60C3
:10253000094B9B68FB60FB6823F0F003FB60FA68C3
:102540007B681343FB60044AFB68936000BF143749
:10255000BD465DF8047B70470038024080B485B00A
:1025600000AF78600023FB60094B9B68FB60FB6851
:1025700023F4E053FB60FA687B681343FB60044A72
:10258000FB68936000BF1437BD465DF8047B70475D
:102590000038024080B485B000AF78600023FB6053
:1025A0000A4B9B68FB60FB6823F46043FB607B681D
:1025B000DB00FA681343FB60044AFB68936000BFCA
:1025C0001437BD465DF8047B704700BF00380240F9
:1025D00080B489B000AF78600023BB6100237B61C9
:1025E0000023FB6102233B610023FB600223BB60ED
:1025F000474B9B6803F00C03BB61BB69042B07D0FE
:10260000082B09D0002B3DD17B68424A1A603DE07F
:102610007B68414A1A6039E03D4B5B689B0D03F0D3
:102620000103FB603A4B5B6803F03F03BB60FB6850
:10263000002B0CD0384ABB68B2FBF3F3344A526823
:102640009209C2F3080202FB03F3FB610BE0314A7B
:10265000BB68B2FBF3F32E4A52689209C2F3080238
:1026600002FB03F3FB612A4B5B681B0C03F00303C3
:1026700001335B003B61FA693B69B2FBF3F27B68B3
:102680001A6003E07B68234A1A6000BF204B9B68F6
:1026900003F0F003BB61BB691B09BB611F4ABB6947
:1026A00013441B78DBB27B617B681A687B69DA4074
:1026B0007B685A60164B9B6803F4E053BB61BB69AF
:1026C0009B0ABB61154ABB6913441B78DBB27B6173
:1026D0007B685A687B69DA407B689A600C4B9B6820
:1026E00003F46043BB61BB695B0BBB610B4ABB6915
:1026F00013441B78DBB27B617B685A687B69DA40E4
:102700007B68DA6000BF2437BD465DF8047B704704
:10271000003802400024F40000127A00200000205B
:1027200080B485B000AF78600023FB607B6803F461
:102730004073B3F5407F11D10F4B9B68FB60FB6882
:1027400023F4F813FB607B6823F0704323F4407399
:10275000FA681343FB60084AFB6893600649064B1E
:102760001A6F7B68C3F30B0313430B6700BF143767
:10277000BD465DF8047B70470038024080B483B0EA
:1027800000AF0346FB71044AFB79136000BF0C37AE
:10279000BD465DF8047B70473C0E474280B483B071
:1027A00000AF0346FB71044AFB79136000BF0C378E
:1027B000BD465DF8047B7047400E474280B483B04D
:1027C00000AF7860044A7B68136000BF0C37BD46D9
:1027D0005DF8047B704700BF5C01474280B483B062
:1027E00000AF78600B46FB70FB78002B06D00A49DF
:1027F000094B1A6B7B6813430B6306E00649064BD3
:102800001A6B7B68DB4313400B6300BF0C37BD467C
:102810005DF8047B704700BF0038024080B483B08D
:1028200000AF78600B46FB70FB78002B06D00A499E
:10283000094B5A6B7B6813434B6306E00649064B12
:102840005A6B7B68DB4313404B6300BF0C37BD46BC
:102850005DF8047B704700BF0038024080B483B04D
:1028600000AF78600B46FB70FB78002B06D00A495E
:10287000094B9A6B7B6813438B6306E00649064B52
:102880009A6B7B68DB4313408B6300BF0C37BD46FC
:102890005DF8047B704700BF0038024080B483B00D
:1028A00000AF78600B46FB70FB78002B06D00A491E
:1028B000094B1A6C7B6813430B6406E00649064B10
:1028C0001A6C7B68DB4313400B6400BF0C37BD46BA
:1028D0005DF8047B704700BF0038024080B483B0CD
:1028E00000AF78600B46FB70FB78002B06D00A49DE
:1028F000094B5A6C7B6813434B6406E00649064B50
:102900005A6C7B68DB4313404B6400BF0C37BD46F9
:102910005DF8047B704700BF0038024080B483B08C
:1029200000AF78600B46FB70FB78002B06D00A499D
:10293000094B1A697B6813430B6106E00649064B95
:102940001A697B68DB4313400B6100BF0C37BD463F
:102950005DF8047B704700BF0038024080B483B04C
:1029600000AF78600B46FB70FB78002B06D00A495D
:10297000094B5A697B6813434B6106E00649064BD5
:102980005A697B68DB4313404B6100BF0C37BD467F
:102990005DF8047B704700BF0038024080B483B00C
:1029A00000AF78600B46FB70FB78002B06D00A491D
:1029B000094B9A697B6813438B6106E00649064B15
:1029C0009A697B68DB4313408B6100BF0C37BD46BF
:1029D0005DF8047B704700BF0038024080B483B0CC
:1029E00000AF78600B46FB70FB78002B06D00A49DD
:1029F000094B1A6A7B6813430B6206E00649064BD3
:102A00001A6A7B68DB4313400B6200BF0C37BD467C
:102A10005DF8047B704700BF0038024080B483B08B
:102A200000AF78600B46FB70FB78002B06D00A499C
:102A3000094B5A6A7B6813434B6206E00649064B12
:102A40005A6A7B68DB4313404B6200BF0C37BD46BC
:102A50005DF8047B704700BF0038024080B483B04B
:102A600000AF78600B46FB70FB78002B06D00A495C
:102A7000094B1A6D7B6813430B6506E00649064B4C
:102A80001A6D7B68DB4313400B6500BF0C37BD46F6
:102A90005DF8047B704700BF0038024080B483B00B
:102AA00000AF78600B46FB70FB78002B06D00A491C
:102AB000094B5A6D7B6813434B6506E00649064B8C
:102AC0005A6D7B68DB4313404B6500BF0C37BD4636
:102AD0005DF8047B704700BF0038024080B483B0CB
:102AE00000AF78600B46FB70FB78002B06D00A49DC
:102AF000094B9A6D7B6813438B6506E00649064BCC
:102B00009A6D7B68DB4313408B6500BF0C37BD4675
:102B10005DF8047B704700BF0038024080B483B08A
:102B200000AF78600B46FB70FB78002B06D00A499B
:102B3000094B1A6E7B6813430B6606E00649064B89
:102B40001A6E7B68DB4313400B6600BF0C37BD4633
:102B50005DF8047B704700BF0038024080B483B04A
:102B600000AF78600B46FB70FB78002B06D00A495B
:102B7000094B5A6E7B6813434B6606E00649064BC9
:102B80005A6E7B68DB4313404B6600BF0C37BD4673
:102B90005DF8047B704700BF0038024080B483B00A
:102BA00000AF03460A46FB711346BB71BB79002B8D
:102BB00008D00C490B4B1B78DAB2FB791343DBB21C
:102BC0000B7009E00749074B1B78DAB2FB79DB434E
:102BD000DBB21340DBB20B7000BF0C37BD465DF8B3
:102BE000047B70470D38024080B487B000AF0346C5
:102BF000FB710023FB6000237B610023FB74FB79E6
:102C00005B09DBB2FB60FB68012B03D1124B1B6835
:102C10007B6109E0FB68022B03D10F4B1B6F7B61CB
:102C200002E00D4B5B6F7B61FB7903F01F03FB60E0
:102C30007A69FB6822FA03F303F00103002B02D048
:102C40000123FB7401E00023FB74FB7C18461C3756
:102C5000BD465DF8047B70470038024080B400AF89
:102C6000054A054B5B6F43F08073536700BFBD4659
:102C70005DF8047B704700BF0038024080B485B027
:102C800000AF0346FB710023FB73094BDA68FB7945
:102C90001340002B02D00123FB7301E00023FB73E0
:102CA000FB7B18461437BD465DF8047B704700BFB8
:102CB0000038024080B483B000AF0346FB71044A81
:102CC000FB79137000BF0C37BD465DF8047B70477D
:102CD0000E38024080B584B000AF0346FB71FB792B
:102CE000104A52F8233001211846FFF777FDFB798F
:102CF0000D4A32F81330BB6001233B730023BB73D2
:102D00000123FB7302237B73FB79084A52F82330BB
:102D100007F1080211461846FDF7C6FA00BF103742
:102D2000BD4680BD3047010828470108300000201B
:102D300080B483B000AF0346FB71FB79064A52F8BA
:102D40002330FA79054931F812201A8300BF0C3775
:102D5000BD465DF8047B704730000020284701081D
:102D600080B483B000AF0346FB71FB79064A52F88A
:102D70002330FA79054931F812205A8300BF0C3705
:102D8000BD465DF8047B70473000002028470108ED
:102D900080B483B000AF0346FB71FB79094A52F857
:102DA0002330FA79074951F822205269F979064807
:102DB00030F811104A405A6100BF0C37BD465DF82B
:102DC000047B7047300000202847010880B588B098
:102DD00000AF03460A46FB711346BB710123012174
:102DE0001846FFF7FBFC01214FF48040FFF776FD0A
:102DF00000233B770023FB770123BB61FB79184A53
:102E000052F8233007F1180211461846FDF74CFA24
:102E1000BB79012B1FD10023002211461846FFF772
:102E200033F901233B6100233B7508237B750123A4
:102E3000BB7507F11003184600F0BCF806233B737E
:102E40000F237B730F23BB730123FB7307F10C0369
:102E50001846FEF769FF00BF2037BD4680BD00BFA2
:102E60004000002080B582B000AF0346FB71FB79C3
:102E7000064A52F82330012211461846FDF7DEFAC1
:102E8000034618460837BD4680BD00BF40000020FD
:102E900080B485B000AF7860084611461A460346F4
:102EA0007B800B467B7013463B700023FB737B6873
:102EB0007A881A807B682D4A5A607B687A789A7083
:102EC0007B683A78DA707B681B88402B26D0402BD1
:102ED00002DC102B30D03DE0B3F5807F10D0B3F58D
:102EE000806F37D17B6801229A817B680122DA8169
:102EF0007B681F4A9A607B684FF06A521A612CE027
:102F00007B6804229A817B680422DA817B68194AF3
:102F10009A607B684FF06E521A611EE07B68102247
:102F20009A817B681022DA817B68134A9A607B68F9
:102F30004FF072521A6110E07B6840229A817B68E0
:102F40004022DA817B680D4A9A607B684FF07652A6
:102F50001A6102E0FF23FB7300BF97F90F30184698
:102F60001437BD465DF8047B704700BF5847010821
:102F7000586701085E67010876670108D66701088F
:102F800080B400AF094B00221A60084B00225A603F
:102F9000064B00229A60054B0022DA60034B044A7C
:102FA0005A6100BFBD465DF8047B7047003C01409C
:102FB000FFFF7F0080B485B000AF78600023FB6026
:102FC000344BFB607B689B79002B4FD03149314BF0
:102FD0001A687B681B68DB4313400B602D492D4B3F
:102FE0005A687B681B68DB4313404B607B681B7926
:102FF0001A46FB681344FB60FB68FA6811687A683C
:1030000012680A431A602349224B9A687B681B683E
:10301000DB4313408B601F491E4BDA687B681B68DB
:10302000DB431340CB607B685B79102B0ED11949D1
:10303000184B9A687B681B6813438B601549154BC6
:10304000DA687B681B681343CB601DE0114BFB60A3
:103050007B685B791A46FB681344FB60FB68FA687F
:1030600011687A6812680A431A600DE07B681B7960
:103070001A46FB681344FB60FB68FA6811687A68BB
:103080001268D2430A401A6000BF1437BD465DF88B
:10309000047B7047003C014080B483B000AF78608F
:1030A0007B6800221A607B6800221A717B680C2200
:1030B0005A717B6800229A7100BF0C37BD465DF8DB
:1030C000047B704780B483B000AF78600549054B3E
:1030D0001A697B6813430B6100BF0C37BD465DF86E
:1030E000047B7047003C014080B485B000AF78603D
:1030F0000023FB73084B5A697B681340002B02D0F6
:103100000123FB7301E00023FB73FB7B184614379C
:10311000BD465DF8047B7047003C014080B483B03D
:1031200000AF7860044A7B68536100BF0C37BD462E
:103130005DF8047B704700BF003C014080B485B05F
:1031400000AF78600023FB730023BB600C4B1A6850
:103150007B681340BB600A4B5A697B681340002BA5
:1031600005D0BB68002B02D00123FB7301E00023D4
:10317000FB73FB7B18461437BD465DF8047B704734
:10318000003C014080B483B000AF7860044A7B68A3
:10319000536100BF0C37BD465DF8047B704700BF2C
:1031A000003C014080B500AF164A164BD3F888307A
:1031B00043F47003C2F88830134A134B1B6843F082
:1031C00001031360104B00229A600F4A0E4B1B68DC
:1031D00023F0847323F4803313600B4B0B4A5A6043
:1031E000094A094B1B6823F480231360064B002215
:1031F000DA6000F089F8034B4FF000629A6000BF7C
:1032000080BD00BF00ED00E0003802401030002417
:1032100080B487B000AF00233B6100237B610223B1
:10322000FB600023BB6002237B60324B9B6803F092
:103230000C033B613B69042B07D0082B09D0002B02
:103240003DD12D4B2D4A1A603DE02B4B2C4A1A6084
:1032500039E0284B5B689B0D03F00103BB60254BF5
:103260005B6803F03F037B60BB68002B0CD0244AF3
:103270007B68B2FBF3F31F4A52689209C2F308025B
:1032800002FB03F37B610BE01C4A7B68B2FBF3F3A8
:10329000184A52689209C2F3080202FB03F37B61E9
:1032A000144B5B681B0C03F0030301335B00FB60F2
:1032B0007A69FB68B2FBF3F30F4A136003E00E4B2D
:1032C0000E4A1A6000BF0B4B9B681B0903F00F03EB
:1032D0000C4AD35CDBB23B61074B1A683B6922FAAC
:1032E00003F3054A136000BF1C37BD465DF8047B3D
:1032F000704700BF00380240440000200024F40062
:1033000000127A004800002080B483B000AF002390
:103310007B6000233B60414A404B1B6843F4803391
:1033200013603E4B1B6803F400333B607B68013342
:103330007B603B68002B03D17B68B3F5A06FF0D1B5
:10334000364B1B6803F40033002B02D001233B6093
:1033500001E000233B603B68012B42D12F4A2F4BF9
:103360001B6C43F0805313642D4A2D4B1B6843F4B0
:1033700080431360294A294B9B689360274A274B57
:103380009B6843F400439360244A244B9B6843F4B6
:10339000A0539360214B234A5A60204A1F4B1B685D
:1033A00043F08073136000BF1C4B1B6803F0007375
:1033B000002BF9D01C4B40F205621A60174A174BDC
:1033C0009B6823F003039360144A144B9B6843F0FB
:1033D0000203936000BF114B9B6803F00C03082BA2
:1033E000F9D10E4A0D4B9B6823F4000393600B4BFD
:1033F0000E4AC3F88420094A084B1B6843F08063D7
:10340000136000BF054B1B6803F00063002BF9D06D
:1034100000BF0C37BD465DF8047B704700380240A2
:103420000070004008544007003C024080400030DB
:1034300080B582B000AF00F005FC01210420FDF74B
:103440001EFC0420FDF7E8FA4CF203733B600023F6
:103450003B710023FB713B4619468248FCF724FF71
:10346000002200217F48FDF78EF8002201217D48CF
:10347000FDF789F8002208217A48FDF784F8002238
:1034800009217848FDF77FF800220A217548FDF7E9
:103490007AF800220E217348FDF775F800220F21FB
:1034A0007048FDF770F84FF680733B603B46194655
:1034B0006D48FCF7F9FE002207216B48FDF763F821
:1034C000002208216848FDF75EF8002209216648BD
:1034D000FDF759F800220A216348FDF754F800224D
:1034E0000B216148FDF74FF800220C215E48FDF7E3
:1034F0004AF800220D215C48FDF745F800220E2114
:103500005948FDF740F800220F215748FDF73BF8D6
:103510004FF23F033B603B4619465448FCF7C4FE5C
:10352000002200215148FDF72EF8002201214F48CA
:10353000FDF729F8002202214C48FDF724F800226B
:1035400003214A48FDF71FF8002204214748FDF7F0
:103550001AF8002205214548FDF715F800220C2134
:103560004248FDF710F800220D214048FDF70BF806
:1035700000220E213D48FDF706F800220F213B48AE
:10358000FDF701F83F233B603B4619463848FCF7FE
:103590008BFE002200213648FCF7F5FF00220121B6
:1035A0003348FCF7F0FF002202213148FCF7EBFF23
:1035B000002203212E48FCF7E6FF002204212C48BC
:1035C000FCF7E1FF002205212948FCF7DCFF4FF45E
:1035D00060533B603B4619462248FCF765FE0022DB
:1035E0000B212048FCF7CFFF00220C211D48FCF7DF
:1035F000CAFF00220D211B48FCF7C5FF30233B60AA
:103600003B4619461748FCF74FFE00220421154897
:10361000FCF7B9FF002205211248FCF7B4FF4FF474
:1036200080633B603B4619461148FCF73DFE002293
:103630000C210F48FCF7A7FF03233B603B461946CC
:103640000948FCF731FE002200210748FCF79BFFE8
:10365000002201210448FCF796FF00BF0837BD4651
:1036600080BD00BF000C0240001002400014024068
:103670000018024080B582B000AF01213A20FFF768
:10368000ADF84CF233733B6002233B7102237B7134
:103690000023BB710023FB713B4619465248FCF7DF
:1036A00003FE0C2200215048FCF76DFF0C22012183
:1036B0004D48FCF768FF0C2204214B48FCF763FFE0
:1036C0000C2205214848FCF75EFF0C2208214648E1
:1036D000FCF759FF0C2209214348FCF754FF0C2248
:1036E0000A214148FCF74FFF0C220E213E48FCF70F
:1036F0004AFF0C220F213C48FCF745FF4FF6807330
:103700003B603B4619463948FCF7CEFD0C220721A9
:103710003648FCF738FF0C2208213448FCF733FF09
:103720000C2209213148FCF72EFF0C220A212F48D8
:10373000FCF729FF0C220B212C48FCF724FF0C225C
:103740000C212A48FCF71FFF0C220D212748FCF70B
:103750001AFF0C220E212548FCF715FF0C220F2121
:103760002248FCF710FF08233B603B4619461F48E0
:10377000FCF79AFD0C2203211C48FCF704FF802370
:103780003B603B4619461848FCF78EFD0C220A2187
:103790001548FCF7F8FE08233B6001233B7100232A
:1037A0007B710023BB710023FB713B4619460E4819
:1037B000FCF77AFD4FF400533B6001233B7101237A
:1037C0007B710023BB710023FB713B461946064801
:1037D000FCF76AFD4FF400510348FCF77DFE00BF83
:1037E0000837BD4680BD00BF000C024000100240FB
:1037F00080B596B000AF01210120FFF72FF801231B
:103800003B6000237B600923BB600023FB60002337
:103810003B6100237B610023BB610023FB6100232C
:103820003B6200237B621023BB620023FB62002308
:103830003B6300237B630023BB630023FB634FF4E4
:1038400080533B6400237B640023BB640023FB6440
:103850003B463B653B467B6507F11C031846FDF77D
:1038600007F901210020FDF70AFA00BF5837BD46CD
:1038700080BD80B582B000AFFFF7FCFEFFF7B8FF58
:10388000052001F03FFD08215448FCF734FE0A20D2
:1038900001F038FD08215148FCF71EFE01211020DF
:1038A00000F011F9B2211E2000F00DF906212820A8
:1038B00000F009F90121002000F005F947F2EF01BD
:1038C000012000F000F94FF4C061022000F0FBF885
:1038D0000021102000F0F7F8052001F013FD46F656
:1038E0002001112000F0EFF840F69911122000F0AD
:1038F000EAF84FF46051262000F0E5F83321072064
:1039000000F0E1F805210C2000F0DDF80021302066
:1039100000F0D9F840F20331312000F0D4F840F241
:103920000741322000F0CFF840F20131332000F09F
:10393000CAF840F20131342000F0C5F840F20341EA
:10394000352000F0C0F840F20771362000F0BBF8D7
:103950004FF48061372000F0B6F84FF420613A2030
:1039600000F0B1F84FF480513B2000F0ACF80A2190
:103970000D2000F0A8F84FF438510E2000F0A3F805
:103980004FF46F41442000F09EF80021452000F0E4
:103990009AF840F23F11462000F095F800214E20A1
:1039A00000F091F800214F2000F08DF80021222036
:1039B00000F089F800237B6005E0002000F0BDF8EE
:1039C0007B6801337B607B68B3F5963FF5D3044891
:1039D00000F046F900BF0837BD4680BD000C02402C
:1039E0000000002080B582B000AF03460A46FB808D
:1039F0001346BB80B7F90630002B14DBB7F906304D
:103A0000B3F5A07F0FDAB7F90430002B0BDBB7F961
:103A10000430EF2B07DCF888BB88D9B200230122E1
:103A200000F09AFA00E000BF0837BD4680BD80B5BF
:103A300082B000AF03460A46FB8013467B71FB88C9
:103A400019464E2000F03FF87B799BB219464F2073
:103A500000F039F800BF0837BD4680BD90B583B08F
:103A600000AF0446084611461A462346FB8003462B
:103A70007B710B467B8013463B71FA887B88D31A97
:103A80009BB201339BB21946452000F01CF8FB881D
:103A90001946462000F017F87B799AB23B799BB221
:103AA000D31A9BB201339BB21AB27B791B021BB2B1
:103AB00013431BB29BB21946442000F004F800BF28
:103AC0000C37BD4690BD80B483B000AF03460A46B4
:103AD000FB711346BB804FF0C043FA7992B21A8053
:103AE000044ABB88138000BF0C37BD465DF8047BD9
:103AF000704700BF0000106080B483B000AF034681
:103B0000FB714FF0C043FA7992B21A80044B1B88C4
:103B10009BB218460C37BD465DF8047B704700BF6A
:103B20000000106080B400AF4FF0C04322221A8022
:103B300000BFBD465DF8047B704780B483B000AF22
:103B40000346FB80044AFB88138000BF0C37BD4648
:103B50005DF8047B704700BF0000106080B400AFC8
:103B6000034B1B889BB21846BD465DF8047B70472B
:103B70000000106080B582B000AF00210020FFF788
:103B800056FFFFF7CFFF00237B6006E0124B4FF498
:103B900078421A807B6801337B607B68B3F5C84F3D
:103BA000F4D306E00C4B4FF4FC621A807B680133BF
:103BB0007B607B68B3F5484FF4D305E0064B1F22CA
:103BC0001A807B6801337B607B68B3F5963FF5D341
:103BD00000BF0837BD4680BD0000106080B483B0D0
:103BE00000AF03460A46FB801346BB80FB889AB2AF
:103BF000054B1A80BB889AB2044B1A8000BF0C3761
:103C0000BD465DF8047B70471C0D00205800002065
:103C100080B483B000AF78603960084B1B889AB2DB
:103C20007B681A80064B1B889AB23B681A8000BFDB
:103C30000C37BD465DF8047B704700BF1C0D0020AB
:103C40005800002080B400AF00BFBD465DF8047B83
:103C5000704780B400AF00BFBD465DF8047B70477D
:103C600080B483B000AF7860044A7B68136000BF03
:103C70000C37BD465DF8047B704700BF180D00206F
:103C800080B400AF034B1B681846BD465DF8047B4B
:103C9000704700BF180D002080B584B000AF034608
:103CA000FB800023FB81F989FB882022184600F065
:103CB000BBF8074B1B689A88FB891344FB81FB897F
:103CC000B3F5A07FEFD300BF1037BD4680BD00BF66
:103CD000180D002080B584B000AF0346FB800023A0
:103CE000FB6046F620011120FFF7EDFE002140F2B7
:103CF0003F10FFF79CFEFFF715FF0023FB6005E078
:103D0000064AFB881380FB680133FB60FB68B3F550
:103D1000963FF5D300BF1037BD4680BD0000106050
:103D200080B586B000AF03463A60FB800B46BB808F
:103D300000237B6100233B610023FB81FB88FB8127
:103D4000FB89DAB2BB8811461846FFF770FE0023E4
:103D50007B6156E0FFF7E6FE00233B613DE07B69B7
:103D60005B003A6813441B8819462B4B1B689B88E1
:103D70002A4AA2FB0323DB089BB2DB0080229A4085
:103D80003B6942FA03F30B40002B04D1224B1B6822
:103D90009B880C2B11D97B695B003A6813441B8804
:103DA0001A463B6942FA03F303F00103002B0BD1DF
:103DB000194B1B689B880C2B06D9194B1B889BB28F
:103DC0001846FFF7BAFE05E0164B1B889BB2184653
:103DD000FFF7B3FE3B6901333B610F4B1B689B88C8
:103DE0001A463B699A42BAD8FB890133FB81FB89A9
:103DF000DAB2BB8811461846FFF719FE7B6901331A
:103E00007B61054B1B68DB881A467B699A42A1D807
:103E100000BF1837BD4680BD180D0020ABAAAAAA66
:103E2000580000201C0D002080B582B000AF034672
:103E3000FB800B46BB801346FB70FB78203BFB707E
:103E4000094B1B681A68FB7807490968C98801FB98
:103E500003F35B001A44B988FB881846FFF760FF3C
:103E600000BF0837BD4680BD180D002080B584B066
:103E700000AF03463960FB800023FB8113E03B6801
:103E80001A78F989FB881846FFF7CEFF0B4B1B68A1
:103E90009A88FB891344FB81FB89B3F5A07F07D285
:103EA0003B6801333B603B681B78002BE7D100E0A7
:103EB00000BF00BF1037BD4680BD00BF180D0020F9
:103EC00080B400AF00BFBD465DF8047B704790B57D
:103ED00085B000AF0446084611461A462346FB80CB
:103EE00003467B710B467B8013463B717A793B79A5
:103EF0001344DBB2013BD9B23B797A88F888FFF7EB
:103F0000ADFD46F620011120FFF7DDFD7A79FB8833
:103F100011461846FFF78BFDFFF704FE0023FB60F8
:103F200006E03B8C1846FFF708FEFB680133FB6098
:103F30007B883A7902FB03F31A46FB689A42F0D871
:103F4000F0234FF4A072002140F23F10FFF786FDEE
:103F500000BF1437BD4690BD90B585B000AF044694
:103F6000084611461A462346FB8003467B710B46E2
:103F70007B8013463B710023FB813B79002B05D1ED
:103F80004FF4D0411120FFF79EFD07E03B79012B54
:103F900004D146F628011120FFF795FD7A79FB88B8
:103FA00011461846FFF743FDFFF7BCFD0023FB81D8
:103FB00007E00A4B1B881846FFF7BFFDFB8901335A
:103FC000FB81FA897B889A42F3D346F620011120BF
:103FD000FFF779FD00BF1437BD4690BD1E0D0020D0
:103FE00090B589B000AF0446084611461A462346EC
:103FF000FB8003467B710B467B8013463B717A88BE
:10400000FB88D31A9BB2FB833B799AB27B799BB234
:10401000D31A9BB2BB837A79FB8811461846FFF707
:1040200006FDFFF77FFD674B1B881846FFF785FDF0
:10403000B7F91E3083EAE372A2EBE372B7F91C30E2
:10404000002BB8BF5B429A425DDBB7F91E30002BF4
:1040500059D0B7F91C3007EE903AF8EEE76AB7F995
:104060001E3007EE903AB8EEE77AC6EE877AC7EDD3
:10407000067A7B7907EE903AB8EEE77AFB8807EE8E
:10408000903AF8EEE76AD7ED067A66EEA77A77EE11
:10409000677AC7ED057AB7F91E30002B02DA4FF0C8
:1040A000FF3300E00123FB8328E0FA8BFB881344F5
:1040B000FB80FB8807EE903AB8EEE77AD7ED067AF8
:1040C00027EE277AD7ED057A77EE277A17EE900A52
:1040D00005F094F903460C461846214603F0FAFD14
:1040E0000346DAB2FB8811461846FFF7A0FCFFF73B
:1040F00019FD344B1B881846FFF71FFDFA887B8893
:104100009A42D2D159E0B7F91E3007EE903AF8EE54
:10411000E76AB7F91C3007EE903AB8EEE77AC6EED8
:10412000877AC7ED047AFB8807EE903AB8EEE77A13
:104130007B7907EE903AF8EEE76AD7ED047A66EEFF
:10414000A77A77EE677AC7ED037AB7F91C30002BB0
:1041500002DA4FF0FF3300E00123BB8329E0BB8B81
:10416000DAB27B7913447B717B7907EE903AB8EE33
:10417000E77AD7ED047A27EE277AD7ED037A77EE40
:10418000277A17EE900A05F039F903460C461846CF
:10419000214603F09FFD03469BB27A7911461846EB
:1041A000FFF745FCFFF7BEFC064B1B881846FFF7E0
:1041B000C4FC7A793B799A42D1D100BF2437BD46FD
:1041C00090BD00BF1E0D002090B583B000AF044627
:1041D000084611461A462346FB8003467B710B4670
:1041E0007B8013463B717A887979F8880023FFF742
:1041F000B3FE7A793B791344DBB2013BD9B27A88BA
:10420000F8880023FFF7A8FE3B799AB27979F888FD
:104210000123FFF7A1FEFA887B88D31A9BB20133F2
:1042200098B23B799AB279790123FFF795FE00BFE6
:104230000C37BD4690BD80B400AF034B1B881846B9
:10424000BD465DF8047B70475A00002080B400AF83
:10425000034B1B881846BD465DF8047B704700BFC2
:104260001E0D002080B400AF034B1B889BB2184684
:10427000BD465DF8047B70471C0D002080B483B000
:1042800000AF0346FB80044AFB88138000BF0C3755
:10429000BD465DF8047B70475A00002080B483B0AF
:1042A00000AF0346FB80044AFB88138000BF0C3735
:1042B000BD465DF8047B70471E0D002080B483B0BE
:1042C00000AF0346FB80044AFB88138000BF0C3715
:1042D000BD465DF8047B70471C0D002090B585B08D
:1042E00002AF0446084611461A462346FB800346A1
:1042F0007B710B467B8013463B71FB88C3F59F7334
:10430000013398B23C797A8879793B8B00932346C4
:10431000FFF7DDFD00BF0C37BD4690BD90B583B003
:1043200000AF0446084611461A462346FB80034662
:104330007B710B467B8013463B71FB88C3F59F73F3
:10434000013398B23B797A887979FFF705FE00BF8F
:104350000C37BD4690BD90B583B000AF044608460B
:1043600011461A462346FB8003467B710B467B8031
:1043700013463B71FB88C3F59F73013398B27B886A
:10438000C3F59F7301339AB23B797979FFF728FE21
:1043900000BF0C37BD4690BD90B583B000AF04465A
:1043A000084611461A462346FB8003467B710B469E
:1043B0007B8013463B71FB88C3F59F73013398B232
:1043C0007A8879790023FFF7C7FDFB88C3F59F73CF
:1043D000013398B23A797B791344DBB2013BD9B20D
:1043E0007A880023FFF7B8FDFB88C3F59F7301337C
:1043F00098B23B799AB279790123FFF7ADFDFB883A
:104400005B429AB27B88D31A9BB203F5A07398B231
:104410003B799AB279790123FFF79EFD00BF0C37F3
:10442000BD4690BD90B589B000AF04460846114620
:104430001A462346FB8003467B710B463B711346AD
:10444000FB70FFF71DFC0346DB887B75FFF718FC4C
:1044500003469B883B75FFF713FC03461A683B79BC
:10446000203B797D01FB03F35B001344BB613B7D83
:10447000082B02D94FF4004300E080237B82FFF732
:10448000DAFE03463B82FFF7EDFE0346FB81FB8825
:10449000FB837B79BB830023FB756DE00023BB7539
:1044A0003DE0FB8BC3F59F7301339BB2BA8BD2B255
:1044B00011461846FFF7BBFAFFF734FBBB691B88B0
:1044C00019467A8ABB7D42FA03F30B40002B04D0D5
:1044D000FB891846FFF731FB03E03B8A1846FFF7DC
:1044E0002CFBFB78002B03D1BB8B013BBB8313E080
:1044F000FB78012B03D1FB8B0133FB830CE0FB78B2
:10450000022B03D1BB8B0133BB8305E0FB78032B6C
:1045100002D1FB8B013BFB83BB7D0133BB75BA7DB5
:104520003B7D9A42BDD3FB78002B05D1FB8B013339
:10453000FB837B79BB8319E0FB78012B05D1FB88DA
:10454000FB83BB8B0133BB8310E0FB78022B05D1CF
:10455000FB8B013BFB837B79BB8307E0FB78032B61
:1045600004D1FB88FB83BB8B013BBB83BB6902335C
:10457000BB61FB7D0133FB75FA7D7B7D9A428DD358
:1045800000BF2437BD4690BD80B586B000AF3A600D
:104590001A460346FB800B467B7113463B71386815
:1045A00005F0AEFC0346FB81FFF76AFB03469B88E0
:1045B000BB8197F82030002B2DD13B79002B10D1F7
:1045C000FB887B827B799AB2BB89F98901FB03F373
:1045D000D90F0B445B109BB213449BB2013B3B824F
:1045E000A9E03B79012B04D1FB887B827B793B825C
:1045F000A1E03B79022B40F09E80FB887B827B7997
:104600009AB2B989FB8911FB03F39BB213449BB2A5
:10461000013B3B828FE097F82030012B2BD13B7977
:10462000002B10D1BB89FA8902FB03F3DA0F134484
:104630005B105B429AB2FB8813449BB201337B82CE
:104640007B793B8277E03B79012B04D1FB887B822D
:104650007B793B826FE03B79022B6CD1BA89FB8975
:1046600012FB03F39BB2FA88D31A9BB201337B820D
:104670007B793B825FE097F82030022B2DD13B798C
:10468000002B11D1FB887B827B799AB2BB89F98997
:1046900001FB03F3D90F0B445B105B429BB2134445
:1046A0009BB201333B8246E03B79012B04D1FB886E
:1046B0007B827B793B823EE03B79022B3BD1FB88BE
:1046C0007B827B799AB2B989FB8911FB03F39BB298
:1046D000D31A9BB201333B822DE097F82030032B95
:1046E00029D13B79002B0FD1BB89FA8902FB03F357
:1046F000DA0F13445B109AB2FB8813449BB2013B60
:104700007B827B793B8216E03B79012B04D1FB88CD
:104710007B827B793B820EE03B79022B0BD1BA89FD
:10472000FB8912FB03F39AB2FB8813449BB2013B53
:104730007B827B793B8200237B6130E03B8AD9B26C
:104740003A687B6913441A7897F82030788AFFF723
:1047500069FE97F82030002B04D13A8ABB89D31A1E
:104760003B8219E097F82030012B04D17A8ABB896B
:1047700013447B8210E097F82030022B04D13A8A50
:10478000BB8913443B8207E097F82030032B03D109
:104790007A8ABB89D31A7B827B6901337B61FA8970
:1047A0007B699A42CAD800BF1837BD4680BD80B524
:1047B00086B000AF0346FB800B46BB8013467B8070
:1047C0007B885B00C3F103037B6100233B617B8833
:1047D000FB60BFE03B699AB2FB88134498B2BB8888
:1047E000DAB2FB68DBB21344DBB21946FFF71FF9FC
:1047F000FFF798F95C4B1B881846FFF79EF93B6959
:104800009AB2FB88134498B2BB88DAB2FB68DBB279
:10481000D31ADBB21946FFF70AF9FFF783F9524BB7
:104820001B881846FFF789F93B699BB2FA88D31AAF
:1048300098B2BB88DAB2FB68DBB21344DBB219462C
:10484000FFF7F5F8FFF76EF9474B1B881846FFF79F
:1048500074F93B699BB2FA88D31A98B2BB88DAB272
:10486000FB68DBB2D31ADBB21946FFF7E0F8FFF7BB
:1048700059F93D4B1B881846FFF75FF9FB689AB260
:10488000FB88134498B2BB88DAB23B69DBB21344AD
:10489000DBB21946FFF7CBF8FFF744F9324B1B8820
:1048A0001846FFF74AF9FB689AB2FB88134498B29E
:1048B000BB88DAB23B69DBB2D31ADBB21946FFF729
:1048C000B6F8FFF72FF9284B1B881846FFF735F984
:1048D000FB689BB2FA88D31A98B2BB88DAB23B69FC
:1048E000DBB21344DBB21946FFF7A1F8FFF71AF960
:1048F0001D4B1B881846FFF720F9FB689BB2FA880E
:10490000D31A98B2BB88DAB23B69DBB2D31ADBB2F6
:104910001946FFF78CF8FFF705F9134B1B8818466B
:10492000FFF70BF97B69002B06DA3B699A007B697C
:10493000134406337B610AE03A69FB68D31A9A0094
:104940007B6913440A337B61FB68013BFB603B6975
:1049500001333B613A69FB689A427FF63BAF00BF87
:104960001837BD4680BD00BF1E0D002080B584B045
:1049700000AF78600023FB600023BB60002140F2A1
:104980003F10FFF754F8FFF7CDF80023FB6024E059
:104990000023BB601BE0FB689B007A6813441B6824
:1049A0000121BA6801FA02F21340002B06D10F4B25
:1049B0001B889BB21846FFF7C0F805E00C4B1B881C
:1049C0009BB21846FFF7B9F8BB680133BB60BB6800
:1049D0001F2BE0D9FB680133FB60FB68B3F5166F52
:1049E000D6D300BF1037BD4680BD00BF58000020A1
:1049F0001C0D002080B483B000AF786000BF0C377E
:104A0000BD465DF8047B704780B586B000AF0346B5
:104A1000FB800B46BB8013467B807B885B00C3F129
:104A200003037B6100233B617B88FB60404B1B8859
:104A30009BB21846FFF742FC65E0FB68002B23D0D1
:104A40003B699BB2FA88D31A98B2BB88DAB2FB688A
:104A5000DBB21344D9B2FB689BB25B009AB200236D
:104A6000FFF77AFA3B699AB2FB88134498B2BB8885
:104A7000DAB2FB68DBB21344D9B2FB689BB25B00CD
:104A80009AB20023FFF768FA3B69002B23D0FB683A
:104A90009BB2FA88D31A98B2BB88DAB23B69DBB210
:104AA0001344D9B23B699BB25B009AB20023FFF773
:104AB00053FAFB689AB2FB88134498B2BB88DAB207
:104AC0003B69DBB21344D9B23B699BB25B009AB23B
:104AD0000023FFF741FA7B69002B06DA3B699A0055
:104AE0007B69134406337B610AE03A69FB68D31A99
:104AF0009A007B6913440A337B61FB68013BFB60CE
:104B00003B6901333B613A69FB689A4295D9094B8D
:104B10001B889BB21846FFF7D1FB7A88B988FB88BF
:104B20001846FFF744FE00BF1837BD4680BD00BFE2
:104B3000580000201C0D002090B58BB000AF04463B
:104B4000084611461A462346FB800346BB800B46A7
:104B50007B8013463B8000233B820023FB810023A4
:104B6000FB840023BB8400237B8400233B8400233D
:104B7000FB830023BB8300237B8300233B83002331
:104B8000FB820023BB8200237B827A88FB88D31AB6
:104B9000002BB8BF5B423B823A88BB88D31A002BFC
:104BA000B8BF5B42FB81FB88FB84BB88BB847A88EF
:104BB000FB889A4204D301237B8401233B8405E0D4
:104BC0004FF6FF737B844FF6FF733B843A88BB88B4
:104BD0009A4204D30123FB830123BB8305E04FF6F4
:104BE000FF73FB834FF6FF73BB83B7F91020B7F950
:104BF0000E309A4210DB00237B840023BB833B8A68
:104C00007B83B7F91030DA0F13445B103B83FB89C9
:104C1000FB823B8ABB820FE000233B840023FB83A3
:104C2000FB897B83B7F90E30DA0F13445B103B83AB
:104C30003B8AFB82FB89BB8200237B8231E0B7F990
:104C40002420B7F9263011461846FEF7CBFE3A8BE2
:104C5000FB8A13449BB23B83B7F91820B7F91A308B
:104C60009A420EDB3A8B7B8BD31A9BB23B83FA8C36
:104C70007B8C13449BB2FB84BA8CFB8B13449BB29A
:104C8000BB84FA8C3B8C13449BB2FB84BA8CBB8BE9
:104C900013449BB2BB84B7F912309BB201339BB271
:104CA0007B82B7F91220B7F914309A42C7DD00BFF2
:104CB0002C37BD4690BD80B584B000AF78600B4600
:104CC0007B800023FB810023BB817B88012B1CD9C7
:104CD00014E07B681B88FB817B685B88BB817B68F9
:104CE00004337B60F889B9897B68B3F900309AB2E4
:104CF0007B68B3F902309BB2FFF71EFF7B88013B54
:104D00007B807B88002BE4D100E000BF1037BD46DC
:104D100080BD90B585B000AF78600B467B801346B0
:104D20003B800023FB810023BB817B68BB607B88C9
:104D3000012B42D97B681B88FB817B685B88BB8128
:104D400025E07B6804337B60F889B9897B68B3F917
:104D500000309AB2FB8913449CB27B68B3F90230ED
:104D60009AB2BB8913449BB22246FFF7E5FE7B68EB
:104D7000B3F900309AB2FB8913449BB2FB817B6884
:104D8000B3F902309AB2BB8913449BB2BB817B88D2
:104D9000013B7B807B88002BD3D13B88002B0DD03F
:104DA000BB68B3F9003098B2BB68B3F9023099B26E
:104DB000FA89BB89FFF7C0FE00E000BF1437BD468B
:104DC00090BD90B583B000AF78600B467B807B8848
:104DD00019467868FFF76FFF7B68B3F9003098B227
:104DE0007B68B3F9023099B27B8803F18043013BC1
:104DF0009B007A681344B3F900309CB27B8803F1BE
:104E00008043013B9B007A681344B3F902309BB2A4
:104E10002246FFF791FE00BF0C37BD4690BD80B51E
:104E200082B000AF78600B467B807B8800221946F9
:104E30007868FFF76EFF00BF0837BD4680BD80B5BC
:104E400082B000AF78600B467B807B8801221946D8
:104E50007868FFF75EFF00BF0837BD4680BDB0B57C
:104E6000ECB000AF3B1D18600A46BB1C1A80002343
:104E7000A7F8AE310023A7F89E310023A7F8AC3184
:104E80000023A7F8AA310023A7F8A8310023A7F828
:104E90009C310023A7F8A6310023A7F8A4310023F2
:104EA000A7F8A2310023A7F8A0313B1D1B68B3F976
:104EB0000030A7F8A431B7F8A431A7F8A6313B1DFC
:104EC0001B68B3F90230A7F8A031B7F8A031A7F8F2
:104ED000A2310123A7F8AA3140E0B7F8AA319B001C
:104EE0003A1D12681344B3F90230A7F89E31B7F89F
:104EF0009E21B7F8A6319A4203D2B7F89E31A7F89F
:104F0000A631B7F89E21B7F8A4319A4203D9B7F871
:104F10009E31A7F8A431B7F8AA319B003A1D126858
:104F20001344B3F90030A7F8AC31B7F8AC21B7F8A7
:104F3000A2319A4203D2B7F8AC31A7F8A231B7F840
:104F4000AC21B7F8A0319A4203D9B7F8AC31A7F831
:104F5000A031B7F8AA310133A7F8AA31BB1CB7F8C2
:104F6000AA211B889A42B8D3E44B1B889BB21846EF
:104F7000FFF7A4F9B7F8A231A7F8AC31ABE10023F1
:104F8000A7F8AE31BB1C1B88013BA7F8A831002352
:104F9000A7F8AA31BDE0B7F8AA319B003A1D126804
:104FA0001344B3F90030184604F016FA04460D46CF
:104FB000B7F8AC31184604F0FFF902460B4620461C
:104FC000294604F0E1FC0346002B1AD0B7F8A831BB
:104FD0009B003A1D12681344B3F90030184604F0E0
:104FE000FBF904460D46B7F8AC31184604F0E4F975
:104FF00002460B462046294604F0DAFC0346002B05
:1050000035D1B7F8A8319B003A1D12681344B3F9A3
:105010000030184604F0E0F904460D46B7F8AC310C
:10502000184604F0C9F902460B462046294604F00A
:10503000ABFC0346002B63D0B7F8AA319B003A1DA6
:1050400012681344B3F90030184604F0C5F9044659
:105050000D46B7F8AC31184604F0AEF902460B46DF
:105060002046294604F0A4FC0346002B48D0B7F89C
:10507000AE315A1CA7F8AE211C46B7F8AA319B00E6
:105080003A1D12681344B3F902309AB2B7F8AC3142
:10509000B7F8AA118900381D00680144B1F9001061
:1050A0005B1AB7F8A8118900381D00680144B1F9EE
:1050B00002100D46B7F8AA118900381D0068014496
:1050C000B1F90210691A01FB03F1B7F8A8319B008E
:1050D000381D00680344B3F900301D46B7F8AA3103
:1050E0009B00381D00680344B3F90030EB1A91FBB4
:1050F000F3F39BB213449AB207F10C0323F8142084
:10510000B7F8AA31A7F8A831B7F8AA310133A7F840
:10511000AA31BB1CB7F8AA211B889A42FFF43BAF07
:105120000023A7F8AA313BE0B7F8AA2107F10C0346
:1051300033F81220B7F8AA31591C07F10C0333F8E1
:1051400011309A4227D9B7F8AA2107F10C0333F896
:105150001230A7F89C31B7F8AA21B7F8AA31591C28
:1051600007F10C0333F8111007F10C0323F81210A8
:10517000B7F8AA315A1C07F10C03B7F89C1123F8B1
:105180001210B7F8AA31002B0AD0B7F8AA31013BA8
:10519000A7F8AA3104E0B7F8AA310133A7F8AA3179
:1051A000B7F8AA21B7F8AE31013B9A42BCDB002325
:1051B000A7F8AA3181E0B7F8AA2107F10C0333F868
:1051C0001230B7F8A4219A427FD9B7F8AA315A1CF5
:1051D00007F10C0333F81230B7F8A6219A4267D2D0
:1051E000B7F8AA2107F10C0333F81230B7F8A6215B
:1051F0009A4207D9B7F8AA2107F10C03B7F8A6110C
:1052000023F81210B7F8AA315A1C07F10C0333F82F
:105210001230B7F8A4219A4208D2B7F8AA315A1C22
:1052200007F10C03B7F8A41123F81210334B1B88B5
:105230009BB21846FFF742F8B7F8AA315A1C07F19B
:105240000C0333F81230DCB2B7F8AA315A1C07F15C
:105250000C0333F81220B7F8AA1107F10C0333F846
:105260001130D31A9AB2B7F8AC0100232146FEF7E9
:1052700073FE234B1B889BB21846FFF71FF8B7F944
:10528000AC01B7F8AA315A1C07F10C0333F81230FD
:105290001BB21946FEF7A6FBB7F9AC01B7F8AA2175
:1052A00007F10C0333F812301BB21946FEF79AFBD4
:1052B000B7F8AA310233A7F8AA31B7F8AA21B7F88C
:1052C000AE319A42FFF477AF00E000BFB7F8AC31DF
:1052D0000133A7F8AC31B7F8AC21B7F8A0319A4246
:1052E000FFF44DAE064B1B889BB21846FEF7E6FF57
:1052F00000BF07F5D877BD46B0BD00BF58000020FD
:105300001C0D002080B485B000AF78600023FB60E6
:105310007B6842F2107202FB03F3FB6002E0FB6861
:10532000013BFB60FB68002BF9D100BF1437BD4681
:105330005DF8047B704700BF80B582B000AF87ED99
:10534000010A3860D7ED017AF5EEC07AF1EE10FA75
:1053500007DD786802F04CFD02463B681A600023C6
:1053600005E03B684FF000021A604FF0FF3318462B
:105370000837BD4680BD80B588B000AFF860B96021
:105380007A607B689B08FB6182E0FB681A1DFA600B
:105390001B68BB61FB681A1DFA601B687B6197ED97
:1053A000067AD7ED067A27EE277AD7ED056AD7ED8C
:1053B000057A66EEA77A77EE277ABB681A1DBA607F
:1053C0001846B0EE670AFFF7B7FFFB681A1DFA60D0
:1053D0001B68BB61FB681A1DFA601B687B6197ED57
:1053E000067AD7ED067A27EE277AD7ED056AD7ED4C
:1053F000057A66EEA77A77EE277ABB681A1DBA603F
:105400001846B0EE670AFFF797FFFB681A1DFA60AF
:105410001B68BB61FB681A1DFA601B687B6197ED16
:10542000067AD7ED067A27EE277AD7ED056AD7ED0B
:10543000057A66EEA77A77EE277ABB681A1DBA60FE
:105440001846B0EE670AFFF777FFFB681A1DFA608F
:105450001B68BB61FB681A1DFA601B687B6197EDD6
:10546000067AD7ED067A27EE277AD7ED056AD7EDCB
:10547000057A66EEA77A77EE277ABB681A1DBA60BE
:105480001846B0EE670AFFF757FFFB69013BFB6167
:10549000FB69002B7FF479AF7B6803F00303FB61AA
:1054A00022E0FB681A1DFA601B68BB61FB681A1DCD
:1054B000FA601B687B6197ED067AD7ED067A27EED6
:1054C000277AD7ED056AD7ED057A66EEA77A77EEEB
:1054D000277ABB681A1DBA601846B0EE670AFFF754
:1054E0002BFFFB69013BFB61FB69002BD9D100BF9E
:1054F0002037BD4680BD80B584B002AF786039608A
:105500007B689B78012B0DD17B6819887B685A6872
:105510007B6898897B681B6900930346386800F0B4
:10552000A0FC08E07B6819887B685A687B689B89C7
:10553000386800F011F87B68DB78012B08D17B68B4
:1055400019887B68DA897B689B68386801F03AF9CA
:1055500000BF0837BD4680BD80B49DB000AFF86085
:105560007A601A460B467B8113463B817B897B66BA
:105570007B6EBB657B6E9B087B660023BB6600234E
:10558000FB667B6E3B66BA6E7B6E13447B657A6D01
:105590007B6E13443B653A6D7B6E1344FB64BB6EBC
:1055A000DB00FA68134493ED007A3B6DDB00FA6888
:1055B0001344D3ED007A77EE277AC7ED127ABB6EEB
:1055C000DB00FA68134493ED007A3B6DDB00FA6868
:1055D0001344D3ED007A77EE677AC7ED117ABB6E8C
:1055E000DB000433FA68134493ED007A3B6DDB0073
:1055F0000433FA681344D3ED007A77EE277AC7EDC7
:10560000107ABB6EDB000433FA68134493ED007A22
:105610003B6DDB000433FA681344D3ED007A77EE78
:10562000677AC7ED0F7A7B6DDB00FA68134493ED60
:10563000007AFB6CDB00FA681344D3ED007A77EE56
:10564000277AC7ED0E7ABB6EDB00FA68134497ED3C
:10565000127AD7ED0E7A77EE277AC3ED007A97EDBE
:10566000127AD7ED0E7A77EE677AC7ED127A7B6DF4
:10567000DB000433FA68134493ED007AFB6CDB0023
:105680000433FA681344D3ED007A77EE277AC7ED36
:105690000D7ABB6EDB000433FA68134497ED107A81
:1056A000D7ED0D7A77EE277AC3ED007A97ED107A71
:1056B000D7ED0D7A77EE677AC7ED107A7B6DDB0058
:1056C0000433FA68134493ED007AFB6CDB00043377
:1056D000FA681344D3ED007A77EE677AC7ED0E7A55
:1056E0007B6DDB00FA68134493ED007AFB6CDB0002
:1056F000FA681344D3ED007A77EE677AC7ED0D7A36
:10570000FA6EFB6E13443B633B6BDB007A68134419
:105710001B68FB623B6BDB0004337A6813441B6835
:10572000BB627B6DDB00FA68134497ED127AD7ED0C
:105730000B7A27EE277AD7ED106AD7ED0A7A66EE54
:10574000A77A77EE277AC3ED007A7B6DDB0004330E
:10575000FA68134497ED107AD7ED0B7A27EE277A83
:10576000D7ED126AD7ED0A7A66EEA77A77EE677AF6
:10577000C3ED007A97ED117AD7ED0E7A77EE277A9E
:10578000C7ED127A97ED117AD7ED0E7A77EE677A38
:10579000C7ED117A97ED0F7AD7ED0D7A77EE677A2C
:1057A000C7ED107A97ED0F7AD7ED0D7A77EE277A5D
:1057B000C7ED0F7AFB6EDB007A6813441B687B62CF
:1057C000FB6EDB0004337A6813441B683B623B6D5D
:1057D000DB00FA68134497ED127AD7ED097A27EEC9
:1057E000277AD7ED106AD7ED087A66EEA77A77EEBA
:1057F000277AC3ED007A3B6DDB000433FA6813446B
:1058000097ED107AD7ED097A27EE277AD7ED126A4D
:10581000D7ED087A66EEA77A77EE677AC3ED007A5D
:105820003A6BFB6E1344FB61FB69DB007A6813443F
:105830001B68BB61FB69DB0004337A6813441B6897
:105840007B61FB6CDB00FA68134497ED117AD7EDAE
:10585000067A27EE277AD7ED0F6AD7ED057A66EE3E
:10586000A77A77EE277AC3ED007AFB6CDB0004336E
:10587000FA68134497ED0F7AD7ED067A27EE277A68
:10588000D7ED116AD7ED057A66EEA77A77EE677ADB
:10589000C3ED007A3B89FA6E1344FB66BB6E01339D
:1058A000BB663B6E013B3B663B6E002B7FF46BAEF1
:1058B0003B899B003B817B899B089BB2FB65AFE1E9
:1058C0007B6EBB657B6E9B087B660023FB660023BB
:1058D0003B6699E1FA6EFB6E13443B633A6BFB6ED9
:1058E0001344FB61FB6EDB007A6813441B687B6228
:1058F000FB6EDB0004337A6813441B683B623B6B2E
:10590000DB007A6813441B68FB623B6BDB000433EB
:105910007A6813441B68BB62FB69DB007A68134436
:105920001B68BB61FB69DB0004337A6813441B68A6
:105930007B613B89FA6E1344FB663B6EBB665BE1A1
:10594000BA6E7B6E13447B657A6D7B6E13443B6548
:105950003A6D7B6E1344FB64BB6EDB00FA68134444
:1059600093ED007A3B6DDB00FA681344D3ED007AC7
:1059700077EE277AC7ED127ABB6EDB00FA68134424
:1059800093ED007A3B6DDB00FA681344D3ED007AA7
:1059900077EE677AC7ED117ABB6EDB000433FA68E5
:1059A000134493ED007A3B6DDB000433FA68134433
:1059B000D3ED007A77EE277AC7ED107ABB6EDB0065
:1059C0000433FA68134493ED007A3B6DDB00043333
:1059D000FA681344D3ED007A77EE677AC7ED0F7A51
:1059E0007B6DDB00FA68134493ED007AFB6CDB00FF
:1059F000FA681344D3ED007A77EE277AC7ED0E7A72
:105A0000BB6EDB00FA68134497ED127AD7ED0E7A7D
:105A100077EE277AC3ED007A97ED127AD7ED0E7AFA
:105A200077EE677AC7ED127A7B6DDB000433FA6894
:105A3000134493ED007AFB6CDB000433FA681344E3
:105A4000D3ED007A77EE277AC7ED0D7ABB6EDB00D7
:105A50000433FA68134497ED107AD7ED0D7A77EE98
:105A6000277AC3ED007A97ED107AD7ED0D7A77EEAD
:105A7000677AC7ED107A7B6DDB000433FA68134454
:105A800093ED007AFB6CDB000433FA681344D3ED2A
:105A9000007A77EE677AC7ED0E7A7B6DDB00FA68E5
:105AA000134493ED007AFB6CDB00FA681344D3EDEA
:105AB000007A77EE677AC7ED0D7A7B6DDB00FA68C6
:105AC000134497ED127AD7ED0B7A27EE277AD7EDAC
:105AD000106AD7ED0A7A66EEA77A77EE277AC3EDD9
