:020000040800F2
:1000000010490020E9150008A5120008B3120008E5
:10001000B9120008BF120008C51200080000000055
:10002000000000000000000000000000CB120008EB
:10003000D912000800000000E7120008F5120008BD
:100040004D1600084D1600084D1600084D16000804
:100050004D1600084D1600084D1600084D160008F4
:100060004D1600084D1600084D1600084D160008E4
:100070004D1600084D1600084D1600084D160008D4
:100080004D1600084D1600084D1600084D160008C4
:100090004D1600084D1600084D1600084D160008B4
:1000A0004D1600084D1600084D1600084D160008A4
:1000B0004D1600084D1600084D1600084D16000894
:1000C0004D1600084D1600084D1600084D16000884
:1000D000031300084D1600084D1600084D160008C1
:1000E0004D1600084D1600084D1600084D16000864
:1000F0004D1600084D1600084D1600084D16000854
:100100004D1600084D1600084D1600084D16000843
:100110004D1600084D1600084D1600084D16000833
:100120004D1600084D1600084D1600084D16000823
:100130004D1600084D1600084D1600084D16000813
:100140004D1600084D1600084D1600084D16000803
:100150004D1600084D1600084D1600084D160008F3
:100160004D1600084D1600084D1600084D160008E3
:100170004D1600084D1600084D1600084D160008D3
:100180004D1600084D16000880B582B000AF7860AB
:100190007B683C4A934208D10121012001F0F2FD25
:1001A0000021012001F0EEFD68E07B68364A9342B1
:1001B00008D10121022001F0E5FD0021022001F01B
:1001C000E1FD5BE07B68314A934208D101210420C4
:1001D00001F0D8FD0021042001F0D4FD4EE07B6841
:1001E0002B4A934208D10121082001F0CBFD0021C8
:1001F000082001F0C7FD41E07B68264A934208D100
:100200000121102001F0BEFD0021102001F0BAFDF7
:1002100034E07B68204A934208D10121202001F07C
:10022000B1FD0021202001F0ADFD27E07B681B4AD5
:10023000934208D10121402001F0A4FD002140207B
:1002400001F0A0FD1AE07B68154A934208D1012114
:10025000802001F097FD0021802001F093FD0DE04A
:100260007B68104A934209D101214FF4807001F05C
:1002700089FD00214FF4807001F084FD00BF083734
:10028000BD4680BD0000024000040240000802405C
:10029000000C02400010024000140240001802400E
:1002A000001C02400020024080B487B000AF78609C
:1002B000396000237B6100233B610023FB60002346
:1002C0007B6176E001227B6902FA03F33B613B68C4
:1002D0001A683B691340FB60FA683B699A4265D132
:1002E0007B681A687B695B00032101FA03F3DB4337
:1002F0001A407B681A607B681A683B681B7919464C
:100300007B695B0001FA03F31A437B681A603B6860
:100310001B79012B03D03B681B79022B2ED17B6804
:100320009A687B695B00032101FA03F3DB431A40FF
:100330007B689A607B689A683B685B7919467B6941
:100340005B0001FA03F31A437B689A607B685A6882
:100350007B699BB2194601238B40DB431A407B68C3
:100360005A607B685B683A68927911467A6992B202
:1003700001FA02F292B21A437B685A607B68DA682B
:100380007B699BB25B00032101FA03F3DB431A4054
:100390007B68DA607B68DA683B68DB7919467B69E1
:1003A0005B0001FA03F31A437B68DA607B6901336F
:1003B0007B617B690F2B85D900BF1C37BD465DF87B
:1003C000047B704780B483B000AF78607B684FF6E1
:1003D000FF721A607B6800221A717B6800225A71D2
:1003E0007B6800229A717B680022DA7100BF0C37AB
:1003F000BD465DF8047B704780B485B000AF78607F
:100400000B467B804FF48033FB607A88FB68134394
:10041000FB60FA687B68DA617A887B68DA61FA687F
:100420007B68DA617B68DB69FB607B68DB69FB60AA
:1004300000BF1437BD465DF8047B704780B485B0BB
:1004400000AF78600B467B800023FB737B681A69E2
:100450007B881340002B02D00123FB7301E00023B3
:10046000FB73FB7B18461437BD465DF8047B704771
:1004700080B483B000AF78607B681B699BB218467C
:100480000C37BD465DF8047B704780B485B000AF83
:1004900078600B467B800023FB737B685A697B88FE
:1004A0001340002B02D00123FB7301E00023FB73F8
:1004B000FB7B18461437BD465DF8047B704780B45B
:1004C00083B000AF78607B685B699BB218460C37DD
:1004D000BD465DF8047B704780B483B000AF7860A0
:1004E0000B467B807B687A881A8300BF0C37BD4639
:1004F0005DF8047B704780B483B000AF78600B4632
:100500007B807B687A885A8300BF0C37BD465DF8D4
:10051000047B704780B483B000AF78600B467B806B
:1005200013467B707B78002B03D07B687A881A8314
:1005300002E07B687A885A8300BF0C37BD465DF8BD
:10054000047B704780B483B000AF78600B467B803B
:100550007A887B685A6100BF0C37BD465DF8047B22
:10056000704780B483B000AF78600B467B807B68B7
:100570005A697B885A407B685A6100BF0C37BD4678
:100580005DF8047B704780B485B000AF78600B469F
:100590007B8013467B700023FB600023BB607A786E
:1005A0007B8803F007039B0002FA03F3FB607B8860
:1005B000DB089BB218467B88DB089BB21A467B6837
:1005C000083253F822207B8803F007039B000F2199
:1005D00001FA03F3DB4302EA03017B6800F108023E
:1005E00043F822107B88DB089BB21A467B680832EE
:1005F00053F82220FB681343BB607B88DB089BB267
:100600001A467B680832B96843F8221000BF1437D5
:10061000BD465DF8047B704780B588B002AFF860D6
:10062000B9607A60FB685B697B61FB689B79012B31
:100630002BD1FB689B881846FB68DA68FB68196950
:10064000FB689B6801937B6800930B460146B86882
:1006500000F03FF97B6919887B695A687B69988942
:100660007B691B6900930346786802F0BAFCFB685B
:10067000DB79012B30D17B6919887B69DA897B6949
:100680009B68786803F05EF926E07B6919887B69CE
:100690005A687B699B89B86802F01EF8FB68DB79B1
:1006A000012B08D17B6919887B69DA897B699B6892
:1006B000B86803F047F9FB689B881846FB68DA685E
:1006C000FB681969FB689B6801937B6800930B4684
:1006D0000146B86800F004F800BF1837BD4680BD79
:1006E00080B491B000AFF860B9607A603B60BB6CD9
:1006F00008333B63BB681B01043BBA6C1344FB62C9
:10070000FB680833BB62BB68DB00043BFA68134438
:100710007B62BB68DB00FA681344FA6812681A60EF
:10072000BB68DB000433FA681344FA6852681A6045
:10073000FB6CDB007A681344BB63FB6CDB003A683C
:1007400013447B63BB68013BFB6390E0BB6B1A1DEA
:10075000BA631B683B62BB6B1B68FB61BB6A93EDB2
:10076000007AD7ED087A67EE277AC7ED067ABB6A7A
:100770001A1DBA6293ED007AD7ED077A67EE277AF1
:10078000C7ED057ABB6A93ED007A7B6AD3ED007AF8
:1007900037EE277AD7ED077A67EE277A97ED067A54
:1007A00077EE677AC7ED067ABB6A1A1DBA6293EDD7
:1007B000007AD7ED087A67EE277A97ED057A77EE1B
:1007C000277AC7ED057A7B6B1B683B617B6A1A1F32
:1007D0007A6293ED007AD7ED047A67EE277A97ED87
:1007E000057A77EE677AC7ED057A7B6A93ED007A32
:1007F000D7ED077A67EE277A97ED057A77EE677A75
:10080000C7ED057A7B6A1A1F7A6293ED007AD7EDFD
:10081000047A67EE277A97ED067A77EE277AC7EDA6
:10082000067A3B6B1A1D3A63BA691A603B6B1A1D54
:100830003A637A691A60FB6A1A1FFA62D7ED057A81
:10084000F1EE677AC3ED007AFB6A1A1FFA62BA69A1
:100850001A60FB6CDB007A6B13447B63FB6CDB0080
:10086000043BBA6B1344BB63FB6B013BFB63FB6B49
:10087000002B7FF46BAFBB68DB00BA6C1344FA68E3
:1008800092ED007AFA680432D2ED007A77EE677A58
:10089000C3ED007ABB68DB000433BA6C13444FF03D
:1008A00000021A60FB6893ED007AFB680433D3ED15
:1008B000007A77EE277ABB6CC3ED007ABB6C043309
:1008C0004FF000021A6000BF4437BD465DF8047B5C
:1008D000704780B48FB000AFF860B9607A603B6059
:1008E000FB68FB62BB68DB000433FA681344BB623D
:1008F0007B687B633B683B6384E07B6B1A1D7A6398
:100900001B687B627B6B1B683B62FB6A93ED007A22
:10091000D7ED097A67EE277AC7ED077AFB6A1A1DC9
:10092000FA62D3ED007AB1EE677AD7ED087A67EE16
:10093000277AC7ED067AFB6A93ED007ABB6AD3ED9E
:10094000007A37EE277AD7ED087A67EE277A97EDA7
:10095000077A77EE277AC7ED077AFB6A1A1DFA62E3
:1009600093ED007AD7ED097A67EE277A97ED067A4C
:1009700077EE277AC7ED067A3B6B1B687B61BB6A13
:100980001A1FBA6293ED007AD7ED057A67EE277ADF
:1009900097ED067A77EE677AC7ED067ABB6A93ED34
:1009A000007AD7ED057A67EE277A97ED077A77EE2A
:1009B000277AC7ED077ABB6A1A1FBA6293ED007AED
:1009C000D7ED087A67EE277A97ED067A77EE277AE1
:1009D000C7ED067A3B6C1A1D3A64FA691A603B6CE3
:1009E0001A1D3A64BA691A607B6CDB003A6B1344D7
:1009F0003B637B6CDB00043B7A6B13447B63BB681B
:100A0000013BBB60BB68002B7FF477AF00BF3C3776
:100A1000BD465DF8047B704780B489B000AFF860D4
:100A2000B9607A603B6000237B61FB681A1DFA6045
:100A30001B68FB61BB68013BBB61FB681A1DFA6068
:100A40001B683B6197ED077AD7ED047AB4EEE77A3D
:100A5000F1EE10FA05D53B69FB61BA68BB69D31AA0
:100A60007B61BB69013BBB61BB69002BE5D17B6846
:100A7000FA691A603B687A691A6000BF2437BD467C
:100A80005DF8047B7047000080B582B000AF7860ED
:100A90007B68174A93420AD101214FF4805001F03C
:100AA000F1F900214FF4805001F0ECF91CE07B6873
:100AB000104A93420AD101214FF4804001F0C2F95B
:100AC00000214FF4804001F0BDF90DE07B680A4A37
:100AD000934209D101214FF4004001F0B3F9002104
:100AE0004FF4004001F0AEF900BF0837BD4680BDAD
:100AF0000030014000380040003C004080B485B028
:100B000000AF786039600023FB817B681B88FB8124
:100B1000FB8903F44153FB813B681A883B685B887F
:100B200013439AB23B689B8813439AB23B68DB88B5
:100B300013439AB23B681B8913439AB23B685B89A3
:100B400013439AB23B689B8913439AB23B68DB8993
:100B500013439AB2FB891343FB817B68FA891A809D
:100B60007B689B8B9BB223F400639AB27B689A8369
:100B70003B681A8A7B681A8200BF1437BD465DF84D
:100B8000047B704780B48BB000AF7860396000237D
:100B90007B830223FB840023BB8401237B8400230B
:100BA000FB6100237B6100233B610023FB6000238A
:100BB000BB607B689B8B9BB223F47B6323F00F03AA
:100BC0009AB27B689A837B6802221A847B689B8B2B
:100BD0007B833B689B68022B04D10023BB840223E8
:100BE000FB846DE03B689B88002B02D101237B8452
:100BF00001E002237B844B4B9B6803F40003002B32
:100C000005D0484A474B9B6823F400039360454B4B
:100C1000D3F884309B09C3F30803FB60414BD3F83E
:100C200084301B0F03F00703BB603E4B5B6803F08F
:100C30003F033B613C4A3B69B2FBF3F3FA6802FBBA
:100C400003F2BB68B2FBF3F37B613B68DB88B3F56F
:100C5000007F0FD17B691A0A13469B0013445B0087
:100C60001A463B689B68B2FBF3F39BB205339BB219
:100C7000FB6112E07B8C5B011A467B69B3FBF2F2ED
:100C800013469B0013445B001A463B689B68B2FB0B
:100C9000F3F39BB205339BB2FB61FB69234AA2FBD2
:100CA0000323DB08FB61FB699BB203F00103BB84F8
:100CB000BB8CFA69D31A5B08FB84BB8C1B02BB8418
:100CC000FB8C012B02D9FB8CFF2B03D90223FB8465
:100CD0000023BB843B68DA88BB8C13439AB2FB8C3D
:100CE00013439AB27B681A843B681A883B68598818
:100CF0003B6898883B689B8903439BB20B439BB23C
:100D000013439AB27B8B13439BB243F400637B8300
:100D10007B687A8B9A8300BF2C37BD465DF8047BD5
:100D2000704700BF0038024000127A00CDCCCCCC16
:100D300080B483B000AF78607B6800221A807B6843
:100D400000225A807B6800229A807B680022DA8029
:100D50007B6800221A817B6800225A817B6800220E
:100D60009A817B680022DA817B6807221A8200BFA1
:100D70000C37BD465DF8047B704780B483B000AF8C
:100D800078607B6800221A807B6800225A807B682A
:100D900000229A807B680022DA807B6802229A60B7
:100DA0007B6800229A8100BF0C37BD465DF8047B4A
:100DB000704780B483B000AF78600B46FB70FB785F
:100DC000002B08D07B681B889BB243F040039AB28B
:100DD0007B681A8007E07B681B889BB223F0400386
:100DE0009AB27B681A8000BF0C37BD465DF8047B61
:100DF000704780B483B000AF78600B46FB70FB781F
:100E0000002B08D07B689B8B9BB243F480639AB223
:100E10007B689A8307E07B689B8B9BB223F480639B
:100E20009AB27B689A8300BF0C37BD465DF8047B9D
:100E3000704780B483B000AF78600B467B807B68DE
:100E40001B889BB223F400639AB27B681A807B688C
:100E50001B889AB27B8813439AB27B681A8000BFC2
:100E60000C37BD465DF8047B704780B483B000AF9B
:100E700078600B467B807B88B3F5804F08D17B6818
:100E80001B889BB243F480439AB27B681A8007E0C8
:100E90007B681B889BB223F480439AB27B681A80DC
:100EA00000BF0C37BD465DF8047B704780B483B04B
:100EB00000AF78600B467B807B884FF6FF629342E1
:100EC00008D07B681B889BB243F480739AB27B681E
:100ED0001A8007E07B681B889BB223F480739AB268
:100EE0007B681A8000BF0C37BD465DF8047B7047F5
:100EF00080B483B000AF78600B46FB70FB78002BAA
:100F000008D07B689B889BB243F004039AB27B684D
:100F10009A8007E07B689B889BB223F004039AB217
:100F20007B689A8000BF0C37BD465DF8047B704734
:100F300080B483B000AF78600B46FB70FB78002B69
:100F400008D07B689B889BB243F010039AB27B6801
:100F50009A8007E07B689B889BB223F010039AB2CB
:100F60007B689A8000BF0C37BD465DF8047B7047F4
:100F700080B485B000AF786039600023BB81002366
:100F8000FB817B689B8B9BB223F47B6323F00F0375
:100F90009AB27B689A837B6802221A847B689B8B57
:100FA000BB813B681B88B3F5007F03D03B681B887F
:100FB000002B03D14FF48073FB810BE03B681B884F
:100FC000B3F5407F04D03B681B88B3F5807F01D127
:100FD0000023FB813B685A883B6899883B689B8962
:100FE0000B439BB213439AB2FB8913439AB2BB895A
:100FF00013439BB243F40063BB817B68BA899A8335
:1010000000BF1437BD465DF8047B704780B483B0E1
:1010100000AF78607B689B899BB218460C37BD4651
:101020005DF8047B704780B483B000AF78600B46F6
:101030007B807B687A889A8100BF0C37BD465DF85B
:10104000047B704780B483B000AF78600B46FB70C0
:10105000FB78002B08D07B681B889BB243F40053BD
:101060009AB27B681A8007E07B681B889BB223F4E6
:1010700000539AB27B681A8000BF0C37BD465DF8FA
:10108000047B704780B483B000AF78607B681B88B6
:101090009BB243F480539AB27B681A8000BF0C372E
:1010A000BD465DF8047B704780B485B000AF7860C2
:1010B0000B46FB700023FB81FB78012B03D07B6880
:1010C0001B8BFB8102E07B689B8AFB81FB891846B6
:1010D0001437BD465DF8047B704780B483B000AF21
:1010E00078607B681B8A9BB218460C37BD465DF85A
:1010F000047B704780B483B000AF78600B467B8080
:1011000013467B707B78002B08D07B689B889AB253
:101110007B8813439AB27B689A8009E07B689B883E
:101120009AB27B88DB439BB213409AB27B689A8069
:1011300000BF0C37BD465DF8047B704780B485B0B6
:1011400000AF78600B46FB701346BB700023FB8139
:101150000023BB81FB781B09DBB2FB81FB890122E9
:1011600002FA03F3BB81BB78002B08D07B689B8815
:101170009AB2BB8913439AB27B689A8009E07B6874
:101180009B889AB2BB89DB439BB213409AB27B68BF
:101190009A8000BF1437BD465DF8047B704780B469
:1011A00085B000AF78600B467B800023FB737B68C3
:1011B0001B899AB27B8813409BB2002B02D001237B
:1011C000FB7301E00023FB73FB7B18461437BD461D
:1011D0005DF8047B704780B483B000AF78600B4645
:1011E0007B807B88DB439AB27B681A8100BF0C3717
:1011F000BD465DF8047B704780B485B000AF786071
:101200000B46FB700023FB730023BB8100237B8113
:1012100000233B81FB7803F00F03012202FA03F362
:10122000BB81FB781B09DBB27B817B89012202FA3F
:1012300003F37B817B689B889AB27B8913403B8157
:101240007B681B899AB2BB8913409BB2002B05D0E7
:101250003B89002B02D00123FB7301E00023FB73C9
:10126000FB7B18461437BD465DF8047B704780B49D
:1012700085B000AF78600B46FB700023FB81FB78E4
:1012800003F00F03012202FA03F3FB81FB89DB4326
:101290009AB27B681A8100BF1437BD465DF8047BA3
:1012A000704700BF80B400AF00BFBD465DF8047B4F
:1012B000704780B400AFFEE780B400AFFEE780B4B3
:1012C00000AFFEE780B400AFFEE780B400AF00BF20
:1012D000BD465DF8047B704780B400AF00BFBD46DB
:1012E0005DF8047B704780B400AF00BFBD465DF879
:1012F000047B704780B400AF00BFBD465DF8047B3F
:10130000704780B582B000AF60211D48FFF774FFC1
:101310000346002B30D01A48FFF778FE0346FB80C7
:10132000184B1B685A1C17490A60FA88D1B2164A32
:10133000D154144B1B685A1C12490A60FA88120ACD
:1013400092B251B2FA88120252B20A4352B2D1B2E8
:101350000D4AD1540B4B1B68FF2B0DD9094B0022B2
:101360001A603223BB80BA88084B0949064802F04C
:10137000F3FD084B01221A6000BF0837BD4680BD4F
:101380000038004058070020640700207C2C002013
:10139000C83C00205C07002080B483B000AF7860B8
:1013A000064A7B6843F0BF6343F40033D36000BF59
:1013B0000C37BD465DF8047B704700BF00ED00E0D0
:1013C00080B485B000AF78600023FB730023BB734B
:1013D0000F237B737B68DB78002B39D0274BDB68CE
:1013E000DB431B0ADBB203F00703FB73FB7BC3F198
:1013F0000403BB737A7BFB7B42FA03F37B737B684A
:101400005B781A46BB7B02FA03F3FB737B689A781E
:101410007B7B1340DAB2FB7B1343FB73FB7B1B012B
:10142000FB73174A7B681B781344FA7B83F800230D
:10143000134A7B681B785B09DBB218467B681B7814
:1014400003F01F03012101FA03F342F820300FE0FB
:101450000B497B681B785B09DBB218467B681B78FD
:1014600003F01F0301229A4000F1200341F82320DA
:1014700000BF1437BD465DF8047B704700ED00E007
:1014800000E100E080B483B000AF786039600749C4
:101490003B6823F0604323F07F037A6813438B603B
:1014A00000BF0C37BD465DF8047B704700ED00E0DF
:1014B00080B483B000AF03460A46FB711346BB718C
:1014C000BB79002B06D00A49094B1A69FB791343F3
:1014D0000B6106E00649064B1A69FB79DB431340B2
:1014E0000B6100BF0C37BD465DF8047B704700BF41
:1014F00000ED00E080B483B000AF78607B68042B1F
:1015000006D1094A084B1B6843F00403136005E049
:10151000054A054B1B6823F00403136000BF0C371A
:10152000BD465DF8047B704710E000E080B586B0F2
:1015300000AFF860B9607A603B600023FB757B68A0
:101540009BB21A46FB681A607B689BB25B089AB232
:10155000FB689A80FB68224ADA60FB68214A1A61BC
:101560003B68DAB2FB689A713B6ADAB2FB68DA71FF
:10157000FB681B68B3F5007F09D0B3F5006F02D09C
:10158000802B08D00BE0FB6801229A600AE0FB6820
:1015900004229A6006E0FB6810229A6002E0FF23B2
:1015A000FB7500BFFB68BA685A61FB689B79002B2A
:1015B00008D0FB685869FB6899880023012200F075
:1015C000BDFD07E0FB685869FB689988002300228D
:1015D00000F0B4FD97F9173018461837BD4680BDA6
:1015E000145000081470000880B582B000AF144B8E
:1015F0007B60144B3B6007E03B681A1D3A607A68D9
:10160000111D796012681A603B680F4A9342F3D348
:10161000104811494FF000028842B8BF40F8042B2F
:10162000FADBDFF83800016841F47001016000F076
:10163000FDFD02F07FFA00BF0837BD4680BD00BF48
:101640009CB30008000000205807002080B400AFC1
:10165000FEE70000580700200C41002088ED00E064
:1016600080B400AF104A104B1B6843F001031360B5
:101670000D4B00229A600C4A0B4B1B6823F08473BD
:1016800023F480331360084B084A5A60064A064B1D
:101690001B6823F480231360034B0022DA6000BF31
:1016A000BD465DF8047B70470038024010300024CE
:1016B00080B483B000AF0346FB71064B00221A7062
:1016C000044AFB79137000BF0C37BD465DF8047BFC
:1016D000704700BF0238024080B582B000AF0023DF
:1016E0003B600023FB710023BB71312000F0B0FC94
:1016F0000346BB713B6801333B603B68B3F5A06FA9
:1017000002D0BB79002BF0D0312000F0A1FC0346C1
:10171000002B02D00123FB7101E00023FB71FB7958
:1017200018460837BD4680BD80B485B000AF03467B
:10173000FB710023FB600A4B1B68FB60FB6823F016
:10174000F803FB60FB79DB00FA681343FB60044A93
:10175000FB68136000BF1437BD465DF8047B70471B
:101760000038024080B483B000AF0346FB71044AE6
:10177000FB79136000BF0C37BD465DF8047B7047F2
:101780000000474280B483B000AF0346FB710D4BAD
:1017900000221A700B4B00221A70FB79012B02D029
:1017A000042B04D007E0074B01221A7003E0054B1D
:1017B00005221A7000BF00BF0C37BD465DF8047BE0
:1017C000704700BF7038024080B483B000AF03465A
:1017D000FB71044AFB79136000BF0C37BD465DF80E
:1017E000047B7047800E474280B485B000AFF8603C
:1017F000B9607A603B600B497B689A01BB681A4309
:101800003B685B08013B1B041A43FB681A43BB6936
:101810001B0613434B6000BF1437BD465DF8047BC5
:10182000704700BF0038024080B483B000AF034669
:10183000FB71044AFB79136000BF0C37BD465DF8AD
:10184000047B70476000474280B483B000AF78608B
:10185000396007497B689A013B681B071343C1F84D
:10186000843000BF0C37BD465DF8047B704700BF75
:101870000038024080B483B000AF0346FB71044AD5
:10188000FB79136000BF0C37BD465DF8047B7047E1
:101890006800474280B483B000AF0346FB71044A3E
:1018A000FB79136000BF0C37BD465DF8047B7047C1
:1018B0004C00474280B485B000AF786039600023A7
:1018C000FB600B4B9B68FB60FB6823F0EC63FB60E9
:1018D0007A683B681343FA681343FB60044AFB6869
:1018E000936000BF1437BD465DF8047B704700BFAE
:1018F0000038024080B485B000AF786039600023C2
:10190000FB600B4B9B68FB60FB6823F07843FB603C
:101910007A683B681343FA681343FB60044AFB6828
:10192000936000BF1437BD465DF8047B704700BF6D
:101930000038024080B485B000AF78600023FB60BF
:10194000094B9B68FB60FB6823F00303FB60FA68AC
:101950007B681343FB60044AFB68936000BF143745
:10196000BD465DF8047B70470038024080B400AF8C
:10197000054B9B68DBB203F00C03DBB21846BD4697
:101980005DF8047B704700BF0038024080B485B02A
:1019900000AF78600023FB60094B9B68FB60FB682D
:1019A00023F0F003FB60FA687B681343FB60044A92
:1019B000FB68936000BF1437BD465DF8047B704739
:1019C0000038024080B485B000AF78600023FB602F
:1019D000094B9B68FB60FB6823F4E053FB60FA68EB
:1019E0007B681343FB60044AFB68936000BF1437B5
:1019F000BD465DF8047B70470038024080B485B076
:101A000000AF78600023FB600A4B9B68FB60FB68BB
:101A100023F46043FB607B68DB00FA681343FB60E0
:101A2000044AFB68936000BF1437BD465DF8047B31
:101A3000704700BF0038024080B489B000AF7860C2
:101A40000023BB6100237B610023FB6102233B6118
:101A50000023FB600223BB60474B9B6803F00C0331
:101A6000BB61BB69042B07D0082B09D0002B3DD1EB
:101A70007B68424A1A603DE07B68414A1A6039E05F
:101A80003D4B5B689B0D03F00103FB603A4B5B68C9
:101A900003F03F03BB60FB68002B0CD0384ABB68E7
:101AA000B2FBF3F3344A52689209C2F3080202FB14
:101AB00003F3FB610BE0314ABB68B2FBF3F32E4A40
:101AC00052689209C2F3080202FB03F3FB612A4B3E
:101AD0005B681B0C03F0030301335B003B61FA6995
:101AE0003B69B2FBF3F27B681A6003E07B68234A30
:101AF0001A6000BF204B9B6803F0F003BB61BB6919
:101B00001B09BB611F4ABB6913441B78DBB27B61B5
:101B10007B681A687B69DA407B685A60164B9B6861
:101B200003F4E053BB61BB699B0ABB61154ABB6907
:101B300013441B78DBB27B617B685A687B69DA40AF
:101B40007B689A600C4B9B6803F46043BB61BB6984
:101B50005B0BBB610B4ABB6913441B78DBB27B6137
:101B60007B685A687B69DA407B68DA6000BF24379B
:101B7000BD465DF8047B7047003802400024F40045
:101B800000127A000000002080B485B000AF7860B9
:101B90000023FB607B6803F44073B3F5407F11D1F1
:101BA0000F4B9B68FB60FB6823F4F813FB607B68BA
:101BB00023F0704323F44073FA681343FB60084A30
:101BC000FB6893600649064B1A6F7B68C3F30B03EF
:101BD00013430B6700BF1437BD465DF8047B7047A5
:101BE0000038024080B483B000AF0346FB71044A62
:101BF000FB79136000BF0C37BD465DF8047B70476E
:101C00003C0E474280B483B000AF0346FB71044AE8
:101C1000FB79136000BF0C37BD465DF8047B70474D
:101C2000400E474280B483B000AF7860044A7B68BE
:101C3000136000BF0C37BD465DF8047B704700BFE2
:101C40005C01474280B483B000AF78600B46FB7004
:101C5000FB78002B06D00A49094B1A6B7B681343AB
:101C60000B6306E00649064B1A6B7B68DB431340A7
:101C70000B6300BF0C37BD465DF8047B704700BFA7
:101C80000038024080B483B000AF78600B46FB7030
:101C9000FB78002B06D00A49094B5A6B7B6813432B
:101CA0004B6306E00649064B5A6B7B68DB431340E7
:101CB0004B6300BF0C37BD465DF8047B704700BF27
:101CC0000038024080B483B000AF78600B46FB70F0
:101CD000FB78002B06D00A49094B9A6B7B681343AB
:101CE0008B6306E00649064B9A6B7B68DB43134027
:101CF0008B6300BF0C37BD465DF8047B704700BFA7
:101D00000038024080B483B000AF78600B46FB70AF
:101D1000FB78002B06D00A49094B1A6C7B681343E9
:101D20000B6406E00649064B1A6C7B68DB431340E4
:101D30000B6400BF0C37BD465DF8047B704700BFE5
:101D40000038024080B483B000AF78600B46FB706F
:101D5000FB78002B06D00A49094B5A6C7B68134369
:101D60004B6406E00649064B5A6C7B68DB43134024
:101D70004B6400BF0C37BD465DF8047B704700BF65
:101D80000038024080B483B000AF78600B46FB702F
:101D9000FB78002B06D00A49094B1A697B6813436C
:101DA0000B6106E00649064B1A697B68DB4313406A
:101DB0000B6100BF0C37BD465DF8047B704700BF68
:101DC0000038024080B483B000AF78600B46FB70EF
:101DD000FB78002B06D00A49094B5A697B681343EC
:101DE0004B6106E00649064B5A697B68DB431340AA
:101DF0004B6100BF0C37BD465DF8047B704700BFE8
:101E00000038024080B483B000AF78600B46FB70AE
:101E1000FB78002B06D00A49094B9A697B6813436B
:101E20008B6106E00649064B9A697B68DB431340E9
:101E30008B6100BF0C37BD465DF8047B704700BF67
:101E40000038024080B483B000AF78600B46FB706E
:101E5000FB78002B06D00A49094B1A6A7B681343AA
:101E60000B6206E00649064B1A6A7B68DB431340A7
:101E70000B6200BF0C37BD465DF8047B704700BFA6
:101E80000038024080B483B000AF78600B46FB702E
:101E9000FB78002B06D00A49094B5A6A7B6813432A
:101EA0004B6206E00649064B5A6A7B68DB431340E7
:101EB0004B6200BF0C37BD465DF8047B704700BF26
:101EC0000038024080B483B000AF78600B46FB70EE
:101ED000FB78002B06D00A49094B1A6D7B68134327
:101EE0000B6506E00649064B1A6D7B68DB43134021
:101EF0000B6500BF0C37BD465DF8047B704700BF23
:101F00000038024080B483B000AF78600B46FB70AD
:101F1000FB78002B06D00A49094B5A6D7B681343A6
:101F20004B6506E00649064B5A6D7B68DB43134060
:101F30004B6500BF0C37BD465DF8047B704700BFA2
:101F40000038024080B483B000AF78600B46FB706D
:101F5000FB78002B06D00A49094B9A6D7B68134326
:101F60008B6506E00649064B9A6D7B68DB431340A0
:101F70008B6500BF0C37BD465DF8047B704700BF22
:101F80000038024080B483B000AF78600B46FB702D
:101F9000FB78002B06D00A49094B1A6E7B68134365
:101FA0000B6606E00649064B1A6E7B68DB4313405E
:101FB0000B6600BF0C37BD465DF8047B704700BF61
:101FC0000038024080B483B000AF78600B46FB70ED
:101FD000FB78002B06D00A49094B5A6E7B681343E5
:101FE0004B6606E00649064B5A6E7B68DB4313409E
:101FF0004B6600BF0C37BD465DF8047B704700BFE1
:102000000038024080B483B000AF03460A46FB713B
:102010001346BB71BB79002B08D00C490B4B1B78C6
:10202000DAB2FB791343DBB20B7009E00749074BC7
:102030001B78DAB2FB79DB43DBB21340DBB20B7007
:1020400000BF0C37BD465DF8047B70470D38024079
:1020500080B487B000AF0346FB710023FB60002310
:102060007B610023FB74FB795B09DBB2FB60FB68DF
:10207000012B03D1124B1B687B6109E0FB68022B2B
:1020800003D10F4B1B6F7B6102E00D4B5B6F7B61DC
:10209000FB7903F01F03FB607A69FB6822FA03F304
:1020A00003F00103002B02D00123FB7401E00023A5
:1020B000FB74FB7C18461C37BD465DF8047B7047FB
:1020C0000038024080B400AF054A054B5B6F43F017
:1020D0008073536700BFBD465DF8047B704700BF47
:1020E0000038024080B485B000AF0346FB71002386
:1020F000FB73094BDA68FB791340002B02D00123F4
:10210000FB7301E00023FB73FB7B18461437BD46CD
:102110005DF8047B704700BF0038024080B483B094
:1021200000AF0346FB71044AFB79137000BF0C3704
:10213000BD465DF8047B70470E38024080B485B020
:1021400000AF7860084611461A4603467B800B466E
:102150007B7013463B700023FB737B687A881A8080
:102160007B682D4A5A607B687A789A707B683A78E7
:10217000DA707B681B88402B26D0402B02DC102BAA
:1021800030D03DE0B3F5807F10D0B3F5806F37D10C
:102190007B6801229A817B680122DA817B681F4A71
:1021A0009A607B684FF06A521A612CE07B680422C7
:1021B0009A817B680422DA817B68194A9A607B687D
:1021C0004FF06E521A611EE07B6810229A817B6884
:1021D0001022DA817B68134A9A607B684FF0725252
:1021E0001A6110E07B6840229A817B684022DA8184
:1021F0007B680D4A9A607B684FF076521A6102E064
:10220000FF23FB7300BF97F90F3018461437BD4604
:102210005DF8047B704700BF1490000814B00008FC
:102220001AB0000832B0000892B0000880B500AFC4
:10223000164A164BD3F8883043F47003C2F888303E
:10224000134A134B1B6843F001031360104B002229
:102250009A600F4A0E4B1B6823F0847323F480337B
:1022600013600B4B0B4A5A60094A094B1B6823F455
:1022700080231360064B0022DA6000F089F8034BDC
:102280004FF000629A6000BF80BD00BF00ED00E02B
:10229000003802401030002480B487B000AF002323
:1022A0003B6100237B610223FB600023BB600223B0
:1022B0007B60324B9B6803F00C033B613B69042B52
:1022C00007D0082B09D0002B3DD12D4B2D4A1A6089
:1022D0003DE02B4B2C4A1A6039E0284B5B689B0D84
:1022E00003F00103BB60254B5B6803F03F037B6099
:1022F000BB68002B0CD0244A7B68B2FBF3F31F4A67
:1023000052689209C2F3080202FB03F37B610BE0FF
:102310001C4A7B68B2FBF3F3184A52689209C2F375
:10232000080202FB03F37B61144B5B681B0C03F098
:10233000030301335B00FB607A69FB68B2FBF3F3D4
:102340000F4A136003E00E4B0E4A1A6000BF0B4B9E
:102350009B681B0903F00F030C4AD35CDBB23B61A3
:10236000074B1A683B6922FA03F3054A136000BF62
:102370001C37BD465DF8047B704700BF0038024043
:10238000100000200024F40000127A001400002045
:1023900080B483B000AF00237B6000233B60414AE0
:1023A000404B1B6843F4803313603E4B1B6803F4BF
:1023B00000333B607B6801337B603B68002B03D1BB
:1023C0007B68B3F5A06FF0D1364B1B6803F4003384
:1023D000002B02D001233B6001E000233B603B68FF
:1023E000012B42D12F4A2F4B1B6C43F080531364B7
:1023F0002D4A2D4B1B6843F480431360294A294B17
:102400009B689360274A274B9B6843F40043936083
:10241000244A244B9B6843F4A0539360214B234AE6
:102420005A60204A1F4B1B6843F08073136000BF43
:102430001C4B1B6803F00073002BF9D01C4B40F2BF
:1024400005621A60174A174B9B6823F003039360D9
:10245000144A144B9B6843F00203936000BF114B76
:102460009B6803F00C03082BF9D10E4A0D4B9B68B7
:1024700023F4000393600B4B0E4AC3F88420094AEF
:10248000084B1B6843F08063136000BF054B1B685B
:1024900003F00063002BF9D000BF0C37BD465DF898
:1024A000047B704700380240007000400854400729
:1024B000003C02408040003080B582B000AF87ED24
:1024C000010A3860D7ED017AF5EEC07AF1EE10FA24
:1024D00007DD786801F0B2FE02463B681A6000230F
:1024E00005E03B684FF000021A604FF0FF331846DA
:1024F0000837BD4680BD80B588B000AFF860B960D0
:102500007A607B689B08FB6182E0FB681A1DFA60B9
:102510001B68BB61FB681A1DFA601B687B6197ED45
:10252000067AD7ED067A27EE277AD7ED056AD7ED3A
:10253000057A66EEA77A77EE277ABB681A1DBA602D
:102540001846B0EE670AFFF7B7FFFB681A1DFA607E
:102550001B68BB61FB681A1DFA601B687B6197ED05
:10256000067AD7ED067A27EE277AD7ED056AD7EDFA
:10257000057A66EEA77A77EE277ABB681A1DBA60ED
:102580001846B0EE670AFFF797FFFB681A1DFA605E
:102590001B68BB61FB681A1DFA601B687B6197EDC5
:1025A000067AD7ED067A27EE277AD7ED056AD7EDBA
:1025B000057A66EEA77A77EE277ABB681A1DBA60AD
:1025C0001846B0EE670AFFF777FFFB681A1DFA603E
:1025D0001B68BB61FB681A1DFA601B687B6197ED85
:1025E000067AD7ED067A27EE277AD7ED056AD7ED7A
:1025F000057A66EEA77A77EE277ABB681A1DBA606D
:102600001846B0EE670AFFF757FFFB69013BFB6115
:10261000FB69002B7FF479AF7B6803F00303FB6158
:1026200022E0FB681A1DFA601B68BB61FB681A1D7B
:10263000FA601B687B6197ED067AD7ED067A27EE84
:10264000277AD7ED056AD7ED057A66EEA77A77EE99
:10265000277ABB681A1DBA601846B0EE670AFFF702
:102660002BFFFB69013BFB61FB69002BD9D100BF4C
:102670002037BD4680BD80B584B002AF7860396038
:102680007B689B78012B0DD17B6819887B685A6821
:102690007B6898897B681B6900930346386800F063
:1026A000A0FC08E07B6819887B685A687B689B8976
:1026B000386800F011F87B68DB78012B08D17B6863
:1026C00019887B68DA897B689B68386801F03AF979
:1026D00000BF0837BD4680BD80B49DB000AFF86034
:1026E0007A601A460B467B8113463B817B897B6669
:1026F0007B6EBB657B6E9B087B660023BB660023FD
:10270000FB667B6E3B66BA6E7B6E13447B657A6DAF
:102710007B6E13443B653A6D7B6E1344FB64BB6E6A
:10272000DB00FA68134493ED007A3B6DDB00FA6836
:102730001344D3ED007A77EE277AC7ED127ABB6E99
:10274000DB00FA68134493ED007A3B6DDB00FA6816
:102750001344D3ED007A77EE677AC7ED117ABB6E3A
:10276000DB000433FA68134493ED007A3B6DDB0021
:102770000433FA681344D3ED007A77EE277AC7ED75
:10278000107ABB6EDB000433FA68134493ED007AD1
:102790003B6DDB000433FA681344D3ED007A77EE27
:1027A000677AC7ED0F7A7B6DDB00FA68134493ED0F
:1027B000007AFB6CDB00FA681344D3ED007A77EE05
:1027C000277AC7ED0E7ABB6EDB00FA68134497EDEB
:1027D000127AD7ED0E7A77EE277AC3ED007A97ED6D
:1027E000127AD7ED0E7A77EE677AC7ED127A7B6DA3
:1027F000DB000433FA68134493ED007AFB6CDB00D2
:102800000433FA681344D3ED007A77EE277AC7EDE4
:102810000D7ABB6EDB000433FA68134497ED107A2F
:10282000D7ED0D7A77EE277AC3ED007A97ED107A1F
:10283000D7ED0D7A77EE677AC7ED107A7B6DDB0006
:102840000433FA68134493ED007AFB6CDB00043325
:10285000FA681344D3ED007A77EE677AC7ED0E7A03
:102860007B6DDB00FA68134493ED007AFB6CDB00B0
:10287000FA681344D3ED007A77EE677AC7ED0D7AE4
:10288000FA6EFB6E13443B633B6BDB007A681344C8
:102890001B68FB623B6BDB0004337A6813441B68E4
:1028A000BB627B6DDB00FA68134497ED127AD7EDBB
:1028B0000B7A27EE277AD7ED106AD7ED0A7A66EE03
:1028C000A77A77EE277AC3ED007A7B6DDB000433BD
:1028D000FA68134497ED107AD7ED0B7A27EE277A32
:1028E000D7ED126AD7ED0A7A66EEA77A77EE677AA5
:1028F000C3ED007A97ED117AD7ED0E7A77EE277A4D
:10290000C7ED127A97ED117AD7ED0E7A77EE677AE6
:10291000C7ED117A97ED0F7AD7ED0D7A77EE677ADA
:10292000C7ED107A97ED0F7AD7ED0D7A77EE277A0B
:10293000C7ED0F7AFB6EDB007A6813441B687B627D
:10294000FB6EDB0004337A6813441B683B623B6D0B
:10295000DB00FA68134497ED127AD7ED097A27EE77
:10296000277AD7ED106AD7ED087A66EEA77A77EE68
:10297000277AC3ED007A3B6DDB000433FA68134419
:1029800097ED107AD7ED097A27EE277AD7ED126AFC
:10299000D7ED087A66EEA77A77EE677AC3ED007A0C
:1029A0003A6BFB6E1344FB61FB69DB007A681344EE
:1029B0001B68BB61FB69DB0004337A6813441B6846
:1029C0007B61FB6CDB00FA68134497ED117AD7ED5D
:1029D000067A27EE277AD7ED0F6AD7ED057A66EEED
:1029E000A77A77EE277AC3ED007AFB6CDB0004331D
:1029F000FA68134497ED0F7AD7ED067A27EE277A17
:102A0000D7ED116AD7ED057A66EEA77A77EE677A89
:102A1000C3ED007A3B89FA6E1344FB66BB6E01334B
:102A2000BB663B6E013B3B663B6E002B7FF46BAE9F
:102A30003B899B003B817B899B089BB2FB65AFE197
:102A40007B6EBB657B6E9B087B660023FB66002369
:102A50003B6699E1FA6EFB6E13443B633A6BFB6E87
:102A60001344FB61FB6EDB007A6813441B687B62D6
:102A7000FB6EDB0004337A6813441B683B623B6BDC
:102A8000DB007A6813441B68FB623B6BDB0004339A
:102A90007A6813441B68BB62FB69DB007A681344E5
:102AA0001B68BB61FB69DB0004337A6813441B6855
:102AB0007B613B89FA6E1344FB663B6EBB665BE150
:102AC000BA6E7B6E13447B657A6D7B6E13443B65F7
:102AD0003A6D7B6E1344FB64BB6EDB00FA681344F3
:102AE00093ED007A3B6DDB00FA681344D3ED007A76
:102AF00077EE277AC7ED127ABB6EDB00FA681344D3
:102B000093ED007A3B6DDB00FA681344D3ED007A55
:102B100077EE677AC7ED117ABB6EDB000433FA6893
:102B2000134493ED007A3B6DDB000433FA681344E1
:102B3000D3ED007A77EE277AC7ED107ABB6EDB0013
:102B40000433FA68134493ED007A3B6DDB000433E1
:102B5000FA681344D3ED007A77EE677AC7ED0F7AFF
:102B60007B6DDB00FA68134493ED007AFB6CDB00AD
:102B7000FA681344D3ED007A77EE277AC7ED0E7A20
:102B8000BB6EDB00FA68134497ED127AD7ED0E7A2C
:102B900077EE277AC3ED007A97ED127AD7ED0E7AA9
:102BA00077EE677AC7ED127A7B6DDB000433FA6843
:102BB000134493ED007AFB6CDB000433FA68134492
:102BC000D3ED007A77EE277AC7ED0D7ABB6EDB0086
:102BD0000433FA68134497ED107AD7ED0D7A77EE47
:102BE000277AC3ED007A97ED107AD7ED0D7A77EE5C
:102BF000677AC7ED107A7B6DDB000433FA68134403
:102C000093ED007AFB6CDB000433FA681344D3EDD8
:102C1000007A77EE677AC7ED0E7A7B6DDB00FA6893
:102C2000134493ED007AFB6CDB00FA681344D3ED98
:102C3000007A77EE677AC7ED0D7A7B6DDB00FA6874
:102C4000134497ED127AD7ED0B7A27EE277AD7ED5A
:102C5000106AD7ED0A7A66EEA77A77EE277AC3ED87
:102C6000007A7B6DDB000433FA68134497ED107A29
:102C7000D7ED0B7A27EE277AD7ED126AD7ED0A7ACD
:102C800066EEA77A77EE677AC3ED007A97ED117A50
:102C9000D7ED0E7A77EE277AC7ED127A97ED117A93
:102CA000D7ED0E7A77EE677AC7ED117A97ED0F7A46
:102CB000D7ED0D7A77EE677AC7ED107A97ED0F7A38
:102CC000D7ED0D7A77EE277AC7ED0F7A3B6DDB00F3
:102CD000FA68134497ED127AD7ED097A27EE277A2E
:102CE000D7ED106AD7ED087A66EEA77A77EE277AE5
:102CF000C3ED007A3B6DDB000433FA68134497EDB3
:102D0000107AD7ED097A27EE277AD7ED126AD7ED38
:102D1000087A66EEA77A77EE677AC3ED007AFB6CE5
:102D2000DB00FA68134497ED117AD7ED067A27EEA7
:102D3000277AD7ED0F6AD7ED057A66EEA77A77EE98
:102D4000277AC3ED007AFB6CDB000433FA68134486
:102D500097ED0F7AD7ED067A27EE277AD7ED116A2D
:102D6000D7ED057A66EEA77A77EE677AC3ED007A3B
:102D7000BA6EBB6D1344BB667A89BB6E9A423FF64E
:102D80009FAE3B6E01333B667B6E5A1E3B6E9A4292
:102D9000BFF460AE3B899B003B81FB6D9B08FB65EC
:102DA000FB6D042B3FF64CAE7B6EBB657B6E9B08C8
:102DB0007B660023BB6607E1BA6E7B6E13447B65BE
:102DC0007A6D7B6E13443B653A6D7B6E1344FB64F6
:102DD000BB6EDB00FA68134493ED007A3B6DDB00B9
:102DE000FA681344D3ED007A77EE277AC7ED127AAA
:102DF000BB6EDB00FA68134493ED007A3B6DDB0099
:102E0000FA681344D3ED007A77EE677AC7ED117A4A
:102E1000BB6EDB000433FA68134493ED007A3B6D1C
:102E2000DB000433FA681344D3ED007A77EE277A97
:102E3000C7ED107ABB6EDB000433FA68134493EDE0
:102E4000007A3B6DDB000433FA681344D3ED007A5B
:102E500077EE677AC7ED0F7A7B6DDB00FA68134473
:102E600093ED007AFB6CDB00FA681344D3ED007A33
:102E700077EE277AC7ED0E7ABB6EDB00FA68134453
:102E800097ED127AD7ED0E7A77EE277AC3ED007AB6
:102E900097ED127AD7ED0E7A77EE677AC7ED127A50
:102EA0007B6DDB000433FA68134493ED007AFB6C0E
:102EB000DB000433FA681344D3ED007A77EE277A07
:102EC000C7ED0D7ABB6EDB000433FA68134497ED4F
:102ED000107AD7ED0D7A77EE277AC3ED007A97ED69
:102EE000107AD7ED0D7A77EE677AC7ED107A7B6DA1
:102EF000DB000433FA68134493ED007AFB6CDB00CB
:102F00000433FA681344D3ED007A77EE677AC7ED9D
:102F10000E7A7B6DDB00FA68134493ED007AFB6C4C
:102F2000DB00FA681344D3ED007A77EE677AC7EDD9
:102F30000D7A7B6DDB00FA681344BA6C1A607B6D06
:102F4000DB000433FA6813443A6C1A6097ED117A87
:102F5000D7ED0E7A77EE277AC7ED127A97ED117AD0
:102F6000D7ED0E7A77EE677AC7ED117A97ED0F7A83
:102F7000D7ED0D7A77EE677AC7ED107A97ED0F7A75
:102F8000D7ED0D7A77EE277AC7ED0F7A3B6DDB0030
:102F9000FA681344BA6C1A603B6DDB000433FA68BC
:102FA00013443A6C1A60FB6CDB00FA6813447A6CC9
:102FB0001A60FB6CDB000433FA681344FA6B1A6086
:102FC000BA6EBB6D1344BB667A89BB6DD21ABB6EF9
:102FD0009A42BFF4F1AE00BF7437BD465DF8047B82
:102FE000704780B49DB000AFF8607A601A460B4617
:102FF0007B8113463B817B897B667B6EBB657B6EE9
:103000009B087B660023BB660023FB667B6E3B66EA
:10301000BA6E7B6E13447B657A6D7B6E13443B65A1
:103020003A6D7B6E1344FB64BB6EDB00FA6813449D
:1030300093ED007A3B6DDB00FA681344D3ED007A20
:1030400077EE277AC7ED127ABB6EDB00FA6813447D
:1030500093ED007A3B6DDB00FA681344D3ED007A00
:1030600077EE677AC7ED117ABB6EDB000433FA683E
:10307000134493ED007A3B6DDB000433FA6813448C
:10308000D3ED007A77EE277AC7ED107ABB6EDB00BE
:103090000433FA68134493ED007A3B6DDB0004338C
:1030A000FA681344D3ED007A77EE677AC7ED0F7AAA
:1030B0007B6DDB00FA68134493ED007AFB6CDB0058
:1030C000FA681344D3ED007A77EE277AC7ED0E7ACB
:1030D000BB6EDB00FA68134497ED127AD7ED0E7AD7
:1030E00077EE277AC3ED007A97ED127AD7ED0E7A54
:1030F00077EE677AC7ED127A7B6DDB000433FA68EE
:10310000134493ED007AFB6CDB000433FA6813443C
:10311000D3ED007A77EE277AC7ED0D7ABB6EDB0030
:103120000433FA68134497ED107AD7ED0D7A77EEF1
:10313000277AC3ED007A97ED107AD7ED0D7A77EE06
:10314000677AC7ED107A7B6DDB000433FA681344AD
:1031500093ED007AFB6CDB000433FA681344D3ED83
:10316000007A77EE677AC7ED0E7A7B6DDB00FA683E
:10317000134493ED007AFB6CDB00FA681344D3ED43
:10318000007A77EE677AC7ED0D7AFA6EFB6E13441C
:103190003B633B6BDB007A6813441B68FB623B6B51
:1031A000DB0004337A6813441B68BB627B6DDB0071
:1031B000FA68134497ED127AD7ED0B7A27EE277A47
:1031C000D7ED106AD7ED0A7A66EEA77A77EE677ABE
:1031D000C3ED007A7B6DDB000433FA68134497ED8E
:1031E000107AD7ED0B7A27EE277AD7ED126AD7ED52
:1031F0000A7A66EEA77A77EE277AC3ED007A97ED22
:10320000117AD7ED0E7A77EE677AC7ED127A97EDDD
:10321000117AD7ED0E7A77EE277AC7ED117A97ED0E
:103220000F7AD7ED0D7A77EE277AC7ED107A97ED02
:103230000F7AD7ED0D7A77EE677AC7ED0F7AFB6ECE
:10324000DB007A6813441B687B62FB6EDB0004338F
:103250007A6813441B683B623B6DDB00FA681344D9
:1032600097ED127AD7ED097A27EE277AD7ED106A13
:10327000D7ED087A66EEA77A77EE677AC3ED007A23
:103280003B6DDB000433FA68134497ED107AD7EDF9
:10329000097A27EE277AD7ED126AD7ED087A66EE1B
:1032A000A77A77EE277AC3ED007A3A6BFB6E134468
:1032B000FB61FB69DB007A6813441B68BB61FB6937
:1032C000DB0004337A6813441B687B61FB6CDB0012
:1032D000FA68134497ED117AD7ED067A27EE277A2C
:1032E000D7ED0F6AD7ED057A66EEA77A77EE677AA3
:1032F000C3ED007AFB6CDB000433FA68134497EDEE
:103300000F7AD7ED067A27EE277AD7ED116AD7ED37
:10331000057A66EEA77A77EE277AC3ED007A3B89C5
:10332000FA6E1344FB66BB6E0133BB663B6E013B1A
:103330003B663B6E002B7FF46BAE3B899B003B8171
:103340007B899B089BB2FB65AFE17B6EBB657B6EA7
:103350009B087B660023FB6600233B6699E1FA6EBF
:10336000FB6E13443B633A6BFB6E1344FB61FB6ED5
:10337000DB007A6813441B687B62FB6EDB0004335E
:103380007A6813441B683B623B6BDB007A6813442A
:103390001B68FB623B6BDB0004337A6813441B68D9
:1033A000BB62FB69DB007A6813441B68BB61FB6985
:1033B000DB0004337A6813441B687B613B89FA6E37
:1033C0001344FB663B6EBB665BE1BA6E7B6E1344D7
:1033D0007B657A6D7B6E13443B653A6D7B6E13445F
:1033E000FB64BB6EDB00FA68134493ED007A3B6D1F
:1033F000DB00FA681344D3ED007A77EE277AC7ED45
:10340000127ABB6EDB00FA68134493ED007A3B6DD1
:10341000DB00FA681344D3ED007A77EE677AC7EDE4
:10342000117ABB6EDB000433FA68134493ED007A23
:103430003B6DDB000433FA681344D3ED007A77EE7A
:10344000277AC7ED107ABB6EDB000433FA681344A9
:1034500093ED007A3B6DDB000433FA681344D3ED3F
:10346000007A77EE677AC7ED0F7A7B6DDB00FA683A
:10347000134493ED007AFB6CDB00FA681344D3ED40
:10348000007A77EE277AC7ED0E7ABB6EDB00FA681A
:10349000134497ED127AD7ED0E7A77EE277AC3EDC3
:1034A000007A97ED127AD7ED0E7A77EE677AC7ED4C
:1034B000127A7B6DDB000433FA68134493ED007AD3
:1034C000FB6CDB000433FA681344D3ED007A77EE2B
:1034D000277AC7ED0D7ABB6EDB000433FA6813441C
:1034E00097ED107AD7ED0D7A77EE277AC3ED007A53
:1034F00097ED107AD7ED0D7A77EE677AC7ED107AEF
:103500007B6DDB000433FA68134493ED007AFB6CA7
:10351000DB000433FA681344D3ED007A77EE677A60
:10352000C7ED0E7A7B6DDB00FA68134493ED007AE9
:10353000FB6CDB00FA681344D3ED007A77EE677A10
:10354000C7ED0D7A7B6DDB00FA68134497ED127AB4
:10355000D7ED0B7A27EE277AD7ED106AD7ED0A7AE6
:1035600066EEA77A77EE677AC3ED007A7B6DDB00B3
:103570000433FA68134497ED107AD7ED0B7A27EEEF
:10358000277AD7ED126AD7ED0A7A66EEA77A77EE38
:10359000277AC3ED007A97ED117AD7ED0E7A77EEA0
:1035A000677AC7ED127A97ED117AD7ED0E7A77EE3A
:1035B000277AC7ED117A97ED0F7AD7ED0D7A77EE6E
:1035C000277AC7ED107A97ED0F7AD7ED0D7A77EE5F
:1035D000677AC7ED0F7A3B6DDB00FA68134497ED0D
:1035E000127AD7ED097A27EE277AD7ED106AD7ED50
:1035F000087A66EEA77A77EE677AC3ED007A3B6DBC
:10360000DB000433FA68134497ED107AD7ED097A9A
:1036100027EE277AD7ED126AD7ED087A66EEA77AF9
:1036200077EE277AC3ED007AFB6CDB00FA6813446F
:1036300097ED117AD7ED067A27EE277AD7ED0F6A44
:10364000D7ED057A66EEA77A77EE677AC3ED007A52
:10365000FB6CDB000433FA68134497ED0F7AD7ED67
:10366000067A27EE277AD7ED116AD7ED057A66EE4E
:10367000A77A77EE277AC3ED007ABA6EBB6D134452
:10368000BB667A89BB6E9A423FF69FAE3B6E0133B2
:103690003B667B6E5A1E3B6E9A42BFF460AE3B891E
:1036A0009B003B81FB6D9B08FB65FB6D042B3FF68C
:1036B0004CAE7B6EBB657B6E9B087B660023BB6656
:1036C00033E1BA6E7B6E13447B657A6D7B6E134477
:1036D0003B653A6D7B6E1344FB64BB6EDB00FA689E
:1036E000134493ED007A3B6DDB00FA681344D3ED8D
:1036F000007A77EE277AC7ED127ABB6EDB00FA68A4
:10370000134493ED007A3B6DDB00FA681344D3ED6C
:10371000007A77EE677AC7ED117ABB6EDB0004336F
:10372000FA68134493ED007A3B6DDB000433FA68CA
:103730001344D3ED007A77EE277AC7ED107ABB6E8B
:10374000DB000433FA68134493ED007A3B6DDB0031
:103750000433FA681344D3ED007A77EE677AC7ED45
:103760000F7A7B6DDB00FA68134493ED007AFB6CF3
:10377000DB00FA681344D3ED007A77EE277AC7EDC1
:103780000E7ABB6EDB00FA68134497ED127AD7ED20
:103790000E7A37EE277AD7ED1E7A67EE277AC3EDD9
:1037A000007A97ED127AD7ED0E7A77EE677AC7ED49
:1037B000127A7B6DDB000433FA68134493ED007AD0
:1037C000FB6CDB000433FA681344D3ED007A77EE28
:1037D000277AC7ED0D7ABB6EDB000433FA68134419
:1037E00097ED107AD7ED0D7A37EE277AD7ED1E7A5E
:1037F00067EE277AC3ED007A97ED107AD7ED0D7A50
:1038000077EE677AC7ED107A7B6DDB000433FA68D8
:10381000134493ED007AFB6CDB000433FA68134425
:10382000D3ED007A77EE677AC7ED0E7A7B6DDB0019
:10383000FA68134493ED007AFB6CDB00FA681344DA
:10384000D3ED007A77EE677AC7ED0D7A7B6DDB00FA
:10385000FA68134497ED127AD7ED1E7A67EE277A4D
:10386000C3ED007A7B6DDB000433FA68134497EDF7
:10387000107AD7ED1E7A67EE277AC3ED007A97EDBE
:10388000117AD7ED0E7A77EE677AC7ED127A97ED57
:10389000117AD7ED0E7A77EE277AC7ED117A97ED88
:1038A0000F7AD7ED0D7A77EE277AC7ED107A97ED7C
:1038B0000F7AD7ED0D7A77EE677AC7ED0F7A3B6D09
:1038C000DB00FA68134497ED127AD7ED1E7A67EEA3
:1038D000277AC3ED007A3B6DDB000433FA681344AA
:1038E00097ED107AD7ED1E7A67EE277AC3ED007A4E
:1038F000FB6CDB00FA68134497ED117AD7ED1E7A62
:1039000067EE277AC3ED007AFB6CDB000433FA68BC
:10391000134497ED0F7AD7ED1E7A67EE277AC3ED41
:10392000007ABA6EBB6D1344BB667A89BB6DD21A3E
:10393000BB6E9A42BFF4C5AE00BF7437BD465DF89A
:10394000047B704780B489B000AFF8607B600B46A1
:103950007B8113463B810023BB837B895B087B8390
:103960007B895B089BB201333B830023FB83BAE076
:10397000FA8BBB8B9A426FD2FB8BDB00FA68134445
:103980001B687B61FB8BDB00FA681344BA8BD200A7
:10399000F9680A4412681A60BB8BDB00FA681344AA
:1039A0007A691A60FB8BDB000433FA6813441B68E6
:1039B0007B61FB8BDB000433FA681344BA8BD200C3
:1039C0000432F9680A4412681A60BB8BDB000433C6
:1039D000FA6813447A691A60FA8B3B8B1344DB0054
:1039E000FA6813441B687B61FA8B3B8B1344DB0042
:1039F000FA681344B98B3A8B0A44D200F9680A4436
:103A000012681A60BA8B3B8B1344DB00FA681344CC
:103A10007A691A60FA8B3B8B1344DB000433FA6833
:103A200013441B687B61FA8B3B8B1344DB0004332C
:103A3000FA681344B98B3A8B0A44D2000432F9680D
:103A40000A4412681A60BA8B3B8B1344DB000433C0
:103A5000FA6813447A691A60FB8B0133DB00FA6859
:103A600013441B687B61FB8B0133DB00FA68134452
:103A7000B98B7A8B0A44D200F9680A4412681A603A
:103A8000BA8B7B8B1344DB00FA6813447A691A60A3
:103A9000FB8B0133DB000433FA6813441B687B6142
:103AA000FB8B0133DB000433FA681344B98B7A8B48
:103AB0000A44D2000432F9680A4412681A60BA8BC8
:103AC0007B8B1344DB000433FA6813447A691A6071
:103AD0007B681B88BB833B895B007A6813447B60EF
:103AE000FB8B0233FB83FA8B7B8B023B9A427FF684
:103AF0003FAF00BF2437BD465DF8047B7047000030
:103B000080B483B000AF00237B6000233B6005E0FE
:103B10007B6801337B603B6801333B603B68044A50
:103B20009342F5DD00BF0C37BD465DF8047B70475E
:103B30009F86010090B585B002AF00F076F900F0E5
:103B40005DF900F003F900F035F96A4A694B1B6B27
:103B500043F008031363684A674B1B6843F08053C4
:103B60001360664B4FF4FA421A80644B644A9A60C1
:103B7000624B644A5A60614B01229A815F4B012279
:103B8000DA815E4800F064F90123009300234FF4CA
:103B900000725D495D48FDF7C9FC00237B6010E0C1
:103BA0005B4A7B689B0013444FF000021A60594A3D
:103BB0007B689B0013444FF000021A607B6801335E
:103BC0007B607B68FF2BEBD900233B6001215248CF
:103BD000FDF70FF9514B1B68002B56D000237B607B
:103BE00013E03B685A017B6813444D497A6831F809
:103BF000122007EE902AF8EE677A4A4A9B00134497
:103C0000C3ED007A7B6801337B607B681F2BE8D9AA
:103C10003B6801333B603B68102B33D900233B608A
:103C2000414A40493948FCF7F7FC4FF400723F49DC
:103C30003D48FEF760FC3E4B3E4A4FF400713E4863
:103C4000FCF7EAFE00237B6018E07B6801337A68AA
:103C50000132364992000A44D2ED007A9FED377A5C
:103C600027EE877ADFED366AC7EE267A2F4A9B0069
:103C70001344C3ED007A7B6801337B607B68B3F546
:103C8000007FE2D3254B00221A60294B1B680133C9
:103C9000184600F073FC4FF000022A4B00F0E4FCE1
:103CA00003460C46184621464FF000024FF0814370
:103CB00000F004FE03460C46184621464FF0000271
:103CC000214B00F061FF0346002B08D00A4B4FF454
:103CD00080421A83FFF714FF074B00221A83002348
:103CE0007B6002E07B6801337B607B68B3F5803FDB
:103CF000F8D36FE700380240000C02407C2C002013
:103D00000000204100007A46B43C0020641C0020E2
:103D10000C3D002064180020003800405C070020A3
:103D2000C83C0020B42C00207C1C0020640800202B
:103D3000083D0020B02C00206808002000000C4343
:103D40008096984B0000404000002E4080B582B025
:103D500000AF4FF480633B6002233B710023BB71D3
:103D60000023FB7101237B713B4619460F48FCF78A
:103D70009BFA08233B6002233B710023BB710023A5
:103D8000FB7101237B713B4619460948FCF78CFA0D
:103D900005220A210548FCF7F6FB05220321044809
:103DA000FCF7F1FB00BF0837BD4680BD00040240B0
:103DB0000008024080B584B000AF0F48FCF764FEF5
:103DC0004FF47A43BB6020237B800023BB80082311
:103DD000BB814FF440733B800023FB803B46194678
:103DE0000548FCF7CFFE012260210348FDF7A6F944
:103DF00000BF1037BD4680BD0038004080B582B09E
:103E000000AF4FF4C060FDF7C7FA24233B710123D4
:103E1000FB7100237B710123BB713B1D1846FDF72D
:103E2000CFFA00BF0837BD4680BD80B500AF012185
:103E300041F20600FDF706FF01214FF48040FDF737
:103E400061FF0120FDF716FD00BF80BD00000000EE
:103E50002DE9F84F3C4A3D4B05461A601B683C4A29
:103E60000026934211D13B4A476800F110041360C9
:103E7000E6600661A6606660A661666126613846F6
:103E8000002101F08FF808B126E0FEE738464FF038
:103E9000874100F0F3FE00F093FB804638468946E8
:103EA00000F08EFB064628880F4600F077FB24A31F
:103EB000D3E9002300F002FD02460B4630463946A6
:103EC00000F020FA02460B464046494600F0F6FC58
:103ED00000F064FEA08300E0A683AF6800213846AE
:103EE00001F060F810BB2E88300200F057FB8246CC
:103EF00038468B4600F064FB11A3D3E9002300F0A1
:103F0000B3FB80463046894600F048FB02460B462C
:103F10004046494600F0F6F902460B4650465946DF
:103F200000F0CCFC00F03AFEE08301E00023E383E4
:103F30002A884FF47A73B2FBF3F32384BDE8F88F39
:103F40001F85EB51B81E1940C2A507F4003002408E
:103F5000CDB5E8B5600700202DE9F04FA1B01F9264
:103F6000B04A1E911168B04A914200D0FEE703F1B9
:103F70001002546911690B94D468089191680694F1
:103F8000D48B0591998995690D9406244C43099524
:103F9000958B4FEA81094FEAC10B0C954D0005EB5B
:103FA000010809EB010A1894C1EB0B0C00241F69EE
:103FB00056681295CDF85880CDF84C90CDF85CA09D
:103FC000CDF854B0CDF864C007940391019313E188
:103FD00090F80080DFF860A2039D1AF80840DDF831
:103FE000489036190A9610F805C0904E1AF80C4001
:103FF00016F80850169904EB4504E7190E9710F8C7
:1040000009408B4F1AF8045017F8088010F801B0D7
:10401000454416F80C8017F80C9005EB48051AF883
:104020000B8016F804C0C14409EB4C0C139BCDF86F
:104030003CC010F803903C5D1AF809C016F80B80DC
:10404000644404EB48080F9CCDF840804444DDF8FC
:104050005C801C9410F808C017F80B801AF80C400C
:104060001899444416F8098017F8099004EB48049D
:1040700004EB050BCDF874B010F801801AF808B005
:10408000D94416F80CB009EB4B0BCDF844B00E9B9D
:1040900017F80CC05B44DDF864B01B9310F80B906C
:1040A00016F808B01AF809A00F99D4440CEB4B0B82
:1040B000DDF828C04FEA051ADC44CDF868C0C5EB2E
:1040C0000A0A17F808C04FF00A0808FB01AA16F8F8
:1040D0000960119BCDF850B09A44DDF840B00CEB6C
:1040E000460604EB440CE24417F809704FF0060949
:1040F00009FB0BAA06990A9B8A444FF01C0C0CFB87
:1041000003AA0E994FF0150B0BFB01AA1D9BCDF8CE
:1041100028A04FF02E0A0AFB03FA1C99302303FB58
:1041200001AA05991A9B51444FF0240A0AFB031374
:104130001B99CA440AFB013106910F9905EB45050D
:1041400009FB015925012C1B109BA14408FB039975
:10415000149C119D0CFB04990BFB05990E990A9B6D
:104160000D9C49440591A3F5003A64B1089D0B9953
:104170000D9B6C1A54445C4348BFFF342412CDF8A5
:104180002CA00894A2460C9C64B1099DC4F58074CF
:104190006C430C9901FB0A44002CB8BFFF34241275
:1041A0000994A2461F9B03FB0AFABAF1000F04DD33
:1041B0000AF1080A4FEA2A1A06E0BAF1080C48BFC9
:1041C0000AF1070C4FEA2C1A019DDDF81C80EC89DE
:1041D00047F6BC7C04FB08F4164DE245B8BFD44654
:1041E0001E99159BAC45A8BF654608F1010821F84A
:1041F0001450C018CDF81C80148C079DA542FFF602
:10420000E7AE019B05991F61069B9160D360089DF5
:104210000B99099B5660156151619361204621B04D
:10422000BDE8F08F60070020CDB5E8B5240100207F
:10423000240000204480FFFF2402002010B52DED53
:10424000028B8AB008EE100A00F04CF8234B93F969
:104250000040631C09D0B4EE488AF1EE10FA04D68F
:10426000B5EEC08AF1EE10FA03D40AB0BDEC028BB1
:1042700010BD01231A4A009318EE100A0023019280
:10428000089300F09DF90022CDE90401CDE9020177
:104290000023ACB11046194600F010FB022CCDE90A
:1042A00006010FD100F0B0FE21230360089B7BB90B
:1042B000DDE9060100F092FC0AB0BDEC028B10BDF6
:1042C000CDE90623684600F015F80028EED1E9E7AD
:1042D00000F09AFE089B0360EAE700BF2403002079
:1042E00094B3000807EE900AF1EEE77A17EE900A11
:1042F000704700BF0020704781F0004102E000BF1E
:1043000083F0004330B54FEA41044FEA430594EA95
:10431000050F08BF90EA020F1FBF54EA000C55EAD0
:10432000020C7FEA645C7FEA655C00F0E2804FEAA1
:104330005454D4EB5555B8BF6D420CDD2C4480EA83
:10434000020281EA030382EA000083EA010180EAB3
:10435000020281EA0303362D88BF30BD11F0004F01
:104360004FEA01314FF4801C4CEA113102D0404237
:1043700061EB410113F0004F4FEA03334CEA133372
:1043800002D0524263EB430394EA050F00F0A7808A
:10439000A4F10104D5F1200E0DDB02FA0EFC22FA85
:1043A00005F2801841F1000103FA0EF2801843FA79
:1043B00005F359410EE0A5F120050EF1200E012A6A
:1043C00003FA0EFC28BF4CF0020C43FA05F3C018A8
:1043D00051EBE37101F0004507D54FF0000EDCF121
:1043E000000C7EEB00006EEB0101B1F5801F1BD3CA
:1043F000B1F5001F0CD349085FEA30004FEA3C0CCE
:1044000004F101044FEA445212F5800F80F09A80C3
:10441000BCF1004F08BF5FEA500C50F1000041EBC7
:10442000045141EA050130BD5FEA4C0C404141EBCB
:10443000010111F4801FA4F10104E9D191F0000FF2
:1044400004BF01460020B1FA81F308BF2033A3F175
:104450000B03B3F120020CDA0C3208DD02F1140C6C
:10446000C2F10C0201FA0CF021FA02F10CE002F1A7
:104470001402D8BFC2F1200C01FA02F120FA0CFCA0
:10448000DCBF41EA0C019040E41AA2BF01EB0451E9
:10449000294330BD6FEA04041F3C1CDA0C340EDCE7
:1044A00004F11404C4F1200220FA04F001FA02F32A
:1044B00040EA030021FA04F345EA030130BDC4F1E8
:1044C0000C04C4F1200220FA02F001FA04F340EADD
:1044D0000300294630BD21FA04F0294630BD94F08E
:1044E000000F83F4801306BF81F480110134013D75
:1044F0004EE77FEA645C18BF7FEA655C29D094EAE6
:10450000050F08BF90EA020F05D054EA000C04BF63
:104510001946104630BD91EA030F1EBF002100204E
:1045200030BD5FEA545C05D14000494128BF41F0ED
:10453000004130BD14F580043CBF01F5801130BD51
:1045400001F0004545F0FE4141F470014FF00000DC
:1045500030BD7FEA645C1ABF194610467FEA655C8D
:104560001CBF0B46024650EA013406BF52EA03352F
:1045700091EA030F41F4002130BD00BF90F0000F1D
:1045800004BF0021704730B54FF4806404F1320459
:104590004FF000054FF0000150E700BF90F0000F12
:1045A00004BF0021704730B54FF4806404F1320439
:1045B00010F0004548BF40424FF000013EE700BF09
:1045C00042004FEAE2014FEA31014FEA02701FBF99
:1045D00012F07F4393F07F4F81F06051704792F06B
:1045E000000F14BF93F07F4F704730B54FF46074E5
:1045F00001F0004521F0004120E700BF50EA010230
:1046000008BF704730B54FF000050AE050EA0102DC
:1046100008BF704730B511F0004502D5404261EB4C
:1046200041014FF4806404F132045FEA915C3FF48D
:10463000DCAE4FF003025FEADC0C18BF03325FEA26
:10464000DC0C18BF033202EBDC02C2F1200300FADB
:1046500003FC20FA02F001FA03FE40EA0E0021FA00
:1046600002F11444C1E600BF70B54FF0FF0C4CF4EA
:10467000E06C1CEA11541DBF1CEA135594EA0C0FA0
:1046800095EA0C0F00F0DEF82C4481EA030621EADB
:104690004C5123EA4C5350EA013518BF52EA033516
:1046A00041F4801143F4801338D0A0FB02CE4FF0C8
:1046B0000005E1FB02E506F00042E0FB03E54FF0F8
:1046C0000006E1FB03569CF0000F18BF4EF0010EF0
:1046D000A4F1FF04B6F5007F64F5407404D25FEAEC
:1046E0004E0E6D4146EB060642EAC62141EA55519F
:1046F0004FEAC52040EA5E504FEACE2EB4F1FD0CE1
:1047000088BFBCF5E06F1ED8BEF1004F08BF5FEA5E
:10471000500E50F1000041EB045170BD06F0004610
:1047200046EA010140EA020081EA0301B4EB5C04BD
:10473000C2BFD4EB0C0541EA045170BD41F48011B5
:104740004FF0000E013C00F3AB8014F1360FDEBFDA
:10475000002001F0004170BDC4F10004203C35DAB6
:104760000C341BDC04F11404C4F1200500FA05F339
:1047700020FA04F001FA05F240EA020001F00042DA
:1047800021F0004110EBD37021FA04F642EB060150
:104790005EEA430E08BF20EAD37070BDC4F10C047A
:1047A000C4F1200500FA04F320FA05F001FA04F23E
:1047B00040EA020001F0004110EBD37041F100012A
:1047C0005EEA430E08BF20EAD37070BDC4F1200535
:1047D00000FA05F24EEA020E20FA04F301FA05F29D
:1047E00043EA020321FA04F001F0004121FA04F245
:1047F00020EA020000EBD3705EEA430E08BF20EA15
:10480000D37070BD94F0000F0FD101F0004640004E
:1048100041EB010111F4801F08BF013CF7D041EAD0
:10482000060195F0000F18BF704703F000465200D4
:1048300043EB030313F4801F08BF013DF7D043EAA5
:104840000603704794EA0C0F0CEA135518BF95EA5B
:104850000C0F0CD050EA410618BF52EA4306D1D1E2
:1048600081EA030101F000414FF0000070BD50EA01
:10487000410606BF1046194652EA430619D094EA8B
:104880000C0F02D150EA013613D195EA0C0F05D175
:1048900052EA03361CBF104619460AD181EA0301C9
:1048A00001F0004141F0FE4141F470014FF0000081
:1048B00070BD41F0FE4141F4780170BD70B54FF01C
:1048C000FF0C4CF4E06C1CEA11541DBF1CEA13559C
:1048D00094EA0C0F95EA0C0F00F0A7F8A4EB05047E
:1048E00081EA030E52EA03354FEA013100F0888075
:1048F0004FEA03334FF0805545EA131343EA12633E
:104900004FEA022245EA111545EA10654FEA0026F2
:104910000EF000419D4208BF964244F1FD0404F5AB
:10492000407402D25B084FEA3202B61A65EB030507
:104930005B084FEA32024FF480104FF4002CB6EBC4
:10494000020E75EB030E22BFB61A754640EA0C0044
:104950005B084FEA3202B6EB020E75EB030E22BF84
:10496000B61A754640EA5C005B084FEA3202B6EBC5
:10497000020E75EB030E22BFB61A754640EA9C0084
:104980005B084FEA3202B6EB020E75EB030E22BF54
:10499000B61A754640EADC0055EA060E18D04FEA12
:1049A000051545EA16754FEA06164FEAC30343EAB2
:1049B00052734FEAC2025FEA1C1CC0D111F4801F7F
:1049C0000BD141EA00014FF000004FF0004CB6E778
:1049D00011F4801F04BF01430020B4F1FD0C88BF17
:1049E000BCF5E06F3FF6AFAEB5EB030C04BFB6EB22
:1049F000020C5FEA500C50F1000041EB045170BD15
:104A00000EF0004E4EEA113114EB5C04C2BFD4EB41
:104A10000C0541EA045170BD41F480114FF0000EC5
:104A2000013C90E645EA060E8DE60CEA135594EA41
:104A30000C0F08BF95EA0C0F3FF43BAF94EA0C0F44
:104A40000AD150EA01347FF434AF95EA0C0F7FF4B9
:104A500025AF104619462CE795EA0C0F06D152EA0D
:104A600003353FF4FDAE1046194622E750EA4106F1
:104A700018BF52EA43067FF4C5AE50EA41047FF402
:104A80000DAF52EA43057FF4EBAE12E74FF0FF3C67
:104A900006E000BF4FF0010C02E000BF4FF0010C38
:104AA0004DF804CD4FEA410C7FEA6C5C4FEA430CB1
:104AB00018BF7FEA6C5C1BD001B050EA410C0CBF00
:104AC00052EA430C91EA030F02BF90EA020F002062
:104AD000704710F1000F91EA030F58BF994208BFC9
:104AE00090422CBFD8176FEAE37040F00100704786
:104AF0004FEA410C7FEA6C5C02D150EA013C07D1DD
:104B00004FEA430C7FEA6C5CD6D152EA033CD3D027
:104B10005DF8040B704700BF8446104662468C4621
:104B20001946634600E000BF01B5FFF7B7FF002854
:104B300048BF10F1000F01BD4DF808EDFFF7F4FF7D
:104B40000CBF012000205DF808FB00BF4DF808ED08
:104B5000FFF7EAFF34BF012000205DF808FB00BF2B
:104B60004DF808EDFFF7E0FF94BF012000205DF84D
:104B700008FB00BF4DF808EDFFF7CEFF94BF012002
:104B800000205DF808FB00BF4DF808EDFFF7C4FFFB
:104B900034BF012000205DF808FB00BF4A0011D29D
:104BA00012F5001211D20DD56FF47873B3EB625287
:104BB0000ED44FEAC12343F0004343EA505323FA93
:104BC00002F070474FF00000704750EA013002D108
:104BD0004FF0FF3070474FF0000070474FEA41023E
:104BE000B2F1E04324BFB3F5001CDCF1FE5C0DD94B
:104BF00001F0004C4FEAC0024CEA5070B2F1004F95
:104C000040EB830008BF20F00100704711F0804F97
:104C100021D113F13872BCBF01F00040704741F45C
:104C200080114FEA5252C2F11802C2F1200C10FA60
:104C30000CF320FA02F018BF40F001004FEAC12344
:104C40004FEAD32303FA0CFC40EA0C0023FA02F3E8
:104C50004FEA4303CCE77FEA625307D150EA0133BE
:104C60001EBF4FF0FE4040F44000704701F000408E
:104C700040F0FE4040F40000704700BF4FF0FF0CD2
:104C80001CEAD0521EBF1CEAD15392EA0C0F93EAE1
:104C90000C0F6FD01A4480EA010C400218BF5FEA83
:104CA00041211ED04FF0006343EA501043EA5111F6
:104CB000A0FB01310CF00040B1F5000F3EBF4900F0
:104CC00041EAD3715B0040EA010062F17F02FD2AF4
:104CD0001DD8B3F1004F40EBC25008BF20F00100D7
:104CE000704790F0000F0CF0004C08BF49024CEAEE
:104CF000502040EA51207F3AC2BFD2F1FF0340EA80
:104D0000C250704740F400004FF00003013A5DDCF0
:104D100012F1190FDCBF00F000407047C2F1000231
:104D2000410021FA02F1C2F1200200FA02FC5FEA1E
:104D3000310040F1000053EA4C0308BF20EADC7068
:104D4000704792F0000F00F0004C02BF400010F4DA
:104D5000000F013AF9D040EA0C0093F0000F01F087
:104D6000004C02BF490011F4000F013BF9D041EAA9
:104D70000C018FE70CEAD15392EA0C0F18BF93EAAB
:104D80000C0F0AD030F0004C18BF31F0004CD8D1D5
:104D900080EA010000F00040704790F0000F17BF5C
:104DA00090F0004F084691F0000F91F0004F14D0A2
:104DB00092EA0C0F01D142020FD193EA0C0F03D1FA
:104DC0004B0218BF084608D180EA010000F00040FD
:104DD00040F0FE4040F40000704740F0FE4040F4D8
:104DE000400070474FF0FF0C1CEAD0521EBF1CEA77
:104DF000D15392EA0C0F93EA0C0F69D0A2EB030295
:104E000080EA010C49024FEA402037D04FF080532E
:104E100043EA111143EA10130CF000408B4238BFF3
:104E20005B0042F17D024FF4000C8B4224BF5B1A01
:104E300040EA0C00B3EB510F24BFA3EB510340EA4F
:104E40005C00B3EB910F24BFA3EB910340EA9C00FD
:104E5000B3EBD10F24BFA3EBD10340EADC001B016D
:104E600018BF5FEA1C1CE0D1FD2A3FF650AF8B4211
:104E700040EBC25008BF20F0010070470CF0004C1E
:104E80004CEA50207F32C2BFD2F1FF0340EAC25049
:104E9000704740F400004FF00003013A37E792F00A
:104EA000000F00F0004C02BF400010F4000F013A68
:104EB000F9D040EA0C0093F0000F01F0004C02BF63
:104EC000490011F4000F013BF9D041EA0C0195E7CC
:104ED0000CEAD15392EA0C0F08D142027FF47DAF65
:104EE00093EA0C0F7FF470AF084676E793EA0C0F55
:104EF00004D14B023FF44CAF08466EE730F0004C53
:104F000018BF31F0004CCAD130F000427FF45CAFE2
:104F100031F000437FF43CAF5FE700BF4FF0FF3C50
:104F200006E000BF4FF0010C02E000BF4FF0010CA3
:104F30004DF804CD4FEA40024FEA41037FEA226C6C
:104F400018BF7FEA236C11D001B052EA530C18BF8E
:104F500090EA010F58BFB2EB030088BFC81738BFF3
:104F60006FEAE17018BF40F0010070477FEA226CE1
:104F700002D15FEA402C05D17FEA236CE4D15FEADD
:104F8000412CE1D05DF8040B704700BF8446084611
:104F90006146FFE70FB5FFF7C9FF002848BF10F1D2
:104FA000000F0FBD4DF808EDFFF7F4FF0CBF012017
:104FB00000205DF808FB00BF4DF808EDFFF7EAFFA1
:104FC00034BF012000205DF808FB00BF4DF808ED5C
:104FD000FFF7E0FF94BF012000205DF808FB00BF51
:104FE0004DF808EDFFF7D2FF94BF012000205DF8D7
:104FF00008FB00BF4DF808EDFFF7C8FF34BF0120E4
:1050000000205DF808FB00BF014B1868704700BF27
:10501000280300200000003F000000BFF036FF3EE4
:10502000B1FFFFBEE16DFE3EC4FEFFBED3A4FD3E58
:1050300039FDFFBEC6DBFC3E11FBFFBEBB12FC3ED2
:105040004AF8FFBEB249FB3EE6F4FFBEAD80FA3E31
:10505000E3F0FFBEABB7F93E43ECFFBEACEEF83E6B
:1050600005E7FFBEB225F83E29E1FFBEBD5CF73E75
:10507000AFDAFFBECD93F63E97D3FFBEE3CAF53E4F
:10508000E2CBFFBE0002F53E8FC3FFBE2339F43EE4
:105090009EBAFFBE4D70F33E0FB1FFBE7FA7F23E3A
:1050A000E3A6FFBEB9DEF13E189CFFBEFD15F13E42
:1050B000B190FFBE494DF03EAB84FFBE9F84EF3EF2
:1050C0000878FFBEFFBBEE3EC76AFFBE6AF3ED3E47
:1050D000E95CFFBEDF2AED3E6D4EFFBE6162EC3E35
:1050E000543FFFBEEF99EB3E9D2FFFBE89D1EA3EB4
:1050F000491FFFBE3009EA3E580EFFBEE540E93EBB
:10510000C9FCFEBEA878E83E9DEAFEBE79B0E73E47
:10511000D4D7FEBE59E8E63E6DC4FEBE4920E63E49
:1051200069B0FEBE4958E53EC99BFEBE5990E43EBB
:105130008B86FEBE7AC8E33EB070FEBEAD00E33E95
:10514000385AFEBEF138E23E2343FEBE4871E13ECE
:10515000722BFEBEB2A9E03E2413FEBE2FE2DF3E5C
:1051600038FAFDBEBF1ADF3EB1E0FDBE6553DE3E3C
:105170008CC6FDBE1E8CDD3ECCABFDBEEDC4DC3E60
:105180006E90FDBED2FDDB3E7474FDBECD36DB3EBF
:10519000DE57FDBEDF6FDA3EAC3AFDBE08A9D93E50
:1051A000DD1CFDBE49E2D83E73FEFCBEA11BD83E0D
:1051B0006CDFFCBE1355D73EC9BFFCBE9D8ED63EEC
:1051C0008A9FFCBE41C8D53EB07EFCBEFF01D53EE5
:1051D0003A5DFCBED73BD43E283BFCBECB75D33EEC
:1051E0007A18FCBEDAAFD23E31F5FBBE05EAD13EFD
:1051F0004DD1FBBE4C24D13ECDACFBBEB15ED03E0A
:10520000B287FBBE3299CF3EFC61FBBED2D3CE3E0D
:10521000AB3BFBBE900ECE3EBE14FBBE6C49CD3EFA
:1052200037EDFABE6884CC3E16C5FABE84BFCB3ECD
:10523000599CFABEC0FACA3E0273FABE1C36CA3E78
:105240001049FABE9A71C93E841EFABE3AADC83EF4
:105250005EF3F9BEFBE8C73E9DC7F9BEDF24C73E3B
:10526000439BF9BEE760C63E4E6EF9BE119DC53E3A
:10527000C040F9BE60D9C43E9812F9BED415C43EF0
:10528000D6E3F8BE6C52C33E7BB4F8BE298FC23E53
:105290008684F8BE0DCCC13EF853F8BE1709C13E56
:1052A000D122F8BE4846C03E10F1F7BEA083BF3EF3
:1052B000B7BEF7BE20C1BE3EC58BF7BEC8FEBD3E21
:1052C0003A58F7BE993CBD3E1724F7BE937ABC3ED0
:1052D0005BEFF6BEB6B8BB3E07BAF6BE04F7BA3E01
:1052E0001B84F6BE7D35BA3E974DF6BE2074B93E9E
:1052F0007A16F6BEEFB2B83EC6DEF5BEEAF1B73EAC
:105300007BA6F5BE1131B73E976DF5BE6670B63E11
:105310001D34F5BEE7AFB53E0BFAF4BE97EFB43ED1
:1053200062BFF4BE752FB43E2284F4BE816FB33EDB
:105330004B48F4BEBDAFB23EDD0BF4BE28F0B13E2B
:10534000D9CEF3BEC430B13E3F91F3BE9071B03EB2
:105350000E53F3BE8EB2AF3E4714F3BEBDF3AE3E66
:10536000EBD4F2BE1D35AE3EF894F2BEB176AD3E42
:105370007054F2BE77B8AC3E5213F2BE71FAAB3E37
:105380009FD1F1BE9E3CAB3E578FF1BE007FAA3E3F
:105390007A4CF1BE96C1A93E0809F1BE6204A93E4D
:1053A00001C5F0BE6347A83E6680F0BE9B8AA73E5B
:1053B000373BF0BE09CEA63E73F5EFBEAE11A63E5A
:1053C0001BAFEFBE8A55A53E3068EFBE9E99A43E46
:1053D000B020EFBEEBDDA33E9ED8EEBE7122A33E11
:1053E000F88FEEBE3067A23EBE46EEBE28ACA13EB0
:1053F000F2FCEDBE5BF1A03E93B2EDBEC936A03E1D
:10540000A167EDBE717C9F3E1D1CEDBE55C29E3E48
:1054100007D0ECBE75089E3E5E83ECBED24E9D3E2C
:105420002436ECBE6B959C3E58E8EBBE42DC9B3EBE
:10543000FB99EBBE56239B3E0C4BEBBEA96A9A3EF2
:105440008CFBEABE3AB2993E7BABEABE0BFA983EC1
:10545000D95AEABE1B42983EA709EABE6B8A973E1C
:10546000E4B7E9BEFBD2963E9165E9BECD1B963E00
:10547000AE12E9BEDF64953E3CBFE8BE34AE943E5A
:10548000396BE8BECAF7933EA816E8BEA441933E26
:1054900087C1E7BEC08B923ED86BE7BE20D6913E57
:1054A0009915E7BEC320913ECCBEE6BEAC6B903EE4
:1054B0007167E6BED9B68F3E880FE6BE4B028F3EBF
:1054C00010B7E5BE034E8E3E0B5EE5BE019A8D3EE3
:1054D0007904E5BE46E68C3E59AAE4BED1328C3E44
:1054E000AC4FE4BEA47F8B3E73F4E3BEBFCC8A3ED8
:1054F000AC98E3BE231A8A3E5A3CE3BECF67893E8E
:105500007BDFE2BEC4B5883E1082E2BE0204883E64
:105510001A24E2BE8B52873E98C5E1BE5EA1863E4C
:105520008A66E1BE7CF0853EF206E1BEE63F853E3E
:10553000CFA6E0BE9B8F843E2146E0BE9CDF833E2B
:10554000E9E4DFBEEA2F833E2783DFBE8480823E0C
:10555000DB20DFBE6DD1813E05BEDEBEA322813ED3
:10556000A65ADEBE2774803EBEF6DDBEF38B7F3EBC
:105570004D92DDBE38307E3E532DDDBE1BD57C3EC8
:10558000D1C7DCBE9E7A7B3EC761DCBEC1207A3EBD
:1055900034FBDBBE86C7783E1A94DBBEEE6E773EE8
:1055A000792CDBBEF916763E50C4DABEA8BF743E35
:1055B000A05BDABEFB68733E6AF2D9BEF412723E9B
:1055C000AD88D9BE94BD703E6A1ED9BEDB686F3E01
:1055D000A1B3D8BECB146E3E5348D8BE63C16C3E57
:1055E0007FDCD7BEA56E6B3E2670D7BE921C6A3E8E
:1055F0004803D7BE2ACB683EE595D6BE6E7A673E95
:10560000FE27D6BE5F2A663E93B9D5BEFFDA643E5A
:10561000A44AD5BE4C8C633E31DBD4BE4A3E623ECA
:105620003B6BD4BEF7F0603EC3FAD3BE56A45F3ED8
:10563000C789D3BE66585E3E4918D3BE2A0D5D3E6B
:1056400049A6D2BEA0C25B3EC633D2BECB785A3E7C
:10565000C2C0D1BEAB2F593E3D4DD1BE41E7573EF2
:1056600037D9D0BE8E9F563EAF64D0BE9158553EBE
:10567000A8EFCFBE4E12543E1F7ACFBEC3CC523ECF
:105680001704CFBEF287513E908DCEBEDB43503E15
:105690008916CEBE80004F3E029FCDBEE1BD4D3E7D
:1056A000FD26CDBEFF7B4C3E79AECCBEDB3A4B3EF9
:1056B0007835CCBE75FA493EF8BBCBBECEBA483E73
:1056C000FA41CBBEE87B473E7FC7CABEC23D463EDD
:1056D000874CCABE5D00453E12D1C9BEBBC3433E26
:1056E0002155C9BEDC87423EB3D8C8BEC14C413E3D
:1056F000CA5BC8BE6B12403E65DEC7BEDAD83E3E0E
:105700008560C7BE0FA03D3E2AE2C6BE0A683C3E89
:105710005463C6BECE303B3E03E4C5BE59FA393EA3
:105720003964C5BEAEC4383EF5E3C4BECD8F373E46
:105730003763C4BEB65B363E00E2C3BE6B28353E5F
:105740005160C3BEECF5333E29DEC2BE39C4323EE1
:10575000895BC2BE5493313E70D8C1BE3E63303EB9
:10576000E154C1BEF6332F3EDAD0C0BE7E052E3ED8
:105770005C4CC0BED7D72C3E67C7BFBE01AB2B3E2B
:10578000FC41BFBEFC7E2A3E1BBCBEBECB53293EA5
:10579000C535BEBE6D29283EF9AEBDBEE3FF263E2F
:1057A000B827BDBE2DD7253E03A0BCBE4EAF243EBC
:1057B000D917BCBE4488233E3B8FBBBE1262223E3B
:1057C0002906BBBEB73C213EA47CBABE3418203E9D
:1057D000ACF2B9BE8BF41E3E4268B9BEBBD11D3ED1
:1057E00065DDB8BEC6AF1C3E1652B8BEAC8E1B3EC1
:1057F00055C6B7BE6E6E1A3E233AB7BE0C4F193E61
:105800007FADB6BE8830183E6C20B6BEE112173EA2
:10581000E792B5BE1AF6153EF304B5BE31DA143E72
:105820008F76B4BE29BF133EBCE7B3BE01A5123EBE
:105830007A58B3BEBB8B113EC9C8B2BE5673103E78
:10584000AA38B2BED55B0F3E1DA8B1BE37450E3E8D
:105850002217B1BE7D2F0D3EBB85B0BEA71A0C3EF0
:10586000E6F3AFBEB7060B3EA561AFBEADF3093E92
:10587000F7CEAEBE8AE1083EDE3BAEBE4ED0073E5E
:1058800059A8ADBEFBBF063E6914ADBE90B0053E43
:105890000F80ACBE0EA2043E4AEBABBE7694033E34
:1058A0001B56ABBEC987023E82C0AABE087C013E21
:1058B000802AAABE3271003E1594A9BE91CEFE3D4B
:1058C00041FDA8BE9ABCFC3D0566A8BE7EACFA3D73
:1058D00061CEA7BE3F9EF83D5636A7BEDE91F63D8F
:1058E000E39DA6BE5D87F43D0A05A6BEBC7EF23DE3
:1058F000CB6BA5BEFE77F03D25D2A4BE2373EE3D53
:105900001A38A4BE2D70EC3DA99DA3BE1C6FEA3DC4
:10591000D302A3BEF36FE83D9967A2BEB172E63D24
:10592000FBCBA1BE5A77E43DF92FA1BEED7DE23D50
:105930009393A0BE6C86E03DCBF69FBED890DE3D33
:105940009F599FBE329DDC3D12BC9EBE7CABDA3DB2
:10595000221E9EBEB7BBD83DD17F9DBEE4CDD63DB5
:105960001FE19CBE03E2D43D0C429CBE18F8D23D20
:1059700099A29BBE2110D13DC6029BBE222ACF3DDB
:1059800093629ABE1A46CD3D00C299BE0B64CB3DD0
:105990000F2199BEF783C93DC07F98BEDEA5C73DE4
:1059A00012DE97BEC1C9C53D073C97BEA2EFC33DFD
:1059B0009F9996BE8217C23DD9F695BE6241C03D01
:1059C000B75395BE436DBE3D39B094BE269BBC3DDA
:1059D0005F0C94BE0CCBBA3D2A6893BEF7FCB83D71
:1059E0009AC392BEE730B73DB01E92BEDE66B53DAB
:1059F0006B7991BEDD9EB33DCDD390BEE4D8B13D71
:105A0000D52D90BEF614B03D84878FBE1253AE3DA7
:105A1000DBE08EBE3B93AC3DDA398EBE71D5AA3D3C
:105A200081928DBEB519A93DD0EA8CBE0860A73D14
:105A3000C9428CBE6CA8A53D6B9A8BBEE2F2A33D19
:105A4000B7F18ABE693FA23DAD488ABE058EA03D32
:105A50004E9F89BEB5DE9E3D9BF588BE7B319D3D48
:105A6000924B88BE57869B3D36A187BE4BDD993D44
:105A700086F686BE5836983D824B86BE7F91963D0F
:105A80002CA085BEC0EE943D84F484BE1D4E933D93
:105A9000894884BE97AF913D3D9C83BE2F13903DB6
:105AA0009FEF82BEE6788E3DB14282BEBCE08C3D67
:105AB000739581BEB34A8B3DE4E780BECCB6893D89
:105AC000063A80BE0725883DB2177FBE6795863DA2
:105AD000BBBA7DBEEA07853D275D7CBE947C833DD5
