:020000040800F2
:10000000204E0020C12C0008494500085545000835
:100010005D450008654500086D45000800000000CA
:10002000000000000000000000000000754500080E
:1000300081450008000000008D4500089945000832
:10004000412D0008412D0008412D0008412D0008D8
:10005000412D0008412D0008412D0008412D0008C8
:10006000412D0008412D0008412D0008412D0008B8
:10007000412D0008412D0008412D0008412D0008A8
:10008000412D0008412D0008412D0008412D000898
:10009000412D0008412D0008412D0008412D000888
:1000A000412D0008412D0008412D0008412D000878
:1000B000412D0008412D0008412D0008412D000868
:1000C000412D0008412D0008412D0008412D000858
:1000D000A5450008412D0008412D0008412D0008CC
:1000E000412D0008412D0008412D0008412D000838
:1000F000412D0008412D0008412D0008412D000828
:10010000412D0008412D0008412D0008412D000817
:10011000412D0008412D0008412D0008412D000807
:10012000412D0008412D0008412D0008412D0008F7
:10013000412D0008412D0008412D0008412D0008E7
:10014000412D0008412D0008412D0008412D0008D7
:10015000412D0008412D0008412D0008412D0008C7
:10016000412D0008412D0008412D0008412D0008B7
:10017000412D0008412D0008412D0008412D0008A7
:10018000412D0008412D000890B484B000AF024614
:100190000B46FA71BB714FF00003FB60BB7903F0B3
:1001A00003034FEA83034FF00F0202FA03F3FB60ED
:1001B0004FF46053C4F20103BA794FEA9202D2B20B
:1001C00010464FF46052C4F20102B9794FEA91012E
:1001D000C9B201F1020152F82110FA686FEA020275
:1001E000114000F1020243F822104FF46053C4F2B0
:1001F0000103BA794FEA9202D2B210464FF460522C
:10020000C4F20102B9794FEA9101C9B201F10201C8
:1002100052F82110FC79BA7902F003024FEA820207
:1002200004FA02F2114300F1020243F8221007F12E
:100230001007BD4690BC704780B582B000AF4FF04C
:100240003A004FF0010104F013F84CF233733B60B5
:100250004FF002033B714FF002037B714FF000033C
:10026000BB714FF00003FB713B464FF44060C4F29A
:100270000200194604F0DEFB4FF44060C4F20200B5
:100280004FF000014FF00C0204F0B0FC4FF440605E
:10029000C4F202004FF001014FF00C0204F0A6FC82
:1002A0004FF44060C4F202004FF004014FF00C0222
:1002B00004F09CFC4FF44060C4F202004FF00501D2
:1002C0004FF00C0204F092FC4FF44060C4F20200C4
:1002D0004FF008014FF00C0204F088FC4FF440602E
:1002E000C4F202004FF009014FF00C0204F07EFC52
:1002F0004FF44060C4F202004FF00A014FF00C02CC
:1003000004F074FC4FF44060C4F202004FF00E01A0
:100310004FF00C0204F06AFC4FF44060C4F202009B
:100320004FF00F014FF00C0204F060FC4FF68073A9
:100330003B603B464FF48050C4F20200194604F083
:1003400079FB4FF48050C4F202004FF007014FF0E8
:100350000C0204F04BFC4FF48050C4F202004FF04A
:1003600008014FF00C0204F041FC4FF48050C4F23D
:1003700002004FF009014FF00C0204F037FC4FF47B
:100380008050C4F202004FF00A014FF00C0204F05A
:100390002DFC4FF48050C4F202004FF00B014FF0DF
:1003A0000C0204F023FC4FF48050C4F202004FF022
:1003B0000C014FF00C0204F019FC4FF48050C4F211
:1003C00002004FF00D014FF00C0204F00FFC4FF44F
:1003D0008050C4F202004FF00E014FF00C0204F006
:1003E00005FC4FF48050C4F202004FF00F014FF0B3
:1003F0000C0204F0FBFB4FF008033B603B464FF45C
:100400008050C4F20200194604F014FB4FF48050EF
:10041000C4F202004FF003014FF00C0204F0E6FBBF
:100420004FF080033B603B464FF44060C4F2020053
:10043000194604F0FFFA4FF44060C4F202004FF096
:100440000A014FF00C0204F0D1FB4FF008033B60AF
:100450004FF001033B714FF000037B714FF000033D
:10046000BB714FF00003FB713B464FF44060C4F298
:100470000200194604F0DEFA4FF400533B604FF0DF
:1004800001033B714FF001037B714FF00003BB711F
:100490004FF00003FB713B464FF44060C4F2020092
:1004A000194604F0C7FA4FF44060C4F202004FF45A
:1004B000005104F07FFB07F10807BD4680BD00BF77
:1004C00080B596B000AF4FF001004FF0010103F08E
:1004D000F9FE4FF001033B604FF000037B604FF0EB
:1004E0000903BB604FF00003FB604FF000033B616A
:1004F0004FF000037B614FF00003BB614FF000033E
:10050000FB614FF000033B624FF000037B624FF052
:100510001003BB624FF00003FB624FF000033B632C
:100520004FF000037B634FF00003BB634FF0000309
:10053000FB634FF480533B644FF000037B644FF048
:100540000003BB644FF00003FB643B463B653B4646
:100550007B6507F11C03184604F09AF94FF0000080
:100560004FF0010104F03CFA07F15807BD4680BD89
:1005700080B582B000AFFFF75FFEFFF7A1FF4FF03D
:10058000050000F0F3FD4FF44060C4F202004FF0AC
:10059000080104F01DFB4FF00A0000F0E7FD4FF4E6
:1005A0004060C4F202004FF0080104F003FB4FF07A
:1005B00010004FF0010100F01BF94FF01E004FF04A
:1005C000B20100F015F94FF028004FF0060100F0DD
:1005D0000FF94FF000004FF0010100F009F94FF062
:1005E000010047F2EF0100F003F94FF002004FF471
:1005F000C06100F0FDF84FF010004FF0000100F076
:10060000F7F84FF0050000F0B1FD4FF0110046F68D
:10061000200100F0EDF84FF0120040F6991100F0C3
:10062000E7F84FF026004FF4605100F0E1F84FF08A
:1006300007004FF0330100F0DBF84FF00C004FF0F3
:10064000050100F0D5F84FF030004FF0000100F048
:10065000CFF84FF0310040F2033100F0C9F84FF00D
:10066000320040F2074100F0C3F84FF0330040F28F
:10067000013100F0BDF84FF0340040F2013100F0DC
:10068000B7F84FF0350040F2034100F0B1F84FF0F9
:10069000360040F2077100F0ABF84FF037004FF42E
:1006A000806100F0A5F84FF03A004FF4206100F0AF
:1006B0009FF84FF03B004FF4805100F099F84FF055
:1006C0000D004FF00A0100F093F84FF00E004FF4C8
:1006D000385100F08DF84FF044004FF46F4100F0B6
:1006E00087F84FF045004FF0000100F081F84FF01F
:1006F000460040F23F1100F07BF84FF04E004FF003
:10070000000100F075F84FF04F004FF0000100F0CD
:100710006FF84FF022004FF0000100F069F84FF041
:1007200000037B6007E04FF0000000F083F87B6877
:1007300003F101037B607A6842F6FF33C0F20103E4
:100740009A42F0D940F21800C2F2000000F082F89C
:1007500007F10807BD4680BD80B582B000AF0246F4
:100760000B46FA807B71FB884FF04E00194600F073
:100770003FF87B799BB24FF04F00194600F038F8F4
:1007800007F10807BD4680BD80B582B000AFF88094
:1007900079717A803B71FA887B88D31A9BB203F116
:1007A00001039BB24FF04500194600F021F8FB8889
:1007B0004FF04600194600F01BF87B799AB23B795E
:1007C0009BB2D31A9BB203F101039BB29AB27B791D
:1007D0004FEA03239BB213439BB29BB24FF04400FA
:1007E000194600F005F807F10807BD4680BD00BFB7
:1007F00080B483B000AF02460B46FA71BB804FF065
:10080000C043FA7992B21A804FF00003C6F2100387
:10081000BA881A8007F10C07BD4680BC704700BF3C
:1008200080B400AF4FF0C0434FF022021A80BD46A3
:1008300080BC704780B483B000AF0346FB804FF0AC
:100840000003C6F21003FA881A8007F10C07BD46B0
:1008500080BC704780B483B000AF786040F6B4339A
:10086000C2F200037A681A6007F10C07BD4680BC2B
:10087000704700BF80B400AF40F6B433C2F200034B
:100880001B681846BD4680BC704700BF80B584B069
:1008900000AF0346FB804FF00003FB604FF01100F8
:1008A00046F62001FFF7A4FF40F23F104FF0000191
:1008B000FFF752FFFFF7B4FF4FF00003FB6009E0C2
:1008C0004FF00003C6F21003FA881A80FB6803F1A8
:1008D0000103FB60FA6842F6FF33C0F201039A425B
:1008E000EED907F11007BD4680BD00BF80B584B0CA
:1008F00000AFF88079717A803B717A793B79D318AF
:10090000DBB203F1FF33D9B2F8887A883B79FFF77D
:100910003BFF4FF0110046F62001FFF769FFFA8810
:100920007B7910461946FFF717FFFFF779FF4FF065
:100930000003FB6007E03B8B1846FFF77BFFFB687B
:1009400003F10103FB607B883A7902FB03F31A464B
:10095000FB689A42EFD840F23F104FF000014FF48D
:10096000A0724FF0F003FFF70FFF07F11007BD462D
:1009700080BD00BF80B584B000AFF88079717A8007
:100980003B714FF00003FB813B79002B06D14FF008
:1009900011004FF4D041FFF72BFF08E03B79012B0A
:1009A00005D14FF0110046F62801FFF721FFFA8824
:1009B0007B7910461946FFF7CFFEFFF731FF4FF066
:1009C0000003FB810BE040F6BA33C2F200031B8840
:1009D0001846FFF72FFFFB8903F10103FB81FA891A
:1009E0007B889A42EFD34FF0110046F62001FFF7C3
:1009F000FFFE07F11007BD4680BD00BF80B588B07F
:100A000000AFF88079717A803B717A88FB88D31ABD
:100A10009BB2FB833B799AB27B799BB2D31A9BB290
:100A2000BB83FA887B7910461946FFF795FEFFF7DE
:100A3000F7FE40F6BA33C2F200031B881846FFF7F0
:100A4000F9FEB7F91E3083EAE372A2EBE372B7F95D
:100A50001C30002BB8BF5B429A4261DBB7F91E30F5
:100A6000002B5DD0B7F91C3006EE903AB8EEE67A6E
:100A7000B7F91E3006EE903AF8EEE67AC7EE277A1E
:100A8000C7ED067A7B7907EE903AB8EEE77AFB88F5
:100A900007EE903AF8EEE76AD7ED067A66EEA77AA7
:100AA00077EE677AC7ED057AB7F91E30002B02DAC8
:100AB0004FF6FF7301E04FF00103FB832BE0FA8B4D
:100AC000FB88D318FB80FB8806EE903AB8EEE67AF6
:100AD000D7ED067A27EE277AD7ED057A77EE277AD3
:100AE00017EE900A06F044FF02460B4610461946E0
:100AF00005F010F80346DBB2FA8810461946FFF7F6
:100B00002BFEFFF78DFE40F6BA33C2F200031B88BE
:100B10001846FFF78FFEFA887B889A42CFD15DE0B6
:100B2000B7F91E3007EE903AB8EEE77AB7F91C3005
:100B300006EE903AF8EEE67AC7EE277AC7ED047A29
:100B4000FB8807EE903AB8EEE77A7B7907EE903AA9
:100B5000F8EEE76AD7ED047A66EEA77A77EE677A61
:100B6000C7ED037AB7F91C30002B02DA4FF6FF739A
:100B700001E04FF00103BB832CE0BB8BDAB27B7941
:100B8000D3187B717B7906EE903AB8EEE67AD7ED12
:100B9000047A27EE277AD7ED037A77EE277A17EED5
:100BA000900A06F0E5FE02460B461046194604F090
:100BB000B1FF03469AB27B7910461946FFF7CCFD88
:100BC000FFF72EFE40F6BA33C2F200031B88184628
:100BD000FFF730FE7A793B799A42CED107F12007B0
:100BE000BD4680BD80B400AF40F20203C2F20003F4
:100BF0001B881846BD4680BC704700BF80B400AF5C
:100C000040F6B833C2F200031B889BB21846BD46BB
:100C100080BC704780B483B000AF0346FB8040F2D5
:100C20000203C2F20003FA881A8007F10C07BD46DE
:100C300080BC704780B483B000AF0346FB8040F6B1
:100C4000BA33C2F20003FA881A8007F10C07BD46D6
:100C500080BC704780B483B000AF0346FB8040F691
:100C6000B833C2F20003FA881A8007F10C07BD46B8
:100C700080BC704790B585B002AFF88079717A80FA
:100C80003B71FB88C3F59F7303F1010398B2797937
:100C90007A883B793C8B0094FFF728FE07F10C071C
:100CA000BD4690BD80B582B000AFF88079717A8082
:100CB0003B71FB88C3F59F7303F1010398B2797907
:100CC0007A883B79FFF756FE07F10807BD4680BDDD
:100CD00080B582B000AFF88079717A803B71FB8873
:100CE000C3F59F7303F1010398B27B88C3F59F732B
:100CF00003F101039AB279793B79FFF77FFE07F19F
:100D00000807BD4680BD00BF80B582B000AFF88047
:100D100079717A803B71FB88C3F59F7303F10103FE
:100D200099B27A797B88084611461A464FF000033B
:100D3000FFF720FEFB88C3F59F7303F1010399B20F
:100D40003A797B79D318DBB203F1FF33DAB27B88CF
:100D5000084611461A464FF00003FFF70BFEFB88CA
:100D6000C3F59F7303F1010399B23B799BB27A7982
:100D7000084611461A464FF00103FFF7FBFDFB88BA
:100D8000C3F100039AB27B88D31A9BB203F5A07318
:100D900099B23B799BB27A79084611461A464FF0D0
:100DA0000103FFF7E7FD07F10807BD4680BD00BF5F
:100DB00080B588B000AFF88079713A71FB70FFF7A9
:100DC00059FD0346DB887B75FFF754FD03469B887E
:100DD0003B75FFF74FFD03461A683B79A3F12003EB
:100DE0004FEA4303797D01FB03F3D318BB613B7DDD
:100DF000082B02D94FF4004301E04FF080037B82BF
:100E0000FFF7F0FE03463B82FFF7F8FE0346FB8147
:100E1000FB88FB837B79BB834FF00003FB757AE093
:100E20004FF00003BB7543E0FB8BC3F59F7303F1E9
:100E300001039AB2BB8BDBB210461946FFF78CFC5C
:100E4000FFF7EEFCBB691B881A46798ABB7D41FA25
:100E500003F31340002B04D0FB891846FFF7EAFC8C
:100E600003E03B8A1846FFF7E5FCFB78002B04D132
:100E7000BB8B03F1FF33BB8316E0FB78012B04D15E
:100E8000FB8B03F10103FB830EE0FB78022B04D103
:100E9000BB8B03F10103BB8306E0FB78032B03D17B
:100EA000FB8B03F1FF33FB83BB7D03F10103BB75B8
:100EB000BA7D3B7D9A42B7D3FB78002B06D1FB8BE2
:100EC00003F10103FB837B79BB831CE0FB78012BDF
:100ED00006D1FB88FB83BB8B03F10103BB8312E0CC
:100EE000FB78022B06D1FB8B03F1FF33FB837B796D
:100EF000BB8308E0FB78032B05D1FB88FB83BB8B0E
:100F000003F1FF33BB83BB6903F10203BB61FB7DCC
:100F100003F10103FB75FA7D7B7D9A4280D307F1D3
:100F20002007BD4680BD00BF80B586B000AF3A60E7
:100F30000246FA800A467A713B71386807F092FAE5
:100F40000346FB81FFF796FC03469B88BB8197F81D
:100F50002030002B31D13B79002B13D1FB887B82D1
:100F60007B799AB2BB89F98901FB03F34FEAD3710C
:100F7000CB184FEA63039BB2D3189BB203F1FF3344
:100F80003B82B4E03B79012B04D1FB887B827B79E7
:100F90003B82ACE03B79022B40F0A980FB887B824E
:100FA0007B799AB2BB89F98901FB03F39BB2D31811
:100FB0009BB203F1FF333B8299E097F82030012B7D
:100FC0002ED13B79002B12D1BB89FA8902FB03F3A6
:100FD0004FEAD372D3184FEA63039BB2FA88D31A4D
:100FE0009BB203F101037B827B793B827FE03B79FB
:100FF000012B04D1FB887B827B793B8277E03B79B4
:10100000022B74D1BB89FA8902FB03F39BB2FA88E5
:10101000D31A9BB203F101037B827B793B8266E0AA
:1010200097F82030022B30D13B79002B13D1FB886D
:101030007B827B799AB2BB89F98901FB03F34FEA82
:10104000D371CB184FEA63039BB2D31A9BB203F15F
:1010500001033B824BE03B79012B04D1FB887B826F
:101060007B793B8243E03B79022B40D1FB887B823A
:101070007B799AB2BB89F98901FB03F39BB2D31A3E
:101080009BB203F101033B8231E097F82030032B40
:101090002DD13B79002B12D1BB89FA8902FB03F3D6
:1010A0004FEAD372D3184FEA63039AB2FB88D3187E
:1010B0009BB203F1FF337B827B793B8217E03B7964
:1010C000012B04D1FB887B827B793B820FE03B794B
:1010D000022B0CD1BB89FA8902FB03F39AB2FB887D
:1010E000D3189BB203F1FF337B827B793B824FF0B5
:1010F00000037B6131E03B8AD9B23A687B69D3183F
:101100001A78788A97F82030FFF752FE97F8203047
:10111000002B04D13A8ABB89D31A3B8219E097F895
:101120002030012B04D17A8ABB89D3187B8210E04E
:1011300097F82030022B04D13A8ABB89D3183B821E
:1011400007E097F82030032B03D17A8ABB89D31AA2
:101150007B827B6903F101037B61FA897B699A4297
:10116000C9D807F11807BD4680BD00BF80B485B05F
:1011700000AF78604FF00003FB607B6842F21072B2
:1011800002FB03F3FB6003E0FB6803F1FF33FB604A
:10119000FB68002BF8D107F11407BD4680BC7047EF
:1011A00080B49DB000AFF8607A600A467A813B81D6
:1011B0007B897B667B6EBB657B6E4FEA93037B66A8
:1011C0004FF00003BB664FF00003FB667B6E3B668F
:1011D000BA6E7B6ED3187B657A6D7B6ED3183B65D8
:1011E0003A6D7B6ED318FB64BB6E4FEAC303FA689B
:1011F000D31893ED007A3B6D4FEAC303FA68D31816
:10120000D3ED007A77EE277AC7ED127ABB6E4FEAFC
:10121000C303FA68D31893ED007A3B6D4FEAC3031A
:10122000FA68D318D3ED007A77EE677AC7ED117AB2
:10123000BB6E4FEAC30303F10403FA68D31893EDBE
:10124000007A3B6D4FEAC30303F10403FA68D31835
:10125000D3ED007A77EE277AC7ED107ABB6E4FEAAE
:10126000C30303F10403FA68D31893ED007A3B6DCE
:101270004FEAC30303F10403FA68D318D3ED007AED
:1012800077EE677AC7ED0F7A7B6D4FEAC303FA6892
:10129000D31893ED007AFB6C4FEAC303FA68D318B6
:1012A000D3ED007A77EE277AC7ED0E7ABB6E4FEA60
:1012B000C303FA68D31897ED127AD7ED0E7A77EE5A
:1012C000277AC3ED007A97ED127AD7ED0E7A77EE92
:1012D000677AC7ED127A7B6D4FEAC30303F104030B
:1012E000FA68D31893ED007AFB6C4FEAC30303F15D
:1012F0000403FA68D318D3ED007A77EE277AC7EDA6
:101300000D7ABB6E4FEAC30303F10403FA68D318E6
:1013100097ED107AD7ED0D7A77EE277AC3ED007A44
:1013200097ED107AD7ED0D7A77EE677AC7ED107AE0
:101330007B6D4FEAC30303F10403FA68D31893EDFE
:10134000007AFB6C4FEAC30303F10403FA68D31875
:10135000D3ED007A77EE677AC7ED0E7A7B6D4FEAB0
:10136000C303FA68D31893ED007AFB6C4FEAC3030A
:10137000FA68D318D3ED007A77EE677AC7ED0D7A65
:10138000FA6EFB6ED3183B633B6B4FEAC3037A687C
:10139000D3181B68FB623B6B4FEAC30303F10403E2
:1013A0007A68D3181B68BB627B6D4FEAC303FA6887
:1013B000D31897ED127AD7ED0B7A27EE277AD7ED6F
:1013C000106AD7ED0A7A66EEA77A77EE277AC3ED30
:1013D000007A7B6D4FEAC30303F10403FA68D31864
:1013E00097ED107AD7ED0B7A27EE277AD7ED126AB0
:1013F000D7ED0A7A66EEA77A77EE677AC3ED007AC0
:1014000097ED117AD7ED0E7A77EE277AC7ED127A3B
:1014100097ED117AD7ED0E7A77EE677AC7ED117AEC
:1014200097ED0F7AD7ED0D7A77EE677AC7ED107AE0
:1014300097ED0F7AD7ED0D7A77EE277AC7ED0F7A11
:10144000FB6E4FEAC3037A68D3181B687B62FB6E9E
:101450004FEAC30303F104037A68D3181B683B62A5
:101460003B6D4FEAC303FA68D31897ED127AD7EDB4
:10147000097A27EE277AD7ED106AD7ED087A66EE5B
:10148000A77A77EE277AC3ED007A3B6D4FEAC30364
:1014900003F10403FA68D31897ED107AD7ED097AAF
:1014A00027EE277AD7ED126AD7ED087A66EEA77A8B
:1014B00077EE677AC3ED007A3A6BFB6ED318FB6167
:1014C000FB694FEAC3037A68D3181B68BB61FB69E9
:1014D0004FEAC30303F104037A68D3181B687B61E6
:1014E000FB6C4FEAC303FA68D31897ED117AD7ED76
:1014F000067A27EE277AD7ED0F6AD7ED057A66EEE2
:10150000A77A77EE277AC3ED007AFB6C4FEAC30324
:1015100003F10403FA68D31897ED0F7AD7ED067A32
:1015200027EE277AD7ED116AD7ED057A66EEA77A0E
:1015300077EE677AC3ED007A3B89FA6ED318FB66C3
:10154000BB6E03F10103BB663B6E03F1FF333B66E9
:101550003B6E002B7FF43CAE3B894FEA83033B811B
:101560007B894FEA93039BB2FB65E3E17B6EBB652E
:101570007B6E4FEA93037B664FF00003FB664FF0F0
:1015800000033B66C7E1FA6EFB6ED3183B633A6B10
:10159000FB6ED318FB61FB6E4FEAC3037A68D31866
:1015A0001B687B62FB6E4FEAC30303F104037A6896
:1015B000D3181B683B623B6B4FEAC3037A68D318AE
:1015C0001B68FB623B6B4FEAC30303F104037A68B9
:1015D000D3181B68BB62FB694FEAC3037A68D31850
:1015E0001B68BB61FB694FEAC30303F104037A681C
:1015F000D3181B687B613B89FA6ED318FB663B6E80
:10160000BB667FE1BA6E7B6ED3187B657A6D7B6EAD
:10161000D3183B653A6D7B6ED318FB64BB6E4FEA03
:10162000C303FA68D31893ED007A3B6D4FEAC30306
:10163000FA68D318D3ED007A77EE277AC7ED127ADD
:10164000BB6E4FEAC303FA68D31893ED007A3B6D83
:101650004FEAC303FA68D318D3ED007A77EE677ABE
:10166000C7ED117ABB6E4FEAC30303F10403FA68B6
:10167000D31893ED007A3B6D4FEAC30303F10403E3
:10168000FA68D318D3ED007A77EE277AC7ED107A8F
:10169000BB6E4FEAC30303F10403FA68D31893ED5A
:1016A000007A3B6D4FEAC30303F10403FA68D318D1
:1016B000D3ED007A77EE677AC7ED0F7A7B6D4FEA4C
:1016C000C303FA68D31893ED007AFB6C4FEAC303A7
:1016D000FA68D318D3ED007A77EE277AC7ED0E7A41
:1016E000BB6E4FEAC303FA68D31897ED127AD7EDB1
:1016F0000E7A77EE277AC3ED007A97ED127AD7ED5E
:101700000E7A77EE677AC7ED127A7B6D4FEAC303E4
:1017100003F10403FA68D31893ED007AFB6C4FEAE7
:10172000C30303F10403FA68D318D3ED007A77EE0C
:10173000277AC7ED0D7ABB6E4FEAC30303F10403AA
:10174000FA68D31897ED107AD7ED0D7A77EE277AED
:10175000C3ED007A97ED107AD7ED0D7A77EE677AC0
:10176000C7ED107A7B6D4FEAC30303F10403FA68F7
:10177000D31893ED007AFB6C4FEAC30303F1040323
:10178000FA68D318D3ED007A77EE677AC7ED0E7A50
:101790007B6D4FEAC303FA68D31893ED007AFB6CB4
:1017A0004FEAC303FA68D318D3ED007A77EE677A6D
:1017B000C7ED0D7A7B6D4FEAC303FA68D31897ED36
:1017C000127AD7ED0B7A27EE277AD7ED106AD7ED8C
:1017D0000A7A66EEA77A77EE277AC3ED007A7B6DF8
:1017E0004FEAC30303F10403FA68D31897ED107AA4
:1017F000D7ED0B7A27EE277AD7ED126AD7ED0A7A62
:1018000066EEA77A77EE677AC3ED007A97ED117AE4
:10181000D7ED0E7A77EE277AC7ED127A97ED117A27
:10182000D7ED0E7A77EE677AC7ED117A97ED0F7ADA
:10183000D7ED0D7A77EE677AC7ED107A97ED0F7ACC
:10184000D7ED0D7A77EE277AC7ED0F7A3B6D4FEA29
:10185000C303FA68D31897ED127AD7ED097A27EE09
:10186000277AD7ED106AD7ED087A66EEA77A77EE79
:10187000277AC3ED007A3B6D4FEAC30303F10403FB
:10188000FA68D31897ED107AD7ED097A27EE277A00
:10189000D7ED126AD7ED087A66EEA77A77EE677A07
:1018A000C3ED007AFB6C4FEAC303FA68D31897EDD7
:1018B000117AD7ED067A27EE277AD7ED0F6AD7EDA2
:1018C000057A66EEA77A77EE277AC3ED007AFB6C8D
:1018D0004FEAC30303F10403FA68D31897ED0F7AB4
:1018E000D7ED067A27EE277AD7ED116AD7ED057A7C
:1018F00066EEA77A77EE677AC3ED007ABA6EBB6DB3
:10190000D318BB667A89BB6E9A423FF67BAE3B6EBC
:1019100003F101033B667B6E03F1FF323B6E9A429B
:10192000BFF431AE3B894FEA83033B81FB6D4FEA45
:101930009303FB65FB6D042B3FF618AE7B6EBB6516
:101940007B6E4FEA93037B664FF00003BB662BE18F
:10195000BA6E7B6ED3187B657A6D7B6ED3183B6550
:101960003A6D7B6ED318FB64BB6E4FEAC303FA6813
:10197000D31893ED007A3B6D4FEAC303FA68D3188E
:10198000D3ED007A77EE277AC7ED127ABB6E4FEA75
:10199000C303FA68D31893ED007A3B6D4FEAC30393
:1019A000FA68D318D3ED007A77EE677AC7ED117A2B
:1019B000BB6E4FEAC30303F10403FA68D31893ED37
:1019C000007A3B6D4FEAC30303F10403FA68D318AE
:1019D000D3ED007A77EE277AC7ED107ABB6E4FEA27
:1019E000C30303F10403FA68D31893ED007A3B6D47
:1019F0004FEAC30303F10403FA68D318D3ED007A66
:101A000077EE677AC7ED0F7A7B6D4FEAC303FA680A
:101A1000D31893ED007AFB6C4FEAC303FA68D3182E
:101A2000D3ED007A77EE277AC7ED0E7ABB6E4FEAD8
:101A3000C303FA68D31897ED127AD7ED0E7A77EED2
:101A4000277AC3ED007A97ED127AD7ED0E7A77EE0A
:101A5000677AC7ED127A7B6D4FEAC30303F1040383
:101A6000FA68D31893ED007AFB6C4FEAC30303F1D5
:101A70000403FA68D318D3ED007A77EE277AC7ED1E
:101A80000D7ABB6E4FEAC30303F10403FA68D3185F
:101A900097ED107AD7ED0D7A77EE277AC3ED007ABD
:101AA00097ED107AD7ED0D7A77EE677AC7ED107A59
:101AB0007B6D4FEAC30303F10403FA68D31893ED77
:101AC000007AFB6C4FEAC30303F10403FA68D318EE
:101AD000D3ED007A77EE677AC7ED0E7A7B6D4FEA29
:101AE000C303FA68D31893ED007AFB6C4FEAC30383
:101AF000FA68D318D3ED007A77EE677AC7ED0D7ADE
:101B00007B6D4FEAC303FA68D318BA6C1A607B6D19
:101B10004FEAC30303F10403FA68D3183A6C1A605E
:101B200097ED117AD7ED0E7A77EE277AC7ED127A14
:101B300097ED117AD7ED0E7A77EE677AC7ED117AC5
:101B400097ED0F7AD7ED0D7A77EE677AC7ED107AB9
:101B500097ED0F7AD7ED0D7A77EE277AC7ED0F7AEA
:101B60003B6D4FEAC303FA68D318BA6C1A603B6D39
:101B70004FEAC30303F10403FA68D3183A6C1A60FE
:101B8000FB6C4FEAC303FA68D3187A6C1A60FB6CDB
:101B90004FEAC30303F10403FA68D318FA6B1A601F
:101BA000BA6EBB6DD318BB667A89BB6DD21ABB6E99
:101BB0009A42BFF4CDAE07F17407BD4680BC7047B2
:101BC00080B49DB000AFF8607A600A467A813B81AC
:101BD0007B897B667B6EBB657B6E4FEA93037B667E
:101BE0004FF00003BB664FF00003FB667B6E3B6665
:101BF000BA6E7B6ED3187B657A6D7B6ED3183B65AE
:101C00003A6D7B6ED318FB64BB6E4FEAC303FA6870
:101C1000D31893ED007A3B6D4FEAC303FA68D318EB
:101C2000D3ED007A77EE277AC7ED127ABB6E4FEAD2
:101C3000C303FA68D31893ED007A3B6D4FEAC303F0
:101C4000FA68D318D3ED007A77EE677AC7ED117A88
:101C5000BB6E4FEAC30303F10403FA68D31893ED94
:101C6000007A3B6D4FEAC30303F10403FA68D3180B
:101C7000D3ED007A77EE277AC7ED107ABB6E4FEA84
:101C8000C30303F10403FA68D31893ED007A3B6DA4
:101C90004FEAC30303F10403FA68D318D3ED007AC3
:101CA00077EE677AC7ED0F7A7B6D4FEAC303FA6868
:101CB000D31893ED007AFB6C4FEAC303FA68D3188C
:101CC000D3ED007A77EE277AC7ED0E7ABB6E4FEA36
:101CD000C303FA68D31897ED127AD7ED0E7A77EE30
:101CE000277AC3ED007A97ED127AD7ED0E7A77EE68
:101CF000677AC7ED127A7B6D4FEAC30303F10403E1
:101D0000FA68D31893ED007AFB6C4FEAC30303F132
:101D10000403FA68D318D3ED007A77EE277AC7ED7B
:101D20000D7ABB6E4FEAC30303F10403FA68D318BC
:101D300097ED107AD7ED0D7A77EE277AC3ED007A1A
:101D400097ED107AD7ED0D7A77EE677AC7ED107AB6
:101D50007B6D4FEAC30303F10403FA68D31893EDD4
:101D6000007AFB6C4FEAC30303F10403FA68D3184B
:101D7000D3ED007A77EE677AC7ED0E7A7B6D4FEA86
:101D8000C303FA68D31893ED007AFB6C4FEAC303E0
:101D9000FA68D318D3ED007A77EE677AC7ED0D7A3B
:101DA000FA6EFB6ED3183B633B6B4FEAC3037A6852
:101DB000D3181B68FB623B6B4FEAC30303F10403B8
:101DC0007A68D3181B68BB627B6D4FEAC303FA685D
:101DD000D31897ED127AD7ED0B7A27EE277AD7ED45
:101DE000106AD7ED0A7A66EEA77A77EE677AC3EDC6
:101DF000007A7B6D4FEAC30303F10403FA68D3183A
:101E000097ED107AD7ED0B7A27EE277AD7ED126A85
:101E1000D7ED0A7A66EEA77A77EE277AC3ED007AD5
:101E200097ED117AD7ED0E7A77EE677AC7ED127AD1
:101E300097ED117AD7ED0E7A77EE277AC7ED117A02
:101E400097ED0F7AD7ED0D7A77EE277AC7ED107AF6
:101E500097ED0F7AD7ED0D7A77EE677AC7ED0F7AA7
:101E6000FB6E4FEAC3037A68D3181B687B62FB6E74
:101E70004FEAC30303F104037A68D3181B683B627B
:101E80003B6D4FEAC303FA68D31897ED127AD7ED8A
:101E9000097A27EE277AD7ED106AD7ED087A66EE31
:101EA000A77A77EE677AC3ED007A3B6D4FEAC303FA
:101EB00003F10403FA68D31897ED107AD7ED097A85
:101EC00027EE277AD7ED126AD7ED087A66EEA77A61
:101ED00077EE277AC3ED007A3A6BFB6ED318FB617D
:101EE000FB694FEAC3037A68D3181B68BB61FB69BF
:101EF0004FEAC30303F104037A68D3181B687B61BC
:101F0000FB6C4FEAC303FA68D31897ED117AD7ED4B
:101F1000067A27EE277AD7ED0F6AD7ED057A66EEB7
:101F2000A77A77EE677AC3ED007AFB6C4FEAC303BA
:101F300003F10403FA68D31897ED0F7AD7ED067A08
:101F400027EE277AD7ED116AD7ED057A66EEA77AE4
:101F500077EE277AC3ED007A3B89FA6ED318FB66D9
:101F6000BB6E03F10103BB663B6E03F1FF333B66BF
:101F70003B6E002B7FF43CAE3B894FEA83033B81F1
:101F80007B894FEA93039BB2FB65E3E17B6EBB6504
:101F90007B6E4FEA93037B664FF00003FB664FF0C6
:101FA00000033B66C7E1FA6EFB6ED3183B633A6BE6
:101FB000FB6ED318FB61FB6E4FEAC3037A68D3183C
:101FC0001B687B62FB6E4FEAC30303F104037A686C
:101FD000D3181B683B623B6B4FEAC3037A68D31884
:101FE0001B68FB623B6B4FEAC30303F104037A688F
:101FF000D3181B68BB62FB694FEAC3037A68D31826
:102000001B68BB61FB694FEAC30303F104037A68F1
:10201000D3181B687B613B89FA6ED318FB663B6E55
:10202000BB667FE1BA6E7B6ED3187B657A6D7B6E83
:10203000D3183B653A6D7B6ED318FB64BB6E4FEAD9
:10204000C303FA68D31893ED007A3B6D4FEAC303DC
:10205000FA68D318D3ED007A77EE277AC7ED127AB3
:10206000BB6E4FEAC303FA68D31893ED007A3B6D59
:102070004FEAC303FA68D318D3ED007A77EE677A94
:10208000C7ED117ABB6E4FEAC30303F10403FA688C
:10209000D31893ED007A3B6D4FEAC30303F10403B9
:1020A000FA68D318D3ED007A77EE277AC7ED107A65
:1020B000BB6E4FEAC30303F10403FA68D31893ED30
:1020C000007A3B6D4FEAC30303F10403FA68D318A7
:1020D000D3ED007A77EE677AC7ED0F7A7B6D4FEA22
:1020E000C303FA68D31893ED007AFB6C4FEAC3037D
:1020F000FA68D318D3ED007A77EE277AC7ED0E7A17
:10210000BB6E4FEAC303FA68D31897ED127AD7ED86
:102110000E7A77EE277AC3ED007A97ED127AD7ED33
:102120000E7A77EE677AC7ED127A7B6D4FEAC303BA
:1021300003F10403FA68D31893ED007AFB6C4FEABD
:10214000C30303F10403FA68D318D3ED007A77EEE2
:10215000277AC7ED0D7ABB6E4FEAC30303F1040380
:10216000FA68D31897ED107AD7ED0D7A77EE277AC3
:10217000C3ED007A97ED107AD7ED0D7A77EE677A96
:10218000C7ED107A7B6D4FEAC30303F10403FA68CD
:10219000D31893ED007AFB6C4FEAC30303F10403F9
:1021A000FA68D318D3ED007A77EE677AC7ED0E7A26
:1021B0007B6D4FEAC303FA68D31893ED007AFB6C8A
:1021C0004FEAC303FA68D318D3ED007A77EE677A43
:1021D000C7ED0D7A7B6D4FEAC303FA68D31897ED0C
:1021E000127AD7ED0B7A27EE277AD7ED106AD7ED62
:1021F0000A7A66EEA77A77EE677AC3ED007A7B6D8E
:102200004FEAC30303F10403FA68D31897ED107A79
:10221000D7ED0B7A27EE277AD7ED126AD7ED0A7A37
:1022200066EEA77A77EE277AC3ED007A97ED117AFA
:10223000D7ED0E7A77EE677AC7ED127A97ED117ABD
:10224000D7ED0E7A77EE277AC7ED117A97ED0F7AF0
:10225000D7ED0D7A77EE277AC7ED107A97ED0F7AE2
:10226000D7ED0D7A77EE677AC7ED0F7A3B6D4FEABF
:10227000C303FA68D31897ED127AD7ED097A27EEDF
:10228000277AD7ED106AD7ED087A66EEA77A77EE4F
:10229000677AC3ED007A3B6D4FEAC30303F1040391
:1022A000FA68D31897ED107AD7ED097A27EE277AD6
:1022B000D7ED126AD7ED087A66EEA77A77EE277A1D
:1022C000C3ED007AFB6C4FEAC303FA68D31897EDAD
:1022D000117AD7ED067A27EE277AD7ED0F6AD7ED78
:1022E000057A66EEA77A77EE677AC3ED007AFB6C23
:1022F0004FEAC30303F10403FA68D31897ED0F7A8A
:10230000D7ED067A27EE277AD7ED116AD7ED057A51
:1023100066EEA77A77EE277AC3ED007ABA6EBB6DC8
:10232000D318BB667A89BB6E9A423FF67BAE3B6E92
:1023300003F101033B667B6E03F1FF323B6E9A4271
:10234000BFF431AE3B894FEA83033B81FB6D4FEA1B
:102350009303FB65FB6D042B3FF618AE7B6EBB65EC
:102360007B6E4FEA93037B664FF00003BB6657E139
:10237000BA6E7B6ED3187B657A6D7B6ED3183B6526
:102380003A6D7B6ED318FB64BB6E4FEAC303FA68E9
:10239000D31893ED007A3B6D4FEAC303FA68D31864
:1023A000D3ED007A77EE277AC7ED127ABB6E4FEA4B
:1023B000C303FA68D31893ED007A3B6D4FEAC30369
:1023C000FA68D318D3ED007A77EE677AC7ED117A01
:1023D000BB6E4FEAC30303F10403FA68D31893ED0D
:1023E000007A3B6D4FEAC30303F10403FA68D31884
:1023F000D3ED007A77EE277AC7ED107ABB6E4FEAFD
:10240000C30303F10403FA68D31893ED007A3B6D1C
:102410004FEAC30303F10403FA68D318D3ED007A3B
:1024200077EE677AC7ED0F7A7B6D4FEAC303FA68E0
:10243000D31893ED007AFB6C4FEAC303FA68D31804
:10244000D3ED007A77EE277AC7ED0E7ABB6E4FEAAE
:10245000C303FA68D31897ED127AD7ED0E7A37EEE8
:10246000277AD7ED1E7A67EE277AC3ED007A97EDCB
:10247000127AD7ED0E7A77EE677AC7ED127A7B6D16
:102480004FEAC30303F10403FA68D31893ED007A0B
:10249000FB6C4FEAC30303F10403FA68D318D3EDCE
:1024A000007A77EE277AC7ED0D7ABB6E4FEAC30349
:1024B00003F10403FA68D31897ED107AD7ED0D7A7B
:1024C00037EE277AD7ED1E7A67EE277AC3ED007ACA
:1024D00097ED107AD7ED0D7A77EE677AC7ED107A1F
:1024E0007B6D4FEAC30303F10403FA68D31893ED3D
:1024F000007AFB6C4FEAC30303F10403FA68D318B4
:10250000D3ED007A77EE677AC7ED0E7A7B6D4FEAEE
:10251000C303FA68D31893ED007AFB6C4FEAC30348
:10252000FA68D318D3ED007A77EE677AC7ED0D7AA3
:102530007B6D4FEAC303FA68D31897ED127AD7ED93
:102540001E7A67EE277AC3ED007A7B6D4FEAC303EC
:1025500003F10403FA68D31897ED107AD7ED1E7AC9
:1025600067EE277AC3ED007A97ED117AD7ED0E7AF0
:1025700077EE677AC7ED127A97ED117AD7ED0E7A7A
:1025800077EE277AC7ED117A97ED0F7AD7ED0D7AAE
:1025900077EE277AC7ED107A97ED0F7AD7ED0D7A9F
:1025A00077EE677AC7ED0F7A3B6D4FEAC303FA689F
:1025B000D31897ED127AD7ED1E7A67EE277AC3ED1E
:1025C000007A3B6D4FEAC30303F10403FA68D318A2
:1025D00097ED107AD7ED1E7A67EE277AC3ED007A71
:1025E000FB6C4FEAC303FA68D31897ED117AD7ED65
:1025F0001E7A67EE277AC3ED007AFB6C4FEAC303BD
:1026000003F10403FA68D31897ED0F7AD7ED1E7A19
:1026100067EE277AC3ED007ABA6EBB6DD318BB663E
:102620007A89BB6DD21ABB6E9A42BFF4A1AE07F194
:102630007407BD4680BC704780B489B000AFF860B5
:102640007B600B467B8113463B814FF00003BB83CD
:102650007B894FEA53037B837B894FEA53039BB209
:1026600003F101033B834FF00003FB83E5E0FA8BAA
:10267000BB8B9A4280F08880FB8B4FEAC303FA68D9
:10268000D3181B687B61FB8B4FEAC303FA68D3182E
:10269000BA8B4FEAC202F9688A1812681A60BB8BBB
:1026A0004FEAC303FA68D3187A691A60FB8B4FEAC2
:1026B000C30303F10403FA68D3181B687B61FB8B27
:1026C0004FEAC30303F10403FA68D318BA8B4FEA45
:1026D000C20202F10402F9688A1812681A60BB8B00
:1026E0004FEAC30303F10403FA68D3187A691A6046
:1026F000FA8B3B8BD3184FEAC303FA68D3181B68D5
:102700007B61FA8B3B8BD3184FEAC303FA68D3186B
:10271000B98B3A8B8A184FEAC202F9688A18126894
:102720001A60BA8B3B8BD3184FEAC303FA68D318ED
:102730007A691A60FA8B3B8BD3184FEAC30303F113
:102740000403FA68D3181B687B61FA8B3B8BD318A0
:102750004FEAC30303F10403FA68D318B98B3A8B29
:102760008A184FEAC20202F10402F9688A18126854
:102770001A60BA8B3B8BD3184FEAC30303F10403EF
:10278000FA68D3187A691A60FB8B03F101034FEAE8
:10279000C303FA68D3181B687B61FB8B03F1010349
:1027A0004FEAC303FA68D318B98B7A8B8A184FEAB9
:1027B000C202F9688A1812681A60BA8B7B8BD31828
:1027C0004FEAC303FA68D3187A691A60FB8B03F1E6
:1027D00001034FEAC30303F10403FA68D3181B682B
:1027E0007B61FB8B03F101034FEAC30303F1040395
:1027F000FA68D318B98B7A8B8A184FEAC20202F1B1
:102800000402F9688A1812681A60BA8B7B8BD31895
:102810004FEAC30303F10403FA68D3187A691A6014
:102820007B681B88BB833B894FEA43037A68D318D4
:102830007B60FB8B03F10203FB83FA8B7B8BA3F1A1
:1028400002039A427FF613AF07F12407BD4680BC0E
:10285000704700BF90B589B002AFF860B9607A6088
:10286000FB685B697B61FB689B79012B28D1FB6866
:102870009B881946FB68DA68FB681B69F868806802
:102880007C6800940190B86800F064F97B6919884D
:102890007B695A687B699B897869006900907868D0
:1028A000FFF78EF9FB68DB79012B2ED17B69198844
:1028B0007B69DA897B699B687868FFF7BDFE24E055
:1028C0007B6919887B695A687B699B89B868FEF7C0
:1028D00067FCFB68DB79012B08D17B6919887B6970
:1028E000DA897B699B68B868FFF7A6FEFB689B885E
:1028F0001946FB68DA68FB681B69F86880687C68C1
:1029000000940190B86800F005F807F11C07BD4677
:1029100090BD00BF80B491B000AFF860B9607A603C
:102920003B60BB6C03F108033B63BB684FEA0313D6
:10293000A3F10403BA6CD318FB62FB6803F108032C
:10294000BB62BB684FEAC303A3F10403FA68D31860
:102950007B62BB684FEAC303FA68D318FA6812684F
:102960001A60BB684FEAC30303F10403FA68D31883
:10297000FA6852681A60FB6C4FEAC3037A68D3188E
:10298000BB63FB6C4FEAC3033A68D3187B63BB6835
:1029900003F1FF33FB63A6E0BB6B1B683B62BB6BC1
:1029A00003F10403BB63BB6B1B68FB61BB6A93ED64
:1029B000007AD7ED087A67EE277AC7ED067ABB6A08
:1029C00093ED007AD7ED077A67EE277AC7ED057A9F
:1029D000BB6A03F10403BB62BB6A93ED007A7B6AB6
:1029E000D3ED007A37EE277AD7ED077A67EE277AAC
:1029F00097ED067A77EE677AC7ED067ABB6A93EDB4
:102A0000007AD7ED087A67EE277A97ED057A77EEA8
:102A1000277AC7ED057ABB6A03F10403BB627B6BBF
:102A20001B683B617B6A93ED007AD7ED047A67EE11
:102A3000277A97ED057A77EE677AC7ED057A7B6A94
:102A4000A3F104037B627B6A93ED007AD7ED077AEA
:102A500067EE277A97ED057A77EE677AC7ED057A04
:102A60007B6A93ED007AD7ED047A67EE277A97EDCB
:102A7000067A77EE277AC7ED067A7B6AA3F104031C
:102A80007B623B6BBA691A603B6B03F104033B63E7
:102A90003B6B7A691A603B6B03F104033B63D7ED30
:102AA000057AF1EE677AFB6AC3ED007AFB6AA3F15F
:102AB0000403FB62FB6ABA691A60FB6AA3F10403B0
:102AC000FB62FB6C4FEAC3037A6BD3187B63FB6C2E
:102AD0004FEAC303A3F10403BA6BD318BB63FB6BC8
:102AE00003F1FF33FB63FB6B002B7FF455AFBB6837
:102AF0004FEAC303BA6CD318FA6892ED007AFA6809
:102B000002F10402D2ED007A77EE677AC3ED007A23
:102B1000BB684FEAC30303F10403BA6CD3184FF048
:102B200000021A60FB6893ED007AFB6803F104036E
:102B3000D3ED007A77EE277ABB6CC3ED007ABB6CDD
:102B400003F104034FF000021A6007F14407BD4689
:102B500080BC704780B48FB000AFF860B9607A6015
:102B60003B60FB68FB62BB684FEAC30303F10403ED
:102B7000FA68D318BB627B687B633B683B6396E073
:102B80007B6B1B687B627B6B03F104037B637B6B5A
:102B90001B683B62FB6A93ED007AD7ED097A67EE1A
:102BA000277AC7ED077AFB6AD3ED007AB1EE677A30
:102BB000D7ED087A67EE277AC7ED067AFB6A03F14C
:102BC0000403FB62FB6A93ED007ABB6AD3ED007AE3
:102BD00037EE277AD7ED087A67EE277A97ED077AEE
:102BE00077EE277AC7ED077AFB6A93ED007AD7ED87
:102BF000097A67EE277A97ED067A77EE277AC7ED9E
:102C0000067AFB6A03F10403FB623B6B1B687B6182
:102C1000BB6A93ED007AD7ED057A67EE277A97EDD8
:102C2000067A77EE677AC7ED067ABB6AA3F10403EA
:102C3000BB62BB6A93ED007AD7ED057A67EE277A1F
:102C400097ED077A77EE277AC7ED077ABB6A93ED9F
:102C5000007AD7ED087A67EE277A97ED067A77EE55
:102C6000277AC7ED067ABB6AA3F10403BB623B6C0B
:102C7000FA691A603B6C03F104033B643B6CBA696C
:102C80001A603B6C03F104033B647B6C4FEAC303A3
:102C90003A6BD3183B637B6C4FEAC303A3F1040385
:102CA0007A6BD3187B63BB6803F1FF33BB60BB68EF
:102CB000002B7FF465AF07F13C07BD4680BC704731
:102CC00080B582B000AF46F6A813C0F601037B6062
:102CD00040F20003C2F200033B600BE07B681A681D
:102CE0003B681A603B6803F104033B607B6803F1B7
:102CF00004037B603A6840F6B433C2F200039A42A0
:102D0000ECD30C480C494FF000028842B8BF40F8A1
:102D1000042BFFF6FAAFDFF82400016841F47001DC
:102D2000016001F0B7FF00F0A3F807F10807BD4606
:102D300080BD0000B40B00201C46002088ED00E0A0
:102D400080B400AFFEE700BF80B588B000AF024698
:102D50000B46FA71BB71FA794DF61C33C0F60003CD
:102D600053F8223018464FF0010101F081FA4FF478
:102D700080404FF0010101F0F9FA4FF000033B777A
:102D80004FF00003FB77FA794DF61833C0F60003D5
:102D900033F81230BB61FA7940F21403C2F2000337
:102DA00053F8222007F118031046194601F042FE9D
:102DB000BB79012B3AD1FA794DF62433C0F60003E2
:102DC0009A5CF9794DF62833C0F600035B5C104637
:102DD0001946FDF7D9F9FA794DF62033C0F600030C
:102DE00033F812303B614FF000033B754FF008039E
:102DF0007B754FF00103BB7507F11003184602F015
:102E0000B5FAFA794DF62C33C0F600039B5C3B73A0
:102E10004FF00F037B734FF00F03BB734FF00103B1
:102E2000FB7307F10C03184602F050FB07F1200773
:102E3000BD4680BD80B582B000AF0346FB71FA7914
:102E400040F21403C2F2000353F82220F9794DF640
:102E50001833C0F6000333F811301046194601F05C
:102E60008BFE0346184607F10807BD4680BD00BF2C
:102E7000B0B586B002AF01F0D7F901F0B9F901F0B1
:102E80003BF901F083F943F28813C2F200034FF4D7
:102E9000FA421A8043F28813C2F200034FF0000294
:102EA000C4F220129A6043F28813C2F200034FF07A
:102EB0000002C4F27A625A6043F28813C2F200033D
:102EC0004FF001029A8143F28813C2F200034FF0DF
:102ED0000102DA8143F28810C2F2000002F024FC01
:102EE0004FF00103009342F20410C2F2000044F2DA
:102EF000C011C2F200014FF400724FF0000301F064
:102F0000B3FA4FF000004FF00001FFF71DFFFDF78F
:102F10002FFB4FF00000FDF7B9FC4FF00000FDF76C
:102F200079FE40F22000C2F20000FDF793FC4FF45E
:102F3000FC60FDF78FFE4FF0010300934FF0A000FF
:102F40004FF01E014DF63032C0F600024FF0000384
:102F5000FDF7EAFF4FF0010300934FF0A0004FF0A0
:102F600032014DF64832C0F600024FF00003FDF783
:102F7000DBFF40F23000C2F20000FDF76BFC4FF4C3
:102F8000FC60FDF767FE4FF0010300934FF0A000D7
:102F90004FF046014DF65832C0F600024FF00003E4
:102FA000FDF7C2FF4FF0010300934FF0A0004FF078
:102FB0005A014DF66C32C0F600024FF00003FDF7E7
:102FC000B3FF40F23000C2F20000FDF743FC4FF6C1
:102FD000E070FDF73FFE4FF0010300934FF0A000BB
:102FE0004FF096014DF67C32C0F600024FF0000320
:102FF000FDF79AFF00BF4FF00000FFF71BFF0346ED
:10300000002BF8D000BF4FF00000FFF713FF03467E
:10301000012BF8D04FF6FF70FDF70CFE4CF2186054
:10302000FDF718FE4FF00000FDF730FC4FF00103F4
:1030300000934FF020004FF005014DF69832C0F696
:1030400000024FF00103FDF76FFF4FF01F004FF03C
:1030500013014FF481724FF03F03FDF755FE4FF01F
:10306000000300934FF020004FF014014FF48072E2
:103070004FF03D03FDF7FEFD4FF01F004FF08101C3
:103080004FF481724FF06703FDF73EFE4FF00003EF
:1030900000934FF020004FF082014FF480724FF008
:1030A0006503FDF7E7FD4FF00003BB6019E044F254
:1030B0001823C2F20003BA684FEA82029B184FF04D
:1030C00000021A6041F60453C2F20003BA684FEAE4
:1030D00082029B184FF000021A60BB6803F10103E3
:1030E000BB60BB68FF2BE2D941F26F23C3F6832399
:1030F0003B604FF00003FB6043F28413C2F2000315
:103100004FF001021A7000F038BDFB6803F10103B3
:10311000FB60FB68B3F5806F02D94FF00103FB60E1
:103120004FF00000FFF786FE0346012B63D100BF7E
:103130004FF00000FFF77EFE0346012BF8D043F26C
:103140008413C2F200031B7803F10103DAB243F2E5
:103150008413C2F200031A7043F28413C2F2000314
:103160001B78022B0FD14FF0010300934FF020008A
:103170004FF005014DF6B032C0F600024FF00103EA
:10318000FDF7D2FE2CE043F28413C2F200031B7859
:10319000032B0FD14FF0010300934FF020004FF0AD
:1031A00005014DF6C832C0F600024FF00103FDF7ED
:1031B000BBFE15E043F28413C2F200031B78042B1C
:1031C0000ED14FF0010300934FF020004FF00501A6
:1031D0004DF6E032C0F600024FF00103FDF7A4FE09
:1031E00043F28413C2F200031B78042B00F2E6843E
:1031F0004FF00103FB6043F28413C2F200031B781B
:10320000012B45D14FF00003BB603BE0D7ED037AC3
:10321000B8EE677ADFEDBD7A27EE277AD7ED027A2E
:10322000F8EE677A27EE277AD7ED007A67EE277AED
:1032300017EE900A04F09CFB02460B461046194616
:1032400002F0BAFC02460B46104619464FF0000247
:103250004FF00003C4F23E0304F0DEFB02460B46CF
:103260001046194604F0BAFE024643F2C013C2F2F9
:103270000003B9684FEA81015B181A60BB6803F16B
:103280000103BB60BA6840F2FF139A42BED919E24B
:1032900043F28413C2F200031B78022B77D14FF064
:1032A0000003BB606DE0D7ED037AB8EE677ADFED1F
:1032B000977A27EE277AD7ED027AF8EE677A27EE2B
:1032C000277AD7ED007A67EE277A17EE900A04F096
:1032D0004FFB02460B461046194602F06DFC0246B3
:1032E0000B46104619464FF000024FF00003C4F29F
:1032F000340304F091FB02460B4614461D46D7EDFD
:10330000037AB8EE677ADFED827A27EE277AD7ED77
:10331000027AF8EE677A27EE277AD7ED007A67EE21
:10332000277A17EE900A04F023FB02460B4610465C
:10333000194602F041FC02460B46104619464FF072
:1033400000024FF00003C4F2240304F065FB0246C0
:103350000B462046294604F0ADF902460B461046BE
:10336000194604F03BFE024643F2C013C2F20003CA
:10337000B9684FEA81015B181A60BB6803F1010369
:10338000BB60BA6840F2FF139A428CD99AE143F2CB
:103390008413C2F200031B78032B40F0AB804FF084
:1033A0000003BB609FE0D7ED037AB8EE677ADFEDEC
:1033B000577A27EE277AD7ED027AF8EE677A27EE6A
:1033C000277AD7ED007A67EE277A17EE900A04F095
:1033D000CFFA02460B461046194602F0EDFB0246B4
:1033E0000B46104619464FF000024FF00003C4F29E
:1033F0002E0304F011FB02460B4614461D46D7ED82
:10340000037AB8EE677ADFED427A27EE277AD7EDB6
:10341000027AF8EE677A27EE277AD7ED007A67EE20
:10342000277A17EE900A04F0A3FA02460B461046DC
:10343000194602F0C1FB02460B46104619464FF0F2
:1034400000024FF00003C4F2240304F0E5FA024640
:103450000B462046294604F02DF902460B46144639
:103460001D46D7ED037AB8EE677ADFED2A7A27EEAC
:10347000277AD7ED027AF8EE677A27EE277AD7ED2A
:10348000007A67EE277A17EE900A04F071FA024686
:103490000B461046194602F08FFB02460B461046BB
:1034A00019464FF000024FF00003C4F2140304F079
:1034B000B3FA02460B462046294604F0FBF80246C2
:1034C0000B461046194604F089FD024643F2C0132C
:1034D000C2F20003B9684FEA81015B181A60BB6849
:1034E00003F10103BB60BA6840F2FF139A427FF612
:1034F0005AAFE7E043F28413C2F200031B78042BB7
:1035000040F0E0804FF00003BB60D5E0DB0FC94026
:10351000DB0F4941E4CB9641DB0FC9410000484233
:10352000D7ED037AB8EE677A5FED087A27EE277A4F
:10353000D7ED027AF8EE677A27EE277AD7ED007A90
:1035400067EE277A17EE900A04F012FA02460B464D
:103550001046194602F030FB02460B46104619464B
:103560004FF000024FF00003C4F22E0304F054FAAF
:1035700002460B4614461D46D7ED037AB8EE677A2D
:103580005FED1D7A27EE277AD7ED027AF8EE677A9B
:1035900027EE277AD7ED007A67EE277A17EE900AA2
:1035A00004F0E6F902460B461046194602F004FB09
:1035B00002460B46104619464FF000024FF000033A
:1035C000C4F2240304F028FA02460B46204629469A
:1035D00004F070F802460B4614461D46D7ED037AF8
:1035E000B8EE677A5FED357A27EE277AD7ED027A63
:1035F000F8EE677A27EE277AD7ED007A67EE277A1A
:1036000017EE900A04F0B4F902460B46104619462C
:1036100002F0D2FA02460B46104619464FF000025D
:103620004FF00003C4F2080304F0F6F902460B461B
:103630002046294604F03EF802460B4614461D4635
:10364000D7ED037AB8EE677A5FED4D7A27EE277AE9
:10365000D7ED027AF8EE677A27EE277AD7ED007A6F
:1036600067EE277A17EE900A04F082F902460B46BD
:103670001046194602F0A0FA02460B4610461946BB
:1036800004F018F802460B462046294604F012F8CA
:1036900002460B461046194604F0A0FC024643F2CF
:1036A000C013C2F20003B9684FEA81015B181A60C7
:1036B000BB6803F10103BB60BA6840F2FF139A4292
:1036C0007FF62EAF4FF00000FDF7B4FA4FF0000385
:1036D000BB6039E0BB689BB203F1200398B244F2AF
:1036E0001823C2F20003BA684FEA82029B1893EDD6
:1036F000007A5FED767A77EE277AFCEEE77A17EEBE
:10370000903A9BB2D9B2BB689BB203F121039AB243
:10371000BB6803F1010444F21823C2F200034FEA2C
:1037200084041B1993ED007A5FED847A77EE277A93
:10373000FCEEE77A17EE903A9BB2DBB2FDF7C8FADF
:10374000BB6803F10103BB60BB68FE2BC2D94FF617
:10375000E070FDF76FFA4FF00003BB6039E0BB6823
:103760009BB203F1200398B243F2C013C2F20003EC
:10377000BA684FEA82029B1893ED007A5FED997A5E
:1037800077EE277AFCEEE77A17EE903A9BB2D9B241
:10379000BB689BB203F121039AB2BB6803F1010439
:1037A00043F2C013C2F200034FEA84041B1993EDE5
:1037B000007A5FEDA67A77EE277AFCEEE77A17EECD
:1037C000903A9BB2DBB2FDF783FABB6803F10103C9
:1037D000BB60BB68FE2BC2D943F28413C2F2000364
:1037E0001B78012B1AD143F22010C2F200004DF6D3
:1037F000F831C0F60001FA6804F00CFE4FF0010346
:1038000000934FF020004FF0640143F22012C2F207
:1038100000024FF00103FDF787FBADE043F2841394
:10382000C2F200031B78022B1DD1FB684FEA430351
:1038300043F22010C2F200004DF60441C0F6000130
:10384000FA6804F0E7FD4FF0010300934FF0200009
:103850004FF0640143F22012C2F200024FF0010364
:10386000FDF762FB88E043F28413C2F200031B7889
:10387000032B3CD1FB684FEA430343F22010C2F212
:1038800000004DF60441C0F60001FA6804F0C2FDE4
:103890004FF0010300934FF020004FF0640143F21A
:1038A0002012C2F200024FF00103FDF73DFBFA685F
:1038B00013464FEA43039B1843F22010C2F2000064
:1038C0004DF61C41C0F600011A4604F0A3FD4FF06E
:1038D000010300934FF020004FF06E0143F22012DD
:1038E000C2F200024FF00103FDF71EFB44E043F279
:1038F0008413C2F200031B78042B3DD1FB684FEA0E
:10390000430343F22010C2F200004DF60441C0F61A
:103910000001FA6804F07EFD4FF0010300934FF0C0
:1039200020004FF0640143F22012C2F200024FF077
:103930000103FDF7F9FAFA6813464FEA43039A18B0
:10394000FB684FEA830343F22010C2F200004DF6F9
:103950002841C0F6000104F05DFD4FF00103009323
:103960004FF020004FF06E0143F22012C2F200022D
:103970004FF00103FDF7D8FA4FF00003BB6027E0DA
:1039800043F2C013C2F20003BA684FEA82029B18E6
:103990001A6844F21823C2F20003B9684FEA8101A1
:1039A0005B181A6040F60453C2F20003BA684FEA8B
:1039B00082029B181A6841F60453C2F20003B968E8
:1039C0004FEA81015B181A60BB6803F10103BB6019
:1039D000BB68FF2BD4D942F20410C2F2000043F2BC
:1039E000C011C2F2000142F22012C2F20002FEF740
:1039F00031FF42F22010C2F2000040F60451C2F240
:103A000000014FF4007200F061FE40F60450C2F273
:103A100000004FF4007143F2BC12C2F2000244F203
:103A20001423C2F2000301F0C3FD4FF00003BB609A
:103A300023E040F60453C2F20003BA684FEA820260
:103A40009B1893ED007ADFEDBF7A27EE277A43F2D9
:103A5000BC13C2F20003D3ED007AC7EE277A40F61A
:103A60000453C2F20003BA684FEA82029B18C3ED06
:103A7000007ABB6803F10103BB60BA6840F2FF1330
:103A80009A42D6D94FF00000FDF7D4F84FF000036A
:103A9000BB602AE0BB689BB203F1200399B2BB680C
:103AA0009BB203F120039AB2BB6803F1010041F617
:103AB0000453C2F200034FEA80001B18D3ED007AD2
:103AC000FCEEE77A17EE903A9BB2D8B24FF6E67367
:103AD000CFF6FF731B1ADBB208464FF0E601FDF785
:103AE000F7F8BB6803F10103BB60BB68FF2BD1D9BA
:103AF0004FF4FC60FDF79EF84FF00003BB602AE036
:103B0000BB689BB203F1200399B2BB689BB203F17F
:103B100020039AB2BB6803F1010040F60453C2F2DD
:103B200000034FEA80001B18D3ED007AFCEEE77A21
:103B300017EE903A9BB2D8B24FF6E673CFF6FF730A
:103B40001B1ADBB208464FF0E601FDF7C1F8BB686F
:103B500003F10103BB60BB68FF2BD1D94FF0000319
:103B6000BB6003E0BB6803F10103BB60BA684FF6BA
:103B7000FF73C0F201039A42F4D943F28413C2F2F4
:103B800000031B78012B3FF4C0AA43F28413C2F256
:103B900000031B78022B3FF4B8AA43F28413C2F24D
:103BA00000031B78032B3FF4B0AA43F28413C2F244
:103BB00000031B78042B3FF4A8AA00E000BF4FF6D7
:103BC000FF70FDF737F84CF21860FDF743F84FF03F
:103BD0000000FCF75BFE4FF0010300934FF0640020
:103BE0004FF005014DF64042C0F600024FF00103D0
:103BF000FDF79AF94FF00003BB6019E044F2182377
:103C0000C2F20003BA684FEA82029B184FF000022A
:103C10001A6041F60453C2F20003BA684FEA820206
:103C20009B184FF000021A60BB6803F10103BB60F0
:103C3000BB68FF2BE2D94FF000037B604FF015000B
:103C40004FF0140100F00EF94FF46050C4F2000080
:103C50004FF0010101F0E2FA4FF00000FFF7EAF83F
:103C60000346012B08D100BF4FF00000FFF7E2F838
:103C70000346012BF8D0EAE040F6C033C2F200035D
:103C80001B68002B00F09A804FF00003BB601CE023
:103C90007B684FEA4312BB68D21844F2D413C2F2D5
:103CA0000003B96833F8113007EE103AF8EE477A9E
:103CB00043F2C013C2F200034FEA82029B18C3ED25
:103CC000007ABB6803F10103BB60BB681F2BDFD91F
:103CD0007B6803F101037B607B68102B67D94FF091
:103CE00000037B604FF0000000F0B0F942F20410D6
:103CF000C2F2000043F2C011C2F2000142F22012EF
:103D0000C2F20002FEF7A6FD42F22010C2F200004D
:103D100040F60451C2F200014FF4007200F0D6FCEC
:103D200009484FF4007143F2BC12C2F2000244F29F
:103D30001423C2F2000301F03BFC4FF00003BB6010
:103D40002CE000BF0000C842080D002000000C431A
:103D50008096984BBB6803F10102BB6803F1010137
:103D600040F60453C2F200034FEA81015B1893ED61
:103D7000007A5FED0A7A27EE277A5FED0B7AC7EEBD
:103D8000277A40F60453C2F200034FEA82029B18DE
:103D9000C3ED007ABB6803F10103BB60BA6840F26F
:103DA000FF139A42D6D94FF4FC6000F04FF940F669
:103DB000C033C2F200034FF000021A6044F2142331
:103DC000C2F200031B6803F10103184603F0AEFDC5
:103DD00002460B46104619464FF000024FF0000312
:103DE000C4F2400303F018FE02460B461046194683
:103DF0004FF000024FF0814303F038FF02460B46BC
:103E000043F22010C2F200004DF65041C0F600010E
:103E100004F000FB4FF0010300934FF064004FF0FB
:103E20000F0143F22012C2F200024FF00103FDF72E
:103E30007BF84FF00003BB6003E0BB6803F10103B4
:103E4000BB60BA684FF6FF739A42F6D904E74FF4A5
:103E50006050C4F200004FF0000101F0DFF9FFF7FD
:103E6000D9B800BF80B586B002AF02460B46FA80D3
:103E70007B7142F21C13C2F20003FA881A8040F6EA
:103E80000053C2F200037A791A704FF6FF70FCF704
:103E9000D1FEFB8803F10A039AB27B7903F10A038E
:103EA000DBB2104619464FF481724FF09803FCF7CD
:103EB0002BFFFB8803F10B039AB27B7903F10B0311
:103EC000DBB24FF000010091104619464FF48072AA
:103ED0004FF09603FCF7CEFE40F23000C2F2000035
:103EE000FCF7B8FC4CF21860FCF7B4FE4FF000038E
:103EF000FB605EE0FB684FEA0313184603F026FD03
:103F000002460B46104619464FF000024FF00003E0
:103F1000C4F2400303F080FD02460B4610461946EA
:103F20004FF000024FF0814303F0A0FE02460B4623
:103F300043F22010C2F200004DF66041C0F60001CD
:103F400004F068FAFB689BB24FEA03139AB2FB884D
:103F5000D3189BB203F10A039AB27B79A3F15E03F3
:103F6000DBB2104619464FF005024FF00103FCF793
:103F700099FEFB689BB24FEA03139AB2FB88D318F1
:103F80009BB203F10E039AB27B79A3F15403DBB227
:103F90004FF0020100911046194643F22012C2F27E
:103FA00000024FF00103FCF7BFFFFB6803F10103C0
:103FB000FB60FB68102B9DDDFB689BB24FEA03138F
:103FC0009AB2FB88D3189BB203F10E039AB27B79A5
:103FD000A3F15403DBB24FF00201009110461946E1
:103FE0004DF66842C0F600024FF00103FCF79CFF5B
:103FF0004FF00003FB6022E0FB8803F105039AB257
:10400000FB68DBB219464FEAC101CB1A19464FEAE9
:10401000411019460346CB18D9B27B79CB18DBB2D5
:10402000A3F15F03DBB2104619464FF005024FF0D3
:104030000003FCF737FEFB6803F10103FB60FB683C
:10404000062BD9DD07F11007BD4680BDB0B584B0A1
:1040500000AF0346FB80FB881846FCF7EBFD4FF0F2
:104060000003FB6041E0FB689AB242F21C13C2F20B
:1040700000031B88D3189BB203F10B0398B240F6E0
:104080000053C2F200031B78A3F16003D9B2FB68AE
:104090009AB242F21C13C2F200031B88D3189BB2DF
:1040A00003F10B039AB240F60053C2F200031C78EE
:1040B000FB6803F1010540F60453C2F200034FEA26
:1040C00085055B19D3ED007AFCEEE77A17EE903A9E
:1040D0009BB2DBB2E31ADBB2A3F16003DBB2FCF705
:1040E000F7FDFB6803F10103FB60FB68FF2BBADD02
:1040F00007F11007BD46B0BD80B582B000AF4FF4E8
:1041000080633B604FF002033B714FF00003BB71D3
:104110004FF00003FB714FF001037B713B464FF4FE
:104120008060C4F20200194600F084FC4FF00803DE
:104130003B604FF002033B714FF00003BB714FF047
:104140000003FB714FF001037B713B464FF40060AD
:10415000C4F20200194600F06DFC4FF48060C4F216
:1041600002004FF00A014FF0050200F03FFD4FF44E
:104170000060C4F202004FF003014FF0050200F0AE
:1041800035FD07F10807BD4680BD00BF80B584B08E
:1041900000AF4FF46050C4F2000000F0F1FE4FF4A5
:1041A0007A43BB604FF020037B804FF00003BB805D
:1041B0004FF00803BB814FF440733B804FF0000386
:1041C000FB803B464FF46050C4F20000194600F0FB
:1041D0001BFF4FF46050C4F200004FF060014FF03D
:1041E000010201F049F807F11007BD4680BD00BF8C
:1041F00080B582B000AF4FF4C06001F053F94FF0CA
:1042000024033B714FF00103FB714FF000037B71FE
:104210004FF00103BB7107F10403184601F056F992
:1042200007F10807BD4680BD80B500AF41F206002A
:104230004FF0010100F01CF84FF480404FF00101F5
:1042400000F06AF84FF0010000F002F880BD00BFF6
:1042500080B483B000AF0346FB714FF06803C4F233
:104260004723FA791A6007F10C07BD4680BC7047F6
:1042700080B483B000AF78600B46FB70FB78002BF6
:104280000CD04FF46053C4F202034FF46052C4F2F6
:104290000202116B7A680A431A630DE04FF460530F
:1042A000C4F202034FF46052C4F20202116B7A6846
:1042B0006FEA02020A401A6307F10C07BD4680BC90
:1042C000704700BF80B483B000AF78600B46FB70CE
:1042D000FB78002B0CD04FF46053C4F202034FF470
:1042E0006052C4F20202916B7A680A439A630DE04D
:1042F0004FF46053C4F202034FF46052C4F202025E
:10430000916B7A686FEA02020A409A6307F10C0720
:10431000BD4680BC704700BF80B483B000AF7860FA
:104320000B46FB70FB78002B0CD04FF46053C4F2AB
:1043300002034FF46052C4F20202116C7A680A431D
:104340001A640DE04FF46053C4F202034FF460525C
:10435000C4F20202116C7A686FEA02020A401A641F
:1043600007F10C07BD4680BC704700BF80B483B026
:1043700000AF78600B46FB70FB78002B0CD04FF43D
:104380006053C4F202034FF46052C4F20202516C53
:104390007A680A435A640DE04FF46053C4F2020392
:1043A0004FF46052C4F20202516C7A686FEA020262
:1043B0000A405A6407F10C07BD4680BC704700BF35
:1043C00080B483B000AF78600B46FB70FB78002BA5
:1043D0000CD04FF46053C4F202034FF46052C4F2A5
:1043E0000202116A7A680A431A620DE04FF46053C0
:1043F000C4F202034FF46052C4F20202116A7A68F6
:104400006FEA02020A401A6207F10C07BD4680BC3F
:10441000704700BF80B483B000AF78600B46FB707C
:10442000FB78002B0CD04FF46053C4F202034FF41E
:104430006052C4F20202516A7A680A435A620DE07D
:104440004FF46053C4F202034FF46052C4F202020C
:10445000516A7A686FEA02020A405A6207F10C0751
:10446000BD4680BC704700BF80B586B000AFF86025
:10447000B9607A603B604FF00003FB757B689BB2CC
:104480001A46FB681A607B689BB24FEA53039AB2E4
:10449000FB689A80FA684DF67043C0F60003D3605B
:1044A000FA684FF67043C0F6000313613B68DAB256
:1044B000FB689A713B6ADAB2FB68DA71FB681B68C9
:1044C000B3F5007F0AD0B3F5006F02D0802B0AD07D
:1044D0000EE0FB684FF001029A600DE0FB684FF0C0
:1044E00004029A6008E0FB684FF010029A6003E053
:1044F0004FF0FF03FB7500BFFB68BA685A61FB68A9
:104500009B79002B0CD0FB685A69FB689B8810468E
:1045100019464FF001024FF0000301F087F80BE05D
:10452000FB685A69FB689B88104619464FF00002E9
:104530004FF0000301F07AF8FB7D5BB2184607F1FB
:104540001807BD4680BD00BF80B400AFBD4680BC2B
:10455000704700BF80B400AFFEE700BF80B400AF7B
:10456000FEE700BF80B400AFFEE700BF80B400AF3D
:10457000FEE700BF80B400AFBD4680BC704700BFFF
:1045800080B400AFBD4680BC704700BF80B400AFB0
:10459000BD4680BC704700BF80B400AFBD4680BC44
:1045A000704700BF80B582B000AF4FF46050C4F2D6
:1045B00000004FF0600100F095FE0346002B5FD035
:1045C0004FF46050C4F2000000F048FE0346FB8048
:1045D00040F6BC33C2F200031A68FB88D9B240F639
:1045E0000043C2F20003995402F1010240F6BC33C9
:1045F000C2F200031A6040F6BC33C2F200031A682C
:10460000FB884FEA13239BB2D9B2FB884FEA0323FE
:10461000DBB20B43DBB2D9B240F60043C2F2000377
:10462000995402F1010240F6BC33C2F200031A6051
:1046300040F6BC33C2F200031B68FF2B20D940F6C2
:10464000BC33C2F200034FF000021A604FF0320395
:10465000BB80BB8840F60040C2F2000044F2D41197
:10466000C2F200011A4643F28813C2F2000301F0BD
:10467000DFF840F6C033C2F200034FF001021A60C7
:1046800007F10807BD4680BD80B582B000AF87ED59
:10469000010A3860D7ED017AF5EEC07AF1EE10FA32
:1046A00008DD786801F0D4FA02463B681A604FF0E2
:1046B000000305E03B684FF000021A604FF0FF0373
:1046C0005BB2184607F10807BD4680BD80B588B0CB
:1046D00000AFF860B9607A607B684FEA9303FB61D2
:1046E0009BE0FB681B68BB61FB6803F10403FB6094
:1046F000FB681B687B61FB6803F10403FB6097EDBB
:10470000067AD7ED067A27EE277AD7ED056AD7ED38
:10471000057A66EEA77A77EE277ABB68BA6802F167
:104720000402BA60B0EE670A1846FFF7ADFFFB68F7
:104730001B68BB61FB6803F10403FB60FB681B683B
:104740007B61FB6803F10403FB6097ED067AD7ED0C
:10475000067A27EE277AD7ED056AD7ED057A66EE59
:10476000A77A77EE277ABB68BA6802F10402BA60CA
:10477000B0EE670A1846FFF787FFFB681B68BB614E
:10478000FB6803F10403FB60FB681B687B61FB684B
:1047900003F10403FB6097ED067AD7ED067A27EE66
:1047A000277AD7ED056AD7ED057A66EEA77A77EE18
:1047B000277ABB68BA6802F10402BA60B0EE670AF1
:1047C0001846FFF761FFFB681B68BB61FB6803F1DC
:1047D0000403FB60FB681B687B61FB6803F1040357
:1047E000FB6097ED067AD7ED067A27EE277AD7EDAC
:1047F000056AD7ED057A66EEA77A77EE277ABB6869
:10480000BA6802F10402BA60B0EE670A1846FFF710
:104810003BFFFB6903F1FF33FB61FB69002B7FF476
:1048200060AF7B6803F00303FB6129E0FB681B6852
:10483000BB61FB6803F10403FB60FB681B687B61E1
:10484000FB6803F10403FB6097ED067AD7ED067A67
:1048500027EE277AD7ED056AD7ED057A66EEA77AB7
:1048600077EE277ABB68BA6802F10402BA60B0EE4C
:10487000670A1846FFF708FFFB6903F1FF33FB6186
:10488000FB69002BD2D107F12007BD4680BD00BFD8
:1048900080B483B000AF78604FF020437A6812682C
:1048A000796848687968896808437968C9680843FD
:1048B00079680969084379684969084379688969A9
:1048C00008437968C96908437968096A08437968BF
:1048D000496A08437968896A08437968C96A08435C
:1048E0007968096B014343F822107B689B68082BA9
:1048F0000DD14FF020437A6812684FF0204178685C
:10490000006851F8201041F0400143F822104FF0A8
:1049100020437A68126802F101027968496B0868DD
:104920007968496B49684FEA011108437968496B16
:1049300089684FEA012108437968496BC9684FEAE1
:10494000014108437968496B09694FEA01510843FD
:104950007968496B49694FEA016108437968496B95
:104960008969014343F822107B68DB6AB3F5804F05
:1049700027D14FF48273CAF200037A68126879680B
:10498000896B08687968896B49684FEA01110843A7
:104990007968896B89684FEA012108437968896BD6
:1049A00009694FEA015108437968896B49694FEAFF
:1049B000016108437968896B8969014343F82210D2
:1049C00009E04FF48273CAF200037A6812686FF04C
:1049D000704143F8221007F10C07BD4680BC7047B8
:1049E00080B483B000AF78600B46FB70FB78002B7F
:1049F0000CD04FF020434FF02042796852F821202C
:104A000042F001017A6843F822100EE04FF0204294
:104A10004FF02043796853F821104FF6FE73C0F22F
:104A20000F030B40796842F8213007F10C07BD46AF
:104A300080BC704780B487B000AF786039604FF0B9
:104A400000037B614FF000033B614FF00003FB600C
:104A50004FF000037B6186E07B694FF0010202FAB0
:104A600003F33B613B681A683B691340FB60FA68DB
:104A70003B699A4273D17B681A687B694FEA4303AA
:104A80004FF0030101FA03F36FEA03031A407B6856
:104A90001A607B681A683B681B7919467B694FEA84
:104AA000430301FA03F31A437B681A603B681B79DE
:104AB000012B03D03B681B79022B34D17B689A68A9
:104AC0007B694FEA43034FF0030101FA03F36FEAF6
:104AD00003031A407B689A607B689A683B685B793D
:104AE00019467B694FEA430301FA03F31A437B68D3
:104AF0009A607B685A687B699BB24FF0010101FAAA
:104B000003F36FEA03031A407B685A607B685A68B4
:104B10003B689B7919467B699BB201FA03F39BB210
:104B20001A437B685A607B68DA687B699BB24FEAFC
:104B300043034FF0030101FA03F36FEA03031A4042
:104B40007B68DA607B68DA683B68DB7919467B69E9
:104B50004FEA430301FA03F31A437B68DA607B6987
:104B600003F101037B617B690F2B7FF675AF07F1C2
:104B70001C07BD4680BC704780B485B000AF78602C
:104B80000B467B804FF00003FB737B681A697B88C0
:104B90001340002B03D04FF00103FB7302E04FF0F2
:104BA0000003FB73FB7B184607F11407BD4680BC6E
:104BB000704700BF80B483B000AF78600B467B8045
:104BC0007B687A881A8307F10C07BD4680BC704762
:104BD00080B483B000AF78600B467B807B687A88B6
:104BE0005A8307F10C07BD4680BC704780B485B07E
:104BF00000AF786013460A467A807B704FF000035E
:104C0000FB604FF00003BB607A787B8803F00703FA
:104C10004FEA830302FA03F3FB607B884FEAD30376
:104C20009BB21A467B884FEAD3039BB219467B6836
:104C300001F1080153F821107B8803F007034FEAC4
:104C400083034FF00F0000FA03F36FEA03031940E8
:104C50007B6802F1080243F822107B884FEAD303F5
:104C60009BB21A467B6802F1080253F82220FB68C7
:104C70001343BB607B884FEAD3039BB21A467B6821
:104C800002F10802B96843F8221007F11407BD4683
:104C900080BC704780B500AF4FF46D43CEF2000387
:104CA0004FF46D42CEF20002D2F8882042F4700236
:104CB000C3F888204FF46053C4F202034FF46052EB
:104CC000C4F20202126842F001021A604FF460530B
:104CD000C4F202034FF000029A604FF46053C4F232
:104CE00002034FF46052C4F20202126822F084728E
:104CF00022F480321A604FF46053C4F2020343F28C
:104D00001002C2F200425A604FF46053C4F2020330
:104D10004FF46052C4F20202126822F480221A6038
:104D20004FF46053C4F202034FF00002DA6000F067
:104D300009F84FF46D43CEF200034FF000629A6021
:104D400080BD00BF80B483B000AF4FF000037B6034
:104D50004FF000033B604FF46053C4F202034FF482
:104D60006052C4F20202126842F480321A604FF4B8
:104D70006053C4F202031B6803F400333B607B689A
:104D800003F101037B603B68002B03D17B68B3F523
:104D9000A06FECD14FF46053C4F202031B6803F41C
:104DA0000033002B03D04FF001033B6002E04FF0D3
:104DB00000033B603B68012B40F082804FF460535E
:104DC000C4F202034FF46052C4F20202126C42F0C9
:104DD00080521A644FF4E043C4F200034FF4E042FF
:104DE000C4F20002126842F480421A604FF4605329
:104DF000C4F202034FF46052C4F2020292689A6055
:104E00004FF46053C4F202034FF46052C4F2020242
:104E1000926842F400429A604FF46053C4F2020375
:104E20004FF46052C4F20202926842F4A0529A60B7
:104E30004FF46053C4F2020345F20842C0F24072DC
:104E40005A604FF46053C4F202034FF46052C4F24C
:104E50000202126842F080721A6000BF4FF4605381
:104E6000C4F202031B6803F00073002BF6D04FF46A
:104E70007053C4F2020340F205621A604FF46053AB
:104E8000C4F202034FF46052C4F20202926822F0AC
:104E900003029A604FF46053C4F202034FF460526D
:104EA000C4F20202926842F002029A6000BF4FF41C
:104EB0006053C4F202039B6803F00C03082BF6D185
:104EC0004FF46053C4F202034FF46052C4F2020282
:104ED000926822F400029A604FF46053C4F2020315
:104EE0004FF48142C3F20002C3F884204FF46053B0
:104EF000C4F202034FF46052C4F20202126842F09C
:104F000080621A6000BF4FF46053C4F202031B6852
:104F100003F00063002BF6D007F10C07BD4680BC00
:104F2000704700BF80B485B000AF786040F6C433EE
:104F3000C2F200031B68002B08D140F6C433C2F252
:104F4000000344F62062C2F200021A6040F6C43345
:104F5000C2F200031B68FB6040F6C433C2F20003D8
:104F60001A687B68D21840F6C433C2F200031A6094
:104F7000FB68184607F11407BD4680BC704700BFA8
:104F800080B582B000AF78607A684FF44053C4F2C5
:104F900001039A420CD14FF480504FF00101FFF70A
:104FA00039FA4FF480504FF00001FFF733FA26E052
:104FB0007A684FF46053C4F200039A420CD14FF464
:104FC00080404FF00101FFF7FBF94FF480404FF0B4
:104FD0000001FFF7F5F912E07A684FF47053C4F25C
:104FE00000039A420BD14FF400404FF00101FFF74C
:104FF000E7F94FF400404FF00001FFF7E1F907F146
:105000000807BD4680BD00BF80B48BB000AF78609C
:1050100039604FF000037B834FF00203FB844FF0B5
:105020000003BB844FF001037B844FF00003FB615E
:105030004FF000037B614FF000033B614FF0000332
:10504000FB604FF00003BB607B689B8B9BB223F43B
:105050007B6323F00F039AB27B689A837B684FF0DF
:1050600002021A847B689B8B7B833B689B68022BC4
:1050700006D14FF00003BB844FF00203FB849AE09B
:105080003B689B88002B03D14FF001037B8402E037
:105090004FF002037B844FF46053C4F202039B6819
:1050A00003F40003002B0BD04FF46053C4F202034F
:1050B0004FF46052C4F20202926822F400029A6035
:1050C0004FF46053C4F20203D3F8842047F6C07350
:1050D00013404FEA93134FEAC3534FEAD353FB6095
:1050E0004FF46053C4F20203D3F8843003F0E0437A
:1050F0004FEA137303F00703BB604FF46053C4F22D
:1051000002035B6803F03F033B614FF49053C0F22E
:105110007A033A69B3FBF2F3FA6802FB03F2BB6865
:10512000B2FBF3F37B613B68DB88B3F5007F13D1FF
:105130007B694FEA132213464FEA83039B184FEA19
:1051400043031A463B689B68B2FBF3F39BB203F13F
:1051500005039BB2FB6115E07B8C4FEA43137A6930
:10516000B2FBF3F213464FEA83039B184FEA430363
:105170001A463B689B68B2FBF3F39BB203F105034D
:105180009BB2FB61FA694CF6CD43CCF6CC43A3FB52
:1051900002134FEAD303FB61FB699BB203F00103E7
:1051A000BB84BB8CFA69D31A4FEA5303FB84BB8CD4
:1051B0004FEA0323BB84FB8C012B02D9FB8CFF2B12
:1051C00005D94FF00203FB844FF00003BB843B681A
:1051D000DA88BB8C13439AB2FB8C13439AB27B6878
:1051E0001A843B681A883B6859883B6898883B68F2
:1051F0009B8903439BB20B439BB213439AB27B8BB5
:1052000013439BB243F400637B837B687A8B9A835E
:1052100007F12C07BD4680BC704700BF80B483B047
:1052200000AF78600B46FB70FB78002B08D07B68E2
:105230009B8B9BB243F480639AB27B689A8307E0AE
:105240007B689B8B9BB223F480639AB27B689A83C2
:1052500007F10C07BD4680BC704700BF80B483B027
:1052600000AF78607B689B899BB2184607F10C07FA
:10527000BD4680BC704700BF80B485B000AF786089
:1052800013460A46FA70BB704FF00003FB814FF0E3
:105290000003BB81FB784FEA1313DBB2FB81FB8970
:1052A0004FF0010202FA03F3BB81BB78002B08D058
:1052B0007B689B889AB2BB8913439AB27B689A80B9
:1052C0000AE07B689B889AB2BB896FEA03039BB2B2
:1052D00013409AB27B689A8007F11407BD4680BCE0
:1052E000704700BF80B485B000AF78600B46FB709C
:1052F0004FF00003FB734FF00003BB814FF000033E
:105300007B814FF000033B81FB7803F00F034FF0EC
:10531000010202FA03F3BB81FB784FEA1313DBB2FD
:105320007B817B894FF0010202FA03F37B817B686A
:105330009B889AB27B8913403B817B681B899AB218
:10534000BB8913409BB2002B06D03B89002B03D0B6
:105350004FF00103FB7302E04FF00003FB73FB7B94
:10536000184607F11407BD4680BC704780B485B06D
:1053700000AF78604FF00003FB604FF47053C4F24D
:105380000103FB607B689B79002B78D04FF470534E
:10539000C4F201034FF47052C4F2010211687A683A
:1053A00012686FEA02020A401A604FF47053C4F2A6
:1053B00001034FF47052C4F2010251687A68126816
:1053C0006FEA02020A405A607B681B79FA68D318B8
:1053D000FB60FB68FA6811687A6812680A431A6011
:1053E0004FF47053C4F201034FF47052C4F201023F
:1053F00091687A6812686FEA02020A409A604FF474
:105400007053C4F201034FF47052C4F20102D16828
:105410007A6812686FEA02020A40DA607B685B7998
:10542000102B1AD14FF47053C4F201034FF4705291
:10543000C4F2010291687A6812680A439A604FF4D4
:105440007053C4F201034FF47052C4F20102D168E8
:105450007A6812680A43DA601FE04FF47053C4F2AE
:105460000103FB607B685B79FA68D318FB60FB681B
:10547000FA6811687A6812680A431A600DE07B685E
:105480001B79FA68D318FB60FB68FA6811687A68C0
:1054900012686FEA02020A401A6007F11407BD465B
:1054A00080BC704780B483B000AF78604FF46D4328
:1054B000CEF200037A6842F0BF6242F40032DA6052
:1054C00007F10C07BD4680BC704700BF80B485B0B3
:1054D00000AF78604FF00003FB734FF00003BB7325
:1054E0004FF00F037B737B68DB78002B45D04FF4C4
:1054F0006D43CEF20003DB686FEA030303F4E0635D
:105500004FEA1323FB73FB7BC3F10403BB737A7B6A
:10551000FB7B42FA03F37B737B685B781A46BB7BA9
:1055200002FA03F3FB737B689A787B7B1340DAB251
:10553000FB7B1343FB73FB7B4FEA0313FB734FF4BB
:105540006143CEF200037A6812789B18FA7B83F8E5
:1055500000234FF46143CEF200037A6812784FEAD9
:105560005212D2B27968097801F01F014FF00100A0
:1055700000FA01F143F8221014E04FF46143CEF237
:1055800000037A6812784FEA5212D2B27968097829
:1055900001F01F014FF0010000FA01F102F12002B9
:1055A00043F8221007F11407BD4680BC704700BFC6
:1055B00080B489B000AFF860B9607A603B604FF0AA
:1055C00000037B61FB681B68FB61FB6803F104035C
:1055D000FB60BB6803F1FF33BB61FB681B683B6189
:1055E000FB6803F10403FB6097ED077AD7ED047ABB
:1055F000B4EEE77AF1EE10FA05D53B69FB61BA68C3
:10560000BB69D31A7B61BB6903F1FF33BB61BB6923
:10561000002BE2D17B68FA691A603B687A691A60EC
:1056200007F12407BD4680BC704700BF80B485B039
:1056300000AF786079807A703B704FF00003FB73A5
:105640007B687A881A807A6844F24063C0F6010366
:1056500053607B687A789A707B683A78DA707B68F6
:105660001B88402B2DD0402B02DC102B39D048E07A
:10567000B3F5807F15D0B3F5806F42D17B684FF0D2
:1056800001029A817B684FF00102DA817A684DF25B
:105690008073C0F6000393607B684FF06A521A6112
:1056A00033E07B684FF004029A817B684FF004027C
:1056B000DA817B68194A9A607B684FF06E521A61F2
:1056C00023E07B684FF010029A817B684FF0100254
:1056D000DA817B68124A9A607B684FF072521A61D5
:1056E00013E07B684FF040029A817B684FF04002E4
:1056F000DA817B680B4A9A607B684FF076521A61B8
:1057000003E04FF0FF03FB7300BFFB7B5BB2184667
:1057100007F11407BD4680BC704700BF86D700085C
:105720009ED70008FED700082DE9F84F3C4A3D4BB4
:1057300005461A601B683C4A0026934211D13B4A39
:10574000476800F110041360E6600661A6606660B9
:10575000A661666126613846002102F023FE08B189
:1057600026E0FEE738464FF0874102F087FC02F062
:10577000FFF880463846894602F0FAF8064628883F
:105780000F4602F0E3F824A3D3E9002302F06EFAF7
:1057900002460B463046394601F08CFF02460B4666
:1057A0004046494602F062FA02F0F8FBA08300E0AE
:1057B000A683AF680021384602F0F4FD10BB2E88A6
:1057C000300202F0C3F8824638468B4602F0D0F829
:1057D00011A3D3E9002302F01FF980463046894621
:1057E00002F0B4F802460B464046494601F062FF1B
:1057F00002460B465046594602F038FA02F0CEFBFC
:10580000E08301E00023E3832A884FF47A73B2FB3C
:10581000F3F32384BDE8F88F1F85EB51B81E1940C0
:10582000C2A507F400300240CDB5E8B5C80B002092
:105830002DE9F04FA1B01F92B04A1E911168B04AF5
:10584000914200D0FEE703F11002546911690B94F4
:10585000D468089191680694D48B059199899569CB
:105860000D9406244C430995958B4FEA81094FEA24
:10587000C10B0C954D0005EB010809EB010A1894CA
:10588000C1EB0B0C00241F6956681295CDF85880A7
:10589000CDF84C90CDF85CA0CDF854B0CDF864C0F4
:1058A00007940391019313E190F80080DFF860A260
:1058B000039D1AF80840DDF8489036190A9610F84A
:1058C00005C0904E1AF80C4016F80850169904EBD3
:1058D0004504E7190E9710F809408B4F1AF8045049
:1058E00017F8088010F801B0454416F80C8017F836
:1058F0000C9005EB48051AF80B8016F804C0C1445B
:1059000009EB4C0C139BCDF83CC010F803903C5DA8
:105910001AF809C016F80B80644404EB48080F9C81
:10592000CDF840804444DDF85C801C9410F808C039
:1059300017F80B801AF80C401899444416F809809F
:1059400017F8099004EB480404EB050BCDF874B08C
:1059500010F801801AF808B0D94416F80CB009EB19
:105960004B0BCDF844B00E9B17F80CC05B44DDF830
:1059700064B01B9310F80B9016F808B01AF809A041
:105980000F99D4440CEB4B0BDDF828C04FEA051AF5
:10599000DC44CDF868C0C5EB0A0A17F808C04FF020
:1059A0000A0808FB01AA16F80960119BCDF850B04F
:1059B0009A44DDF840B00CEB460604EB440CE2449C
:1059C00017F809704FF0060909FB0BAA06990A9B04
:1059D0008A444FF01C0C0CFB03AA0E994FF0150BD8
:1059E0000BFB01AA1D9BCDF828A04FF02E0A0AFB45
:1059F00003FA1C99302303FB01AA05991A9B514411
:105A00004FF0240A0AFB03131B99CA440AFB013115
:105A100006910F9905EB450509FB015925012C1B42
:105A2000109BA14408FB0399149C119D0CFB049945
:105A30000BFB05990E990A9B0D9C49440591A3F512
:105A4000003A64B1089D0B990D9B6C1A54445C4359
:105A500048BFFF342412CDF82CA00894A2460C9C19
:105A600064B1099DC4F580746C430C9901FB0A4430
:105A7000002CB8BFFF3424120994A2461F9B03FBDD
:105A80000AFABAF1000F04DD0AF1080A4FEA2A1AED
:105A900006E0BAF1080C48BF0AF1070C4FEA2C1ACD
:105AA000019DDDF81C80EC8947F6BC7C04FB08F402
:105AB000164DE245B8BFD4461E99159BAC45A8BF0C
:105AC000654608F1010821F81450C018CDF81C8073
:105AD000148C079DA542FFF6E7AE019B05991F6157
